:020000040800F2
:10000000804B0020050100082B3B00083D2C000818
:10001000293B0008710800081F4B00080000000081
:10002000000000000000000000000000754500080E
:10003000A5180008000000005F3B00087945000893
:100040001F0100081F0100081F0100081F01000810
:100050001F0100081F0100081F0100081F01000800
:100060001F0100081F0100081F0100087508000893
:100070001F010008BD0800081F0100081F0100083B
:100080001F0100081F0100081F0100081F010008D0
:100090001F0100081F0100081F010008451B000880
:1000A0001F0100081F0100081F0100081F010008B0
:1000B0001F0100081F0100081F0100081F010008A0
:1000C0001F0100081F0100081F0100081F01000890
:1000D0001F0100081F0100081F0100081F01000880
:1000E000A91800081F0100081F010008DFF810D040
:1000F00000F0ACFB0048004735500008AFF300802B
:10010000804B00200648804706480047FEE7FEE790
:10011000FEE7FEE7FEE7FEE7FEE7FEE7FEE7FEE7B7
:10012000A1480008ED000008202A04DB203A21FA4B
:1001300002F00021704721FA02F3D040C2F1200200
:100140009140084319467047D2B201E000F8012BF4
:10015000491EFBD270470022F6E710B513460A4647
:1001600004461946FFF7F0FF204610BDF0B480EAC0
:100170000102D40F4200B2EB410F02D20246084600
:1001800011464A0042D0C30DDDB2C1F3C752AD1AC9
:10019000202D35DAC1F3160141F4000204B15242B8
:1001A000C5F1200602FA06F12A411044B3EBD05FF4
:1001B00023D0C4B1012DA0EBC35009DCF0BC4FF03B
:1001C000004202EAC352DBB200F5000000F0B2BA0E
:1001D000400000F1807000EBC350A0F1807040EA55
:1001E000D170490009E0490841EAC071A0EBC35051
:1001F00000F50000400800EBC350F0BC00F091BADD
:100200006142012202EB4101001BF6E7F0BC70479E
:1002100081F00041AAE780F00040A7E780EA0102F0
:1002200010B502F00043400022D04A001FD0010E5A
:1002300001EB1261C0F35600C2F3560240F4000015
:1002400042F40002A0FB022000047F39140400D015
:10025000401C50EA124001D44000491EC2B20C06B4
:1002600004EBD010401C4008802A02D003E000209C
:1002700010BD20F00100002900DA0020184310BD55
:1002800030B480EA010202F0004530F0004221F073
:10029000004013D090B1C30DD40DC2F31601C0F3CA
:1002A0001600E41A41F4000140F400027D3491424A
:1002B00001D3641C00E04900002C02DA30BC0020AD
:1002C00070474FF400000023914201D3891A034381
:1002D00040084FEA4101F7D151B1914202D14FF0AC
:1002E000004105E002D24FF0010101E06FF0010191
:1002F00003EBC450284430BC00F013BA2DE9FE4F84
:10030000804681EA0300C00F0C46009021F00041B6
:1003100023F00045B8EB0200A94105D24046214632
:1003200090461C460B46024623F00040104347D03F
:10033000270DC7F30A00C3F30A510290401A019037
:1003400040286BDAC3F3130040F4801B00989246F8
:1003500020B10023D2EB030A63EB0B0B0198594643
:10036000C0F14002504600F0BBF906460D4650462B
:100370005946019A00F0C3F910EB080061410024CE
:1003800087EA115284EAE7731A4340D0009A62B3B5
:10039000019A012A4FEA075215DC001B61EB0201AA
:1003A0004FF0004202EA0752CDE90042001C41F53D
:1003B000801132462B4600F0FAF903B0BDE8F08F09
:1003C00040462146F9E7001B61EB0201001C41F5A4
:1003D000801300185B412018A2F5001747EB0301BA
:1003E00040EAD570B6196D4111E06D084FEA360646
:1003F00045EAC0754FEA0752001B61EB0201001C81
:1004000041F5801149084FEA300000195141324648
:100410002B4603B0BDE8F04F00F0BAB900980122B6
:1004200040000023D0EB020263EBE073009821460A
:100430004FEAE074B8EB000061EB0401E9E783F0F8
:1004400000435BE781F0004158E72DE9FE4F81EA68
:10045000030404F0004421F0004100944FF0000B2D
:1004600023F0004350EA01045ED052EA03045BD05B
:10047000C3F30A54C1F30A552C44A4F2F334019493
:10048000A0FB0254C1F3130141F48011C3F3130321
:1004900043F4801301FB024400FB034E840A970AD5
:1004A00044EA815447EA8357A4FB076802958D0A02
:1004B00005FB07854FEA932C04FB0C542705029D8E
:1004C0004FEA065847EA1637B5EB08056EEB070CFE
:1004D000870E920E47EA811742EA8312A7FB0201B8
:1004E000B6EB0B0164EB00042B0D43EA0C335E18F2
:1004F00044EB1C50DA465146E7FB0201C5F31304F6
:100500004FEA0B3343EA14534FEA0432019C43EAA7
:100510000603A4F10C040294009CCDE900B400F0A1
:1005200046F903B0BDE8F08F00200146F9E72DE958
:10053000F04D81EA030404F0004B21F0004514461D
:100540004FF0000A23F0004150EA050220D054EA9F
:1005500001021DD0C5F30A570246C5F31303C1F3C8
:100560001300C1F30A5640F4801543F48013A7EB3F
:100570000608101BD64608F2FD3873EB050002D3BF
:1005800008F1010801E092185B41B8F1000F03DAAD
:1005900000200146BDE8F08D00204FF48011064692
:1005A00084460EE0171B73EB050705D3121B63EBA4
:1005B000050306434CEA010C49084FEA3000921843
:1005C0005B4150EA0107EDD152EA030012D082EA02
:1005D000040083EA0501084305D0101BAB4106D295
:1005E0000122002306E000224FF0004302E06FF0FA
:1005F000010253101AEB06004CEB085110EB0A00F5
:1006000041EB0B01BDE8F04D00F0C2B8C10F80EA2C
:10061000E0700844CA079623002100F08BB89623A7
:100620000022114600F086B80EB5C10F80EAE070D6
:100630000844CA07002140F233438DE80E000A4601
:100640000B4600F0B4F803B000BD00F0004220F00B
:100650000040C10DC0F3160040F400007F2901DA0C
:1006600000207047962903DCC1F19601C84001E0E3
:1006700096398840002AF4D04042704770B5C1F3E3
:100680000A5201F000450024C1F3130140F2FF3388
:1006900041F480119A4201DA002070BD40F23343E8
:1006A0009A42A2F2334203DC5242FFF73DFD00E0E2
:1006B00090402C43F1D0404270BD00F0004230F039
:1006C00000400AD0C10D01F56071C0F3160042EA86
:1006D0000151C2084007114370470020014670478E
:1006E000202A04DB203A00FA02F1002070479140F2
:1006F000C2F1200320FA03F3194390407047202AE7
:1007000006DBCB17203A41FA02F043EAE07306E039
:1007100041FA02F3D040C2F1200291400843194649
:1007200070470029A8BF7047401C490008BF20F04F
:100730000100704710B4B0FA80FC00FA0CF050EAE7
:10074000010404BF10BC704749B1CCF1200421FA68
:1007500004F411FA0CF118BF012121430843A3EB63
:100760000C01CB1D4FEA00614FEA102042BF002070
:1007700010BC704700EBC35010440029A4BF10BC4C
:100780007047401C490008BF20F0010010BC7047B2
:1007900010B5141E73F1000408DA401C41F1000189
:1007A00092185B411A4301D120F0010010BD2DE9E0
:1007B000F04D92469B4611B1B1FA81F202E0B0FAD7
:1007C00080F220329046FFF78BFF04460F4640EA46
:1007D0000A0041EA0B0153465A46084313D011461A
:1007E00053EA010019D0C8F140025046FFF79CFCC3
:1007F00005460E46504659464246FFF771FF0843EC
:1008000005D0012004E020463946BDE8F08D0020E7
:10081000054346EAE0762C4337430A986305E40A29
:10082000A0EB08000022FD0A44EA47540A3002D532
:1008300000200146E9E7010510196941DDE9084595
:1008400000196941BDE8F04DA2E70000064C074DD4
:1008500006E0E06840F0010394E807009847103490
:10086000AC42F6D3FFF746FC1C7100083C7100084F
:10087000FEE700000D48016821F0010101600C480D
:100880000168C1F3400100290ED002210268C2F3C1
:1008900040020AB14160F9E70649012008700648A4
:1008A000016941F4005101617047000000040040FB
:1008B000000002401000002000100140014801F03B
:1008C000FBBB00003C4700202DE9F04140F66104ED
:1008D00023461422EF21002003F056FA2346282253
:1008E000EF21002003F050FA23463C22EF210020A4
:1008F00003F04AFA23465022EF21002003F044FA85
:1009000023466422EF21002003F03EFA43F28615CD
:100910002B467822EF21002003F036FA23468C2262
:10092000EF21002003F030FA2346A022EF2100201F
:1009300003F02AFA2346B422EF21002003F024FA20
:100940002346C822EF21002003F01EFA2346DC22B2
:10095000EF21002003F018FA0023DB2214211846AF
:1009600003F042FA2346DB221421282003F03CFA4C
:100970002346DB221421502003F036FA2B46DB22DB
:100980001421782003F030FA2346DB221421A02022
:1009900003F02AFA2346DB221421C82003F024FAAC
:1009A00014212346DB22084603F01EFA2346DB22ED
:1009B00014213C2003F018FA2346DB221421642082
:1009C00003F012FA2346DB2214218C2003F00CFAE8
:1009D0002346DB221421B42003F006FA2346DB224F
:1009E0001421DC2003F000FA224DB5F92C00143854
:1009F000C7280BD80024601C01B20023B5F92C20B5
:100A000020B203F0C1F9241DF02CF4DBB5F91A0073
:100A100048F2304614280FDBB5F91A00DB280BDC4E
:100A20000024B5F91A203346601C01B220B203F04D
:100A3000ABF9241DF02CF4DB688BA885287AE873C9
:100A40001424B046601C02B221B2002317460E46A1
:100A5000B5F92E0003F0C8F943463A463146E87B23
:100A600003F0C2F9241DDB2CECDBE87BE885BDE854
:100A7000F0810000100000202DE9FE4FCB4C607A81
:100A8000012817D04FF4FC602085677ADFF82493A3
:100A90004FF06635C64ED9E90501FFF7B9FBFFF700
:100AA000D4FDFFF7C1FD2A463346FFF7CEFC012FE8
:100AB00003D005E04FF61F00E6E7226C032A05DCB1
:100AC000627A022A05D1626C032A02DDBA4ABB4B64
:100AD00001E0BB4ABB4BFFF72AFDFFF7CFFDDFF874
:100AE000E8A24FF47A7B002605465845DAE9003043
:100AF000218D4FF064088DE84300B4A24FF0E60169
:100B000022DA212003F08EFC474695FBF7F200968F
:100B1000238DE6211C2003F019FC95FBF7F007FB61
:100B200010510A2091FBF0F20096238DE621272038
:100B300003F00CFC95FBF7F007FB10510A2091FB2A
:100B4000F0F200FB12121FE0282003F06BFC5F465E
:100B500095FBF7F20096238DE6211C2003F0F6FBAF
:100B600095FBF7F007FB105191FBF8F20096238DEF
:100B7000E621232003F0EAFB95FBF7F007FB105179
:100B800091FBF8F208FB12120096238DE6212E202D
:100B900003F0DCFB4F46D9F80400D946484501DD97
:100BA000C7F80490208DCDE90106DAF80400009022
:100BB000554687A2E6217F20DAF8003003F032FCA8
:100BC0007968009691FBF8F2238DC346E6217320E5
:100BD00003F0BCFB79684FF00A0A91FBF8F208FBBE
:100BE000121191FBFAF20096238DE6217A2003F090
:100BF000ADFB7968009691FBF8F208FB121191FBAE
:100C0000FAF20AFB1212238DE621842003F09EFBE8
:100C1000208DCDE90106686800906EA2E6218B2048
:100C20002B6803F0FFFBB8686B4A411E91427CD2EF
:100C30006A49002790FBF1F28046002A07DD009602
:100C4000238D0127E621C52003F080FB0AE0208DDB
:100C5000CDE901066868009061A2E621C5202B68F5
:100C600003F0E0FB5D4998FBF1F201FB128842F2D0
:100C7000107198FBF1F2002A01DD012700E037B185
:100C80000096238DE621CC2003F060FB0AE0208D46
:100C9000CDE901066868009051A2E621CC202B68BE
:100CA00003F0C0FB42F2107198FBF1F201FB1288D5
:100CB00098FBF9F2002A01DD012700E037B1009628
:100CC000238DE621D32003F041FB0AE0208DCDE9FE
:100CD00001066868009042A2E621D3202B6803F049
:100CE000A1FB98FBF9F209FB1288D94698FBF9F2AF
:100CF000002A01DD012700E037B10096238DE621AF
:100D0000DA2003F023FB0AE0208DCDE901066868B4
:100D1000009033A2E621DA202B6803F083FB98FBD6
:100D2000F9F209FB1288D14600E034E098FBF9F2B1
:100D3000002A01DD012700E037B10096238DE6216E
:100D4000E12003F003FB0AE0208DCDE9010668688D
:100D5000009023A2E621E1202B6803F063FB98FBBF
:100D6000F9F209FB1282002A00DC3FB10096238DC4
:100D7000E621E82003F0EAFABDE8FE8F208DCDE9F8
:100D800001066868009017A2E621E820D5F8003037
:100D900003F048FBF0E7208DCDE90106686800907C
:100DA000E62111A2C5202B68F2E700001000002008
:100DB00066660A40380300203417B83CD6CCF33FAF
:100DC0009A99999999792440000000202E000000FA
:100DD0002E200000250000003E420F00A0860100EA
:100DE000200000002D0000002020202020200000F6
:100DF00010B5414CA078C0073FD04FF61F00E084EB
:100E0000A0784FF0000302281A4639D97D217920B5
:100E100002F0BAFF00230A227721732002F0B4FF08
:100E2000002304227921772002F0AEFF002306225E
:100E30007B21752002F0A8FFE38C0022772173202C
:100E400002F0A2FFE38C0A220021782002F0CCFFFE
:100E5000E38C0A227D21792002F096FFE38C0622A2
:100E60007921772002F090FFE38C05227A21762009
:100E700002F08AFFE38C042238E04FF4FC60BEE706
:100E80007721732002F080FF00230A227D21792040
:100E900002F07AFF002306227921772002F074FF06
:100EA000002304227B21752002F06EFFE38C0022D8
:100EB0007D21792002F068FFE38C0A22002178204E
:100EC00002F092FFE38C0A227721732002F05CFF8C
:100ED000E38C04227921772002F056FFE38C05226F
:100EE0007A21762002F050FFE38C06227B21BDE8B8
:100EF0001040752002F048BF100000202DE9F05F7F
:100F0000FD4C268E606B864201DB606B361A00203A
:100F1000A0650546E065207CDFF8DC83371808F122
:100F2000180808F13C094FF0DC0A4FF0140B606B15
:100F3000874200DB0027606B864200DB002698F8C2
:100F4000000038B1ED4800234119405D49782A4638
:100F500004F00AFB98F8010040B1E8480023F130A2
:100F60004119405D49782A4604F0FEFAA07801282C
:100F7000E14800F132001CD0007800287ED0A06C3F
:100F80000D287CDADFF878C3A18AC8223CF8160065
:100F9000C0F30B00401A5043E28B237990FBF2F22E
:100FA000B9F9000003449A1AC83222663CF81720A7
:100FB000E8E04078F0B3A06C0D2816DADFF844C3FF
:100FC000E18AC8223CF81600C0F30B00401A5043D7
:100FD000628C237990FBF2F2B9F9020003449A1A69
:100FE000C83222663CF8172016E0DFF81CC3E18AFD
:100FF000C8223CF81500C0F30B00401A5043628C25
:10100000237990FBF2F2B9F9020003449A1AC8322C
:1010100022660CEB45025288C2F30B02511AC82219
:101020005143628C91FBF2F122791044401AC8308E
:10103000606600E02BE0206EDC2801DDC4F860A0D3
:10104000606EDC2801DDC4F864A0206E142801DA8B
:10105000C4F860B0606E142801DAC4F864B0A7491F
:10106000206EF131EF2D485505D1A44A94F8641053
:10107000F13282F8F0104FF4FC6301E0B8E06AE06E
:10108000B4F864102A4609B200B204F06DFA9A4826
:101090003230007800287CD0A06C0D2816DADFF8FA
:1010A00060C2A18AC8223CF81600C0F30B00401AA7
:1010B0005043E28B237990FBF2F2B9F9000003442C
:1010C0009A1AC83222663CF8172016E0DFF83CC2B4
:1010D000A18AC8223CF81500C0F30B00401A504307
:1010E000E28B237990FBF2F2B9F9000003449A1ADB
:1010F000C83222660CEB45025288C2F30B02511A29
:10110000C8225143E28B91FBF2F122791044401A3C
:10111000C8306066206EDC2801DDC4F860A0606E17
:10112000DC2801DDC4F864A0206E142801DAC4F8BC
:1011300060B0606E142801DAC4F864B06F49206EA4
:10114000EF2D485504D16D4A94F8641082F8F010E0
:101150004FF61F03B2E0DFF8B4C1A18AC8223CF801
:101160001500C0F30B00401A5043E28B237990FB2B
:10117000F2F2B9F9000003449A1AC83222660CEB65
:1011800045025288C2F30B02511AC8225143E28B26
:1011900000E06FE091FBF2F122791044401AC83070
:1011A0006066206EDC2801DDC4F860A0606EDC287B
:1011B00001DDC4F864A0206E142801DAC4F860B020
:1011C000606E142801DAC4F864B04C49206EEF2D2B
:1011D000485504D1494A94F8641082F8F010B4F8E4
:1011E00064104FF61F032A4609B200B204F0BCF99E
:1011F000414832304078E8B3A06C0D2816DADFF8A9
:1012000004C1E18AC8223CF81600C0F30B00401A62
:101210005043628C237990FBF2F2B9F90200034447
:101220009A1AC83222663CF8172016E0DFF8D8C0B8
:10123000E18AC8223CF81500C0F30B00401A504365
:10124000628C237990FBF2F2B9F9020003449A1AF6
:10125000C83222660CEB45025288C2F30B02511AC7
:10126000C8225143628C91FBF2F122791044401A5A
:10127000C83000E029E06066206EDC2801DDC4F89B
:1012800060A0606EDC2801DDC4F864A0206E142824
:1012900001DAC4F860B0606E142801DAC4F864B0F2
:1012A0001649206EF131EF2D485505D1134A94F8B7
:1012B0006410F13282F8F0104FF4FC63B4F864105B
:1012C0002A4609B200B204F04FF9207C0644207C83
:1012D0006D1C0744F02DFFF62AAE0749B9F800202F
:1012E00068310A80B9F802004880E08B2084608C65
:1012F000A084BDE8F09F000010000020B400002092
:1013000054030020541300204825002054230020BB
:101310002DE9F05FFE48048E416B8C4201DB416B8E
:10132000641A4FF00009FA4FC0F85890661C4D46F9
:1013300018378046C0F85C90D8F8341040468E428A
:1013400000DB0026406B844200DB0024387838B193
:10135000F04800234119405D49782A4604F004F919
:10136000787840B1EB480023F1304119405D49786D
:101370002A4604F0F9F8641C6D1C761CF02DDBDBAA
:10138000FFF7A2FAB8F83050D8F834004746854243
:1013900001DB786B2D1ADFF878B3C7F8589000247A
:1013A0000BF1320BC7F85C906E1C0BF122084FF06A
:1013B000DC094FF0140AB87801281DD09BF8000012
:1013C00000287DD0B86C0D287BDADFF84CC3B98AD1
:1013D000C8223CF81500C0F30B00401A5043FA8BAA
:1013E0003B7990FBF2F2B8F9000003449A1AC83234
:1013F0003A663CF81620E8E09BF80100F0B3B86CC0
:101400000D2816DADFF814C3F98AC8223CF8150053
:10141000C0F30B00401A50437A8C3B7990FBF2F2F8
:10142000B8F9020003449A1AC8323A663CF816200A
:1014300016E0DFF8ECC2F98AC8223CF81400C0F3C9
:101440000B00401A50437A8C3B7990FBF2F2B8F9CA
:10145000020003449A1AC8323A660CEB44025288DE
:10146000C2F30B02511AC82251437A8C91FBF2F15C
:101470003A791044401AC830786600E02BE0386EA4
:10148000DC2801DDC7F86090786EDC2801DDC7F844
:101490006490386E142801DAC7F860A0786E1428BA
:1014A00001DAC7F864A09B49386EF131EF2C08557A
:1014B00005D1984A97F86410F13282F8F01001E0F3
:1014C000B9E06BE0B7F864104FF4FC63224609B250
:1014D00000B204F049F89BF8000000287ED0B86CF8
:1014E0000D2816DADFF830C2B98AC8223CF8150098
:1014F000C0F30B00401A5043FA8B3B7990FBF2F299
:10150000B8F9000003449A1AC8323A663CF816202B
:1015100016E0DFF810C2B98AC8223CF81400C0F304
:101520000B00401A5043FA8B3B7990FBF2F2B8F96A
:10153000000003449A1AC8323A660CEB44025288FF
:10154000C2F30B02511AC8225143FA8B91FBF2F1FC
:101550003A791044401AC8307866386EDC2801DDCC
:10156000C7F86090786EDC2801DDC7F86490386EAB
:10157000142801DAC7F860A0786E142801DAC7F8D9
:1015800064A06449386EEF2C085504D1614A97F87D
:10159000641082F8F0104FF61F03B1E0DFF884C149
:1015A000B98AC8223CF81400C0F30B00401A50431B
:1015B000FA8B3B7990FBF2F2B8F9000003449A1AD7
:1015C000C8323A660CEB44025288C2F30B02511A3D
:1015D000C8225143FA8B91FBF2F100E06CE03A79BA
:1015E0001044401AC8307866386EDC2801DDC7F830
:1015F0006090786EDC2801DDC7F86490386E14289E
:1016000001DAC7F860A0786E142801DAC7F864A080
:101610004049386EEF2C085504D13E4A97F86410C3
:1016200082F8F010B7F864104FF61F03224609B293
:1016300000B203F099FF9BF80100E8B3B86C0D28E5
:1016400016DADFF8D8C0F98AC8223CF81500C0F3D2
:101650000B00401A50437A8C3B7990FBF2F2B8F9B8
:10166000020003449A1AC8323A663CF8162016E083
:10167000DFF8ACC0F98AC8223CF81400C0F30B00B4
:10168000401A50437A8C3B7990FBF2F2B8F9020091
:1016900003449A1AC8323A660CEB44025288C2F3E9
:1016A0000B02511AC82251437A8C91FBF2F13A791C
:1016B0001044401AC83000E029E07866386EDC2813
:1016C00001DDC7F86090786EDC2801DDC7F8649012
:1016D000386E142801DAC7F860A0786E142801DA91
:1016E000C7F864A00B49386EF131EF2C085505D1CD
:1016F000084A97F86410F13282F8F0104FF4FC6356
:10170000B7F86410224609B200B203F02DFF0BE0D7
:1017100010000020B40000205403002054130020C7
:101720004825002054230020641C6D1C761CF02CDE
:10173000FFF641AE0648B8F800200280B8F8021063
:101740004180F88B3884788CB884BDE8F09F000025
:10175000780000202DE9F041514DA5F118042878BA
:10176000C8B1627B0023911E1846921C02F03CFB1C
:10177000627B0023911E0120921C02F035FB627BEC
:101780000023511E0220521C02F02EFB0022617B1E
:10179000032002F059FB6878C8B1A27B0023911E98
:1017A000EF20921C02F020FBA27B0023911EEE2072
:1017B000921C02F019FBA27B0023511EED20521C4B
:1017C00002F012FB0022A17BEC2002F03DFB344F23
:1017D00060783C37A7F1220603282CD2B7F9001015
:1017E0002079C8300844A0656073317819B3811C32
:1017F0000AB2801E4FF61F0801B24346002002F0D5
:10180000F3FA34F8580F4346811C0AB2801E01B225
:10181000012002F0E9FA20884346411C0AB2401E2A
:1018200001B2022002F0E0FA34F85809424681B2CF
:10183000032002F009FB30782870607802282BD052
:10184000B7F902102079C8300844E065A0737178B8
:1018500011B3811C0AB2801E4FF4FC6701B23B46F3
:10186000EF2002F0C1FA34F85C0F3B46811C0AB24B
:10187000801E01B2EE2002F0B7FA20883B46411CE0
:101880000AB2401E01B2ED2002F0AEFA20883A46BC
:1018900081B2EC2002F0D8FA70786870BDE8F0816F
:1018A00028000020704700002DE9F05F4FF48064AD
:1018B000204601F0E7FADFF844A2914F914D01264E
:1018C0004FF00009002876D0204601F07BFACAF8D4
:1018D00000408D4C22788D488D494FF4967B012A2B
:1018E0001DD02278022A39D094F80080894B8A4A88
:1018F0004FF0070CB8F1030F5ED094F800804FF062
:10190000020EB8F1040F67D094F80080B8F1050F0B
:1019100073D094F80080B8F1060F6FD099E07F4A39
:101920001368062B46DA136890465B1C1360007838
:10193000C0073DD07648B0F900007838FEF766FE63
:101940007049D8F80020083101EB820151F8041CDD
:10195000FEF764FC6B49424608311DE0704A13688B
:10196000062B76DA13685B1C13600078C0071FD162
:101970006748B0F900007838FEF748FE684ADFF89B
:101980008481126808F1080808EB820151F8041CF0
:10199000FEF744FC624A4146126851F82210FEF7F5
:1019A0006FFC6049FEF7E2FBFEF74FFE58490880E6
:1019B00087F800904DE075E01878A8BB5A48017888
:1019C00032F9111011F1C80F5EDD007802EB400012
:1019D0000188491E018057E0197829BB5349032328
:1019E000DFF84CC10A78012A09D9521ED2B20A7016
:1019F000022A0FD0032A03D02BE018E025E00B7059
:101A000071468CF800E00278012A1CD00178032985
:101A10000BD01EE08CF800600178022910D001780C
:101A2000042916D1037014E011E004210BE01978A9
:101A300069B90178032903D00178042902D008E0AC
:101A4000067006E07146017003E01B782BB184F844
:101A500000C0207807281AD020E00078354B5FEAD4
:101A6000C07C354801D0128800E052881B781A44A7
:101A70000B88D21A02F5A0720280B0F90000142877
:101A800002DD0888401C0880A5F802B0E1E72B4879
:101A90000178082902D20178491C0170A5F804B028
:101AA00001F0A5FA4FF40068404601F0EBF9FA2482
:101AB00058B1404601F086F9CAF800803878D0B1B4
:101AC00087F80090AC8001F092FA4FF480573846C6
:101AD00001F0D8F958B1384601F074F9CAF800702D
:101AE0002E70AC804FF4FA70688001F080FA1448D0
:101AF0000670BDE8F09F3E70E4E70000140401406A
:101B00001A00002080000020160000201200002093
:101B10002C000020170000205C0000205000002056
:101B2000540000200000F0421500002011000020A9
:101B300019000020140000202A00002021000020AD
:101B40001C0000202DE9F05F402001F09BF9FD4CC6
:101B50000026FD4D41F63F7940F69F7A40F21F3B4B
:101B600040F2CF77002877D0402001F02BF9F749D9
:101B700040200860F648017801290FD00178022939
:101B80000CD00178032950D00178042950D0017875
:101B9000052955D0007806287ED0A2E0ED480168DE
:101BA000002902DD0168491E016000680F283AD251
:101BB000DFE800F0080A0E1012171C2039282C311B
:101BC00035353500632012E0632014E0E06217E051
:101BD000632013E0632016E00020A06249F63F4036
:101BE000F4E70020A06244F61F60EFE70020A06247
:101BF0004846EBE70020A0625046E7E7A062E762B4
:101C0000D54813E00020A0625846DFE70020A0621C
:101C100040F28F10DAE70020A062C720D6E700204C
:101C2000A0624F20D2E70020E8E7CC48067058E0D9
:101C3000CB480078032854D2CA480121017050E0F3
:101C4000C74800780328C848017826D2022904D062
:101C50000178042903D044E04AE0012100E0032197
:101C60000170DFF80883B8F900007838FEF7CEFC81
:101C7000BF49096855F82110FEF7D0FABD49096837
:101C800055F82110FEF7FCFABB49FEF76FFAFEF794
:101C9000DCFCA8F8000024E018E0012903D001785A
:101CA000032902D01DE0022100E004210170DFF8C9
:101CB000BC82B8F900007838FEF7A8FCAD49096885
:101CC00055F82110FEF7AAFAA949D8E7AB480178E0
:101CD00011B10178491E01709B494FF49670083983
:101CE000488099494FF496700839888001F07FF94F
:101CF000802001F0C7F8DFF88882002876D08020A5
:101D000001F060F89149802008609148017801292C
:101D10000FD0017802290CD0017803295AD001781C
:101D200004295BD00178052961D0007806287DD090
:101D3000ACE0884801680E2902DA0168491C01609C
:101D400001680C2905DD98F80010012901D10C214A
:101D5000016000680F283BD2DFE800F0080A0E108F
:101D600012171C203A292D3236363600632012E035
:101D7000632014E0E06217E0632013E0632017E0C3
:101D80000020A06249F63F40F4E70020A06244F63C
:101D90001F60EFE70020A0624846EBE70020A0624A
:101DA0005046E7E7A062E7626B4806706EE00020ED
:101DB000A0625846DEE70020A06240F28F10D9E70B
:101DC0000020A062C720D5E70020A0624F20D1E705
:101DD0000020E7E761490120087057E0604800787B
:101DE000022853D05F48022101704FE055E05C4863
:101DF000007802285C48017824D0012903D00178BA
:101E0000032902D042E0022100E004210170574C76
:101E1000B4F900007838FEF7F9FB5649096855F81F
:101E20002110FEF7FBF95249096800E022E055F85D
:101E30002110FEF725FA5049FEF798F9FEF705FC48
:101E4000208023E0022903D00178042902D01DE07C
:101E5000012100E003210170444CB4F900007838FE
:101E6000FEF7D4FB4249096855F82110FEF7D6F970
:101E70004049D9E741480178EF2902D20178491C4D
:101E8000017031494FF49670083948802E494FF45B
:101E900096700839888001F0AAF84FF40074204643
:101EA00000F0F0FF00286FD0204600F08BFF27489D
:101EB0000460274C2078012811D02078022833D0E4
:101EC000227807212F48032A5FD02278042A6CD079
:101ED0002278052A78D02278062A76D0A1E0254FEC
:101EE000386800282DDD3868401E38601E480078AC
:101EF000C00724D0DFF87480B8F900007838FEF706
:101F000085FB396805EB81014968FEF787F9396877
:101F100055F82110FEF7B4F91749FEF727F9FEF737
:101F200094FBA8F800000AE0114F3868002878DD1B
:101F30003868401E38600C480078C007DAD0064880
:101F400006706EE000040040880000201404014088
:101F500016000020580000201A0000201500002064
:101F60001100002019000020120000202C00002089
:101F700054000020500000200000F0421800002013
:101F8000170000205C0000207AE098F80020C2BB17
:101F90003E490A7830F91220002A5FDA097800EB0E
:101FA00041000188491C018058E098F8000040BBBE
:101FB00037480178032909D2491CC9B201700229A6
:101FC00006D0032910D02CE01CE026E0012116E009
:101FD00030480121017030480278022A0FD0017880
:101FE00004291ED103210AE02A48022101702A484F
:101FF0000278012A03D00178032912D1042101704B
:102000000FE00DE098F8000050B92348017801294D
:10201000E8D001780229F1D003E098F8002022B13D
:102020002170207807281ED024E01B4909781B4A1C
:10203000CB071B4901D0008800E04088127810448B
:10204000184A1288801A00F5A0700880B1F90000C3
:10205000DB2803DA13490888401E088012494FF430
:1020600096704880DDE711480178012902D901788E
:10207000491E01700C494FF49670888000F0B7FF3C
:102080000B4901200870BDE8F09F000015000020FA
:102090001100002019000020120000201400002070
:1020A0002A0000202C0000208000002021000020B9
:1020B0001C000020704700002DE9F05FC16B0C6828
:1020C00001680B68D0F840C0042202FA0CF2494DB6
:1020D000DFF824A1494E4A4FDFF828B1DFF828E1A4
:1020E00022422CD05A072AD50A68920603D40A68DD
:1020F00022F004020A600168A94201D1042219E019
:10210000514501D1402215E0B14202D14FF4806225
:1021100010E0B94202D14FF480420BE0594502D1A0
:102120004FF4802206E0714502D14FF4800201E0B5
:102130004FF080622F4908394A60C16A3BE04FF096
:10214000020808FA0CF818EA040F4FF000094FF0E3
:10215000010235D05FEA837832D50B689B0605D43F
:102160000B6823F00A030B6080F821200168A94264
:1021700001D1022219E0514501D1202215E0B142DE
:1021800002D14FF4007210E0B94202D14FF4005274
:102190000BE0594502D14FF4003206E0714502D1FF
:1021A0004FF4001201E04FF00072124908394A6002
:1021B00080F82090816A00291AD0BDE8F05F0847B6
:1021C000082505FA0CF5254212D01B0710D50B681F
:1021D00023F00E030B6090F84010C36B02FA01F17C
:1021E0005960826380F8212080F82090016BE2E73B
:1021F000BDE8F09F080002401C0002403000024091
:1022000044000240580002406C00024030B528B340
:1022100008C8134914221944B1FBF2F18900C163C3
:1022200010498163022141771A6843F6F0718A43AD
:10223000D0E900142143D0E902452C43214304692D
:1022400021434469214384692143114319600021DA
:102250004163012242770177084630BD012030BD3D
:10226000F8FFFDBF000002402DE9F84FDFF8B891FC
:10227000002409F1040A0AF1040B23460F270BF18D
:10228000040EC9E00125A5402A40AA427DD1674E2F
:10229000D1F804C0ACEB0608B44532D014DCBCF174
:1022A000030F3AD009DCBCF1000F2AD0BCF1010FBA
:1022B0001CD0BCF1020F31D11DE0BCF1110F17D0C1
:1022C000BCF1120F2AD119E0B8F5881F19D006DC2D
:1022D000B8F5803F15D0B8F5801F1FD111E0B8F5D3
:1022E000001F0ED0B8F5041F18D10AE0CB6815E026
:1022F000CB681B1D12E0CB6808330FE0CB680C33B2
:102300000CE08B682BB1012B4FF0080303D0456123
:1023100004E0042302E0056100E00023FF2A01D865
:10232000064601E000F104064FEA840501D9A5F153
:102330002005D6F8008007FA05FC28EA0C0803FA05
:1023400005F548EA0508C6F800804D68ED0062D53D
:10235000374DAE6946F00106AE61AD6924F0030663
:1023600005F001050095334D06EB050CDCF808502F
:10237000A607360F07FA06F825EA0805DFF8B88041
:10238000404503D14FF0000817E044E0DFF8AC808F
:10239000404502D14FF001080FE0DFF8A48040452E
:1023A00002D14FF0020808E0DFF89880404502D1E2
:1023B0004FF0030801E04FF0040808FA06F848EA75
:1023C0000508CCF808804D68D9F80060ED034D464B
:1023D00001D5164300E096432E604D68DAF80060A0
:1023E000AD03554601D5164300E096432E604D6877
:1023F000DBF80060ED025D4601D5164300E0964330
:102400002E604D68DEF80060AD02754601D51643BA
:1024100000E096432E60641C0D682A46E5407FF478
:1024200031AFBDE8F88F000000040140000011103A
:10243000001002400000014000080140000C014073
:1024400000100140001401400148806870470000FE
:10245000A40000200248816802781144816070471E
:10246000A4000020074810B5016841F01001016088
:10247000032000F075F8002000F006F800F024F8C2
:10248000002010BD0020024070B50D4D04464FF4F1
:102490007A712878B1FBF0F00A490968B1FBF0F0D5
:1024A00000F0CFF948B9102C07D200222146501E67
:1024B00000F036F800206C6070BD012070BD000097
:1024C000A4000020B00000200C4808B5816941F04C
:1024D00001018161816901F001010091C16941F04F
:1024E0008051C161C06900F080500090044841688B
:1024F00021F0E06141F00071416008BD0010024030
:1025000000000140002809DB00F01F02012191407A
:102510004009800000F1E020C0F800117047000081
:10252000F0B40E4B1B680C46C3F30223C3F107053E
:10253000042D00D90425191D072901D2002300E02C
:10254000DB1E012606FA05F1491E214099409E40F6
:10255000761E16403143F0BC02F04DBD0CED00E09C
:10256000064900F0070208684FF6FF03184040EAEA
:102570000220034A10430860704700000CED00E0A1
:102580000000FA0570B5040009D0606A002540B16A
:1025900025616561A56294F8510040B10CE001200D
:1025A00070BD6068B0F5827FF4D0E561F2E784F831
:1025B0005050204600F040F8022084F85100206876
:1025C000016821F040010160A088218900F4827037
:1025D00001F404410843A18901F400610843217C0E
:1025E00001F002010843217D01F001010843218B24
:1025F00001F400710843217F01F03801084394F889
:10260000201001F080010843218D01F4005108439E
:1026100021680860A069042101EA1040216848602F
:102620002068C16921F40061C1616565012084F8F9
:102630005100002070BD000070B586B00025064630
:10264000009501950295039500681E49884236D190
:102650001D49886940F480508861886900F4805081
:102660000490886940F0080088618869694600F034
:10267000080004902820009002200190032003907D
:102680001248FFF7F1FD1248416841F0E06141F066
:1026900001014160104C0F4820601020C4E9010581
:1026A0008020C4E903052020C4E905502046E561E7
:1026B000FFF7ACFD08B1FFF7FDFCB464666206B03D
:1026C00070BD00000030014000100240000C0140CD
:1026D00000000140300002403C4700202DE9F84F47
:1026E000044690F8500000271D46164689460128EA
:1026F0000DD04FF0010B84F850B0FFF7A5FE8046D7
:1027000094F85100BA46012804D0022793E0022031
:10271000BDE8F88FB9F1000F73D0002E71D00320FF
:1027200084F85100C4F854A0C4F83090A686E68618
:10273000C4F838A0A4F83CA0A4F83EA0C4F844A073
:10274000C4F840A0A068B0F5004F09D12068016826
:1027500021F0400101602068016841F4804101607E
:1027600020680168490603D4016841F04001016016
:10277000E068B0F5006F606803D030B3012E24D05C
:1027800041E008B1012E1CD1206B21680088C8608F
:1027900006E020688168890709D5216B0988C16036
:1027A000206B801C2063E08E401EE08609E0FFF76E
:1027B0004BFEA0EB0800A84202D3681C01D031E018
:1027C0007DB3E08E0028E4D120E0206B2168007802
:1027D000087306E020688168890709D5216B0978AC
:1027E0000173206B401C2063E08E401EE0860AE0EF
:1027F000FFF72AFEA0EB0800A84203D3681C02D012
:1028000010E017E06DB1E08E0028E3D14246294682
:10281000204601F04DFA08B120206065A06818B18B
:1028200006E0FFE7032706E02068C16880680090A3
:10283000606D00B1012784F851B084F850A038468B
:1028400066E710B5401EB0F1807F01D3012010BDB6
:102850004FF0E02460610F21601702F0CCFB0020F4
:10286000A06107202061002010BD000070B590F825
:102870003C20012A26D0012480F83C40022280F826
:102880003D2003685A689D6822F070060A6832434A
:102890005A600D4B02689A4208D0B2F1804F05D0C1
:1028A0000A4B9A4202D00A4B9A4204D1496825F059
:1028B00080031943916080F83D40002180F83C106E
:1028C000084670BD022070BD002C0140000400408D
:1028D0000008004010B5040003D094F83D0010B18A
:1028E00007E0012010BD002084F83C00204600F0E5
:1028F0001FF8022084F83D00211D206801F0F4FF3C
:10290000012084F8460084F83E0084F83F0084F8F3
:10291000400084F8410084F8420084F8430084F8C1
:10292000440084F8450084F83D00002010BD0000FC
:1029300008B500680649884208D10648C16941F0D7
:102940000401C161C06900F00400009008BD0000EE
:10295000000800400010024070B5044690F83C00AA
:10296000012817D0012584F83C50022084F83D004E
:102970002068826822F0770222F47F428260086831
:10298000502830D00DDC20284DD005DC98B310281D
:102990003BD148E0022070BD302844D0402834D1DB
:1029A00039E0602828D0702806D0B0F5805F2CD0A0
:1029B000B0F5005F29D10AE0CB68D1E90121206898
:1029C00001F0D5FF2068816841F0770109E0CB680C
:1029D000D1E90121206801F0CAFF2068816841F433
:1029E0008041816011E0CA684968206802F074F88B
:1029F0005021206807E016E0CA684968206802F0A4
:102A00007CF86021206801F0BCFF84F83D50002074
:102A100084F83C0070BDCA684968206802F05CF820
:102A200040212068EFE7226801461046EBE70000EE
:102A300000B585B0002100910191029103910068D9
:102A40000B49884212D10B48816941F0080181612C
:102A50008069694600F0080004904FF4007000900F
:102A60000220019003900448FFF7FEFB05B000BD73
:102A70000008004000100240000C014070B5044600
:102A800090F83C000D4601280AD0012084F83C0053
:102A900042B1042A18D0082A2AD00C2A4DD139E094
:102AA000022070BD206801F075FF2068816941F047
:102AB000080181612068816921F004018161206839
:102AC00081692A69114311E0206801F08BFF2068B9
:102AD000816941F4006181612068816921F480612C
:102AE0008161206881692A6941EA0221816124E0CB
:102AF000206801F0A3FF2068C16941F00801C161AD
:102B00002068C16921F00401C1612068C1692A6996
:102B1000114311E0206801F0BDFF2068C16941F454
:102B20000061C1612068C16921F48061C1612068D0
:102B3000C1692A6941EA0221C161002084F83C0090
:102B400070BD10B5040003D094F83D0010B107E04B
:102B5000012010BD002084F83C00204600F01EF843
:102B6000022084F83D00211D206801F0BDFE0120F7
:102B700084F8460084F83E0084F83F0084F8400062
:102B800084F8410084F8420084F8430084F844004B
:102B900084F8450084F83D00002010BD7047000017
:102BA00010B50446022249B104290ED0082913D0D9
:102BB00094F84100012816D0012010BD94F83E0081
:102BC0000128F9D184F83E200FE094F83F00012855
:102BD000F2D184F83F2008E094F840000128EBD1BE
:102BE00084F8402001E084F841200122206801F0AF
:102BF000B1FE0F492068884203D1426C42F4004282
:102C000042642068884208D0B0F1804F05D009495D
:102C1000884202D00849884204D1816801F0070146
:102C2000062903D0016841F001010160002010BDB8
:102C3000002C01400004004000080040FEE70000B6
:102C40000D4B10B59B6800220C4C03F00103A468E7
:102C500004F00104234302D00122104610BD09688C
:102C600029B1436823F470230B434360F5E74168BF
:102C700021F470214160F0E7002401400028014068
:102C800010B58368002213F0010F02D00122104614
:102C900010BD43684C6823F480732343436083680A
:102CA000096823F400630B438360F0E770B54B6859
:102CB0008468002214F0010F02D00122104670BD7A
:102CC00033B18C682343446824F46844234302E00E
:102CD000436823F468434360CC680B6885682343EA
:102CE0000C69064E35402C43234383604968C36A10
:102CF00023F470030B43C362E0E70000FDFEF1FF25
:102D000010B54FF4407494FAA4F401F44073B4FA8B
:102D100084F4E34000EB8300C36A01F01F011F2429
:102D20008C4002F01F02A3438A401343C36210BDCC
:102D300070B54FF0007494FAA4F401F00073B4FA83
:102D400084F4E34000EB8300C3684FF0F87494FA16
:102D5000A4F501F0F871B5FA85F521FA05F5072615
:102D6000AE4094FAA4F4B4FA84F4E140B3438A4048
:102D70001343C36070BD0000044908B58A6902436B
:102D80008A6189690140009108BD0000001002407D
:102D9000044A114411F8011C425842F00102425009
:102DA00070470000C8700008054B001D194411F859
:102DB000011C0B586FF30F0313430B5070470000B7
:102DC000C870000802490A6882430A607047000020
:102DD0000004014002490A6802430A60704700008B
:102DE0000004014030B5264A002405790168131F0C
:102DF00085B371B345798DB1012D17D0022D18D04F
:102E0000012483792BB31E4908310A1F012B18D0E6
:102E1000022B20D0032B22D0012428E015688D43FB
:102E2000156001681A680A431A60EAE71D688D4355
:102E300001E01D680D431D60016813680B431360BA
:102E4000DFE703680D689D430D600068116801436A
:102E500011600CE00DE0036815689D4302E0036813
:102E600015681D43156000680A6802430A60204621
:102E700030BD1D688D431D60006811688143E7E720
:102E80000404014003490968884301D000207047C9
:102E900001207047140401400A06930D064A1A44A3
:102EA000936823EA1143090C91FAA1F1B1FA81F177
:102EB000884003439360704700000140F0B50A6802
:102EC000C2F30F2595FAA5F2B2FA82F369E0012266
:102ED0009A402A4264D0082B03D240F201129A4051
:102EE00006E0A3F108024FF00114944044F0806220
:102EF0004C68082C0BD10C69C668170A97FAA7F71B
:102F0000B7FA87F726EA1226BC402643C66092FA33
:102F1000A2F700EB1264B7FA87F74FEA870C0F2786
:102F2000266807FA0CF7BE4392FAA2F7D1F804E03C
:102F3000B7FA87F7BF000EFA07FE46EA0E062660CC
:102F40004F68012F01D0092F2AD192FAA2F7B7FAC0
:102F500087F74FEA870C032707FA0CF7BE4392FA6C
:102F6000A2F7B7FA87F7D1F808E0BF000EFA07FE1C
:102F700092FAA2FC46EA0E06BCFA8CFC4FEA8C0ED2
:102F80004FF0040C26600CFA0EFC92FAA2F2B2FA90
:102F900082F2CF68920026EA0C0697403E432660F4
:102FA0005B1C35FA03F292D10020F0BD30B591FAE6
:102FB000A1F400EB1160B4FA84F4A5000F24AC4036
:102FC00091FAA1F10368B1FA81F18900A3438A4023
:102FD0001343036030BDC36823EA1123090A91FA41
:102FE000A1F1B1FA81F18A401343C36070474FF0F9
:102FF000E020016941F00201016170470149086068
:1030000070470000B0000020F0B50268154B164C68
:10301000164D4FF08046984205D0B04203D0A042F2
:1030200001D0A84203D14F6822F070023A4398427F
:1030300005D0B04203D0A04201D0A84203D1CC6851
:1030400022F44072224302608A68C2620A88826265
:10305000984201D109690163416941F0010141616F
:103060000020F0BD002C014000040040000800409A
:1030700008B54FF0E0210A690092421C00D0401CC4
:103080000A69D20300D5401E0028F9D108BD00000E
:103090002DE9FE43DFF8E883D8F84810F94C002505
:1030A0004FF6FF76D4E900300F2914D2DFE801F0A3
:1030B000080B1E2124272A2D303336393C3F42008D
:1030C000F1A2029501E0F2A20295CDE900060021ED
:1030D000084601F0A7F9D8F84400B72707287ED2A0
:1030E000DFE800F02B323D444B616800EAA2029514
:1030F000EBE7EBA20295E8E7EBA20295E5E7ECA28D
:103100000295E2E7ECA20295DFE7EDA20295DCE78B
:10311000EDA20295D9E7EEA20295D6E7EEA20295BE
:10312000D3E7EFA20295D0E7EFA20295CDE7F0A298
:103130000295CAE7F0A20295C7E7CDE9016560688C
:103140000090EFA2236805E0CDE90165606800907A
:103150002368EDA20021D32001F064F93FE0CDE91E
:10316000016560680090EAA22368F3E7CDE9016594
:1031700060680090E8A2236805E0CDE90165606819
:1031800000902368E6A20021D32001F04BF9CDE99D
:10319000016560680090E4A200213846236801F0D0
:1031A00041F9C5271BE0CDE9016560680090DFA209
:1031B0002368E8E7CDE9016560680090DDA20021A1
:1031C000D320236801F02EF9CDE9016560680090F5
:1031D000B2A200213846236801F024F9BE27D8F8AE
:1031E0004000072816D2DFE800F0040B3B424950AC
:1031F0005700CDE9016560680090D0A2236805E022
:10320000CDE90165606800902368CEA200213846B0
:1032100001F008F9CDE9016560680090CBA2E621D4
:103220000020236801F0FEF8CDE901656068009098
:10323000C8A2E6215120236801F0F4F8CDE9016528
:1032400060680090C5A2E621A320236801F0EAF897
:1032500098F8060047464FF6E076012823D043E071
:10326000CDE9016560680090BEA22368CEE7CDE994
:10327000016560680090BDA22368C7E7CDE90165DC
:1032800060680090BBA22368C0E7CDE90165606873
:103290000090BAA22368B9E7CDE9016560680090A3
:1032A000B8A22368B2E7CDE9016560680090B7A2D3
:1032B00000213C20236801F0B5F8CDE90165606884
:1032C0000090B4A200216620236801F0ABF8787862
:1032D000032809D2CDE9016560680090AFA2002102
:1032E0008C20236801F09EF8B879022816D1CDE928
:1032F000016560680090ABA200213C20236801F0CA
:1033000091F87878022809D0CDE9016560680090CD
:10331000A2A200218C20236801F084F8B879032848
:103320001FD0B87904282FD0B879052845D0B879AE
:10333000062861D0B879072824D1CDE901656068F5
:1033400000909AA200213C20236801F06BF8787C61
:10335000092817D2DFE800F01661686F767D848B4C
:103360009200CDE901656068009092A200213C20A6
:10337000236801F057F87879B0B32EE000218C2053
:1033800001F050F8BDE8FE83CDE90165606800906A
:103390008AA200213C20236801F044F878780128B3
:1033A00004D0022821D0032817D0EBE7CDE901652E
:1033B0006068009083A22368E0E7CDE9016560685A
:1033C000009082A200213C20236801F02BF8B878FD
:1033D00001280AD0B878032807D0CDE901656068D4
:1033E000009070A22368C9E7FFE7CDE90165606836
:1033F000009078A22368C1E7CDE90165606800907C
:1034000076A200213C20236801F00CF8CDE901658B
:103410006068009073A22368B0E7CDE90165606839
:10342000009072A2236803E1CDE901656068009015
:1034300070A22368FCE0CDE90165606800906FA28E
:103440002368F5E0CDE90165606800906DA223680E
:10345000EEE0CDE90165606800906CA22368E7E0CA
:10346000CDE90165606800906AA22368E0E0CDE9DB
:1034700001656068009069A22368D9E0D2E000008D
:1034800010000020000000203230306D730000007A
:103490003130306D7300000035306D732000000056
:1034A00032306D732000000031306D732000000059
:1034B000356D732020000000326D73202000000065
:1034C000316D73202000000035303075730000002E
:1034D00032303075730000003130307573000000F9
:1034E0003530757320000000323075732000000005
:1034F0003130757320000000357573202000000006
:10350000302E315600000000302E325600000000F0
:10351000302E3556000000002020315600000000FB
:1035200020203256000000002020000020203556C8
:10353000000000002031305600000000302E312FF6
:1035400000000000302E322F000000005670703A4C
:1035500000000000447574793A00000046726571FD
:103560003A000000302E352F000000002020312FBF
:10357000000000002020322F000000002020352F06
:10358000000000002031302F0000000020434831AF
:10359000202020002020202020200000202020208B
:1035A0002000000020434832200000004C656E6778
:1035B00074683A004D4F56452000000053484F575D
:1035C000200000004348312B32000000545249478C
:1035D000470000002043483120000000542D506F68
:1035E0007300000020582D5920000000203235368D
:1035F0007074000020353132707400002037363886
:103600007074000031303234707400003132383060
:103610007074000031353336707400003137393240
:1036200070740000CDE9016560680090236802A213
:1036300000217320A4E6000032303438707400009A
:1036400070B58EB000240B940C94142101A80D9435
:10365000FCF781FD142106A8FCF77DFD4FF40075F1
:103660002846FFF789FB0420FFF786FB40F2044061
:10367000CDE9060406A92D48FFF720FC2D482C4A69
:1036800001460078105844F2100398430B78D0504C
:10369000087810580B7840F44050D05008781058F3
:1036A0000B7840F02000D050087810580B7820F0AC
:1036B0004000D050087810580B7840F08000D0506F
:1036C000087810580B7820F4407040F40070D05007
:1036D00008781058097820F4406040F40060505099
:1036E000154E0B940BA930460C94FFF7C9FA4FF412
:1036F000C0200D900DA93046FFF7A2FAA802CDE92F
:103700000104C012CDE9044001A903943046FFF73B
:10371000CDFA0A4C294622463046FFF7F1FA00223C
:1037200021463046FFF704FB0EB070BD0008014093
:1037300000000240C870000800240140020060023E
:1037400030B58DB000240A94142168460B94FCF720
:1037500002FD142105A8FCF7FEFC4FF48060FFF782
:103760000BFB0420FFF708FB41F21000CDE9050434
:1037700005A91148FFF7A2FB104D0A940AA9284693
:103780000B94FFF77DFA4FF46020CDE9000402941A
:103790000394694628460494FFF788FA084C691593
:1037A00022462846FFF7ACFA002221462846FFF7BA
:1037B000BFFA0DB030BD00000008014000280140F4
:1037C0000400C0022DE9F04F87B0002400941421BA
:1037D00002A80194FCF7BFFC1020FFF7CDFA2020CF
:1037E000FFF7CAFA0420FFF7C7FA0820FFF7C4FA68
:1037F0007748764A4FF460414161764F41F20801C3
:103800007961DFF8D4B14FF40068C7F8108002ABDB
:1038100001250226059483E8640002A9FFF74EFB08
:1038200002A940F60800059481E861003846FFF7D8
:1038300045FB6A48CDE902050320CDE9040402A94D
:103840003846FFF73BFB66490020FFF725FB65493B
:103850000020FFF721FB63490120491CFFF71CFBF7
:1038600061490120FFF718FB60490020FFF714FBB6
:103870005B490020491CFFF70FFB40208DF80450E6
:1038800000908DF805408DF806606846FFF7AAFAAB
:1038900080208DF8045000908DF805408DF806606A
:1038A0006846FFF79FFA8DF804508DF80540CDF873
:1038B00000808DF806606846FFF794FA28038DF8BB
:1038C000045000908DF805408DF806606846FFF7BB
:1038D00089FA68028DF8045000908DF805408DF843
:1038E00006606846FFF77EFAA8028DF80450009043
:1038F0008DF805408DF806606846FFF773FA44F2CC
:103900004004012221463846FFF765FB650001228D
:1039100029463846FFF75FFB354E012259463046AF
:10392000FFF759FBDFF8CC80012241463046FFF714
:1039300052FBDFF8C490012249463846FFF74BFBA3
:10394000DFF8B8A0012251463846FFF744FB0822B1
:1039500021463846FFF72AFB082229463846FFF75A
:1039600025FB082259463046FFF720FB0822414636
:103970003046FFF71BFB082249463846FFF716FB87
:10398000082251463846FFF711FB1D4C20680022E3
:10399000C0F30220012100F0C9F80146172001F010
:1039A0001AFB172001F00AFB20680022C0F3022056
:1039B000012100F0BBF80146282001F00CFB282073
:1039C00001F0FCFA07B0BDE8F08F0000E000E00471
:1039D0000010014000080140080008041800180405
:1039E0000100000F010000F003000F000200F000D2
:1039F000000C014010001004020002040400040442
:103A00000CED00E00C480B49022201604FF482717A
:103A1000416000218160C0E903120122426152022B
:103A2000C0E906210162416281620A21C162FEF79A
:103A3000A9BD0000003001409802002010B586B0FA
:103A400014216846FCF787FB1548C16941F0020163
:103A5000C161C06940F28F1100F0020005900020A2
:103A6000ADF80000CDE901010E4C039069462046F7
:103A7000FFF7CAFA206820F080002060A06844F2B6
:103A800007018843A060606820F0700040F02000CB
:103A90006060A06820F08000A06006B010BD00004B
:103AA000001002400004004010B58EB000240794BE
:103AB000089409940A940B941C2168460C94FCF712
:103AC0004AFB1848164901606321C0E9011440F21D
:103AD0001F31C0E9031480218161FEF7FBFE4FF422
:103AE0008050079007A90F48FEF736FF0D48FFF7F3
:103AF00028F80B940BA90B480C94FEF7B7FE602036
:103B0000009040F28F10CDE901040C22694605486F
:103B10000494FEF7B3FF0348FEF78AFF0EB010BD12
:103B200000080040F0020020FEE7704730B500F0CA
:103B30000703C3F10704042C00D90424181D072827
:103B400001D2002300E0DB1E012505FA04F0401E2F
:103B5000084098409D406D1E1540284330BD704779
:103B600070B5504C4E48216C30F81110E183616CF7
:103B700030F811006084E079002874D1606BF2386D
:103B80006085A078C107B4F91C104FF0C80006D0BA
:103B9000E28B7839514391FBF0F0A18A05E0628C09
:103BA0007839514391FBF0F0E18A084400B2206576
:103BB000207AA2783C490A30012A02D010E0521E35
:103BC0006285628D82420BD901EB4203256D33F889
:103BD000023CAB42F3DC31F81230256DAB42EEDD36
:103BE000A278324B022A02D010E0521E6285628D0A
:103BF00082420BD903EB4205266D35F8025CB542D3
:103C0000F3DC33F81250266DB542EEDDA278032ABC
:103C100002D010E0521E6285628D82420BD901EB08
:103C20004205266D35F8025CB542F3DB31F81250DF
:103C3000266DB542EEDAA178042902D010E0491EC3
:103C40006185618D81420BD903EB4102256D32F80C
:103C5000022CAA42F3DB33F81120256DAA42EEDADA
:103C6000608D401E60850F484C30018800F10805CA
:103C7000298040886880608D217A401A208601F072
:103C8000D1F8A078C00701D0288800E068882179A1
:103C90000844A18B401A00F5A070608370BD00003D
:103CA000D07000081000002054030020541300209E
:103CB00038B50B46009204460022802100F008F837
:103CC000002804D0606D40F020006065032038BDFE
:103CD0002DE9F8431E46914688460446089DFEF7A6
:103CE000B3FB401B351AFEF7AFFB074625480068BB
:103CF000C0F3CB30684338E0701C37D0FEF7A4FB2C
:103D0000C01BA84203D215B1009860B32CE0206814
:103D1000416821F0E00141606068B0F5827F0BD11D
:103D2000A068B0F5004F02D0B0F5806F04D12068D4
:103D3000016821F040010160A06AB0F5005F09D17F
:103D40002068016821F4005101602068016841F495
:103D500000510160012084F85100002084F85000D7
:103D60000320BDE8F8830025401E0090206881688C
:103D700038EA010004D000214945BDD10020F0E718
:103D80000121F9E7B0000020F8B51C460D46CFB27E
:103D90000646D3B2D1B2C0B23A4600F0B9F9200A11
:103DA0008DF800008DF8014000220C4C0C4F0D4B9B
:103DB000AD1B10E02168684641F4006121600121DB
:103DC00010F8016BC7F80C6093F85160032EFBD01C
:103DD000491EF5D2521C9542ECDAF8BD100801409C
:103DE0000030014098020020F8B51C461546D3B2B9
:103DF0000E46C2B2C9B2C0B200F08AF9200A8DF8EC
:103E000000008DF8014000200C4C0D4F0D4BAD1BF8
:103E100011E02268694642F4006222605FF001020C
:103E200011F8016BC7F80C6093F85160032EFBD0BA
:103E3000521EF5D2401C8542EBDAF8BD1008014055
:103E4000003001409802002038B51546F02827D2EE
:103E5000F02925D2134C226842F000422260CBB2F6
:103E6000C2B2C9B2C0B200F053F9280A8DF80000FE
:103E70008DF801502168684641F4006121600A4BC9
:103E80000A4A012110F8015BC3F80C5092F8515016
:103E9000032DFBD0491EF5D2206840F4004020607D
:103EA00038BD000010080140003001409802002099
:103EB0002DE9F8430578441CDFF868804FF0FF399E
:103EC0002BE020788DF80000D8F8001041F0006158
:103ED000C8F800104B46012269461348FEF7FEFB66
:103EE0006078A41C00F0800730F080060CD0D8F871
:103EF000001041F40061C8F800104B4632462146DC
:103F00000948FEF7EBFB34443FB114F8010BFF28DE
:103F100001D14FF4FA70FFF7ABF86D1EEDB2D0D2BD
:103F2000BDE8F8831008014098020020F8B51D464E
:103F3000069F1646F0284AD2F02948D28219521E0E
:103F4000F02A02DBC0F1F00296B24A19521EF02AA2
:103F500002DBC1F1F00295B21D4C226842F0004232
:103F600022604A19521ED3B28219521ED2B2C9B26D
:103F7000C0B200F0CDF8380A8DF800008DF801705D
:103F8000206840F400602060124F134A19E0304668
:103F900013E02368694643F4006323605FF0010384
:103FA00011F801CBC7F80CC092F851C0BCF1030F57
:103FB000FAD05B1EF4D2401E80B20028E9D16D1EFB
:103FC000ADB2002DE3D1206840F400402060F8BD80
:103FD000100801400030014098020020F8B51B4C49
:103FE0000546206840F000402060EF2300211A467B
:103FF000084600F08DF8164F164B00214FEA152C9D
:1040000005F0FF0E5FF000008DF800C08DF801E0B4
:1040100025686A4645F400652560012512F8016BA4
:10402000C7F80C6093F85160032EFBD06D1EF5D2DB
:10403000401C80B2F028E7D3491C89B2F029E1D3B3
:10404000206840F400402060F8BD000010080140E6
:10405000003001409802002010B5294C206840F043
:104060000040206027490020C86027480222521ED5
:10407000D2B2FCD290F85120032AFBD00022CA60B1
:104080000122521ED2B2FCD290F85120032AFBD05A
:104090000022CA600122521ED2B2FCD290F85120F6
:1040A000032AFBD00022CA600122521ED2B2FCD2E7
:1040B00090F85120032AFBD00022CA600121491E3A
:1040C000C9B2FCD290F851100329FBD0206840F00F
:1040D000805020600A20FEF7CBFF206840F480501B
:1040E00020600A48FFF7E4FE022000F061F80A2091
:1040F000FEF7BEFF206840F40040206010BD0000C5
:10410000100801400030014098020020A47000080F
:104110003EB5002401948DF805000294224C8DF8E0
:1041200009102A208DF807208DF80B308DF800003B
:10413000206840F0006020604FF0FF352B460122E0
:1041400069461A48FEF7CAFA206840F40060206009
:104150002B46042201A91548FEF7C0FA2B208DF842
:104160000000206840F0006020602B460122694674
:104170000E48FEF7B3FA206840F4006020602B463A
:10418000042202A90948FEF7A9FA2C208DF80000A4
:10419000206840F0006020602B46012269460348F9
:1041A000FEF79CFA3EBD0000100801409802002076
:1041B00038B505462B4C36208DF80000206840F0BD
:1041C000006020604FF0FF33012269462648FEF769
:1041D00085FA264A2449A5B1012D22D0022D30D0DE
:1041E000032D0DD12368602043F400632360D06069
:1041F0000120401EC0B2FCD291F851000328FBD030
:1042000038BD2368C02043F400632360D0600120E0
:10421000401EC0B2FCD200BF91F851000328FBD071
:1042200038BD2368A02043F400632360D0600120E0
:10423000401EC0B2FCD200BF91F851000328FBD051
:1042400038BD2368002043F400632360D060012060
:10425000401EC0B2FCD200BF91F851000328FBD031
:1042600038BD0000100801409802002000300140D5
:104270000FB44A1E2DE9F84FC3F307242244D6B2E7
:10428000DDB2421EDDE90FBA2A44D2B2C9B2C0B2D1
:104290003346FFF73DFF0023DFF8A490294E2A485C
:1042A00048E00C990E9A203901FB043132F8117064
:1042B00000213CE007FA01F212041CD54FEA1B2250
:1042C0008DF800208DF801B0D9F800806A4648F4D6
:1042D0000068C9F800804FF0010C00BF12F8018B94
:1042E000C6F80C8090F85180B8F1030FFAD0BCF1F9
:1042F000010CF3D21AE04FEA1A228DF800208DF853
:1043000001A0D9F800806A4648F40068C9F8008026
:104310004FF0010C12F8018BC6F80C8090F8518018
:10432000B8F1030FFAD0BCF1010CF3D2491C8D4255
:10433000C0D85B1C9C42B4D8BDE8F80F5DF814FBF4
:10434000100801400030014098020020FEB52A4EBE
:10435000089D74683668BAB1012A1BD0022A21D0A0
:10436000032A25D0042A29D0052A2DD0062A31D0A7
:10437000072A35D0082A39D0092A12D1CDE90043BD
:10438000029533461DA20AE0CDE90043029533466B
:104390001BA204E0CDE900430295334619A200F0C8
:1043A00041F8FEBDCDE900430295334616A2F6E77B
:1043B000CDE900430295334614A2F0E7CDE900436E
:1043C0000295334612A2EAE7CDE90043029533464F
:1043D00010A2E4E7CDE90043029533460EA2DEE7E2
:1043E000CDE90043029533460CA2D8E7CDE900435E
:1043F000029533460AA2D2E70000002039000000EF
:1044000030000000310000003200000033000000E6
:1044100034000000350000003600000037000000C6
:10442000380000002DE9FE4F184D0646DDE90DBAB3
:10443000286899461446884640F000402860DFB25C
:104440001AE0B819F0280BD3C9F3072000EB0801D4
:104450001FFA81F800264044F02810D2202A0AD002
:10446000CDE901BA0C9800904B4641463046FFF723
:10447000FFFEB81986B2641C2278002AE1D12868B0
:1044800040F400402860BDE8FE8F000010080140A5
:1044900070B533490878012860D1086C314C032885
:1044A000206902DD40F4804001E040F0804020615E
:1044B000486C0328206902DD40F4004001E040F030
:1044C00000402061CB794FF480604FF4A0624BB183
:1044D0004B7C092B20D2DFE803F01F0D10131E0BBD
:1044E00016191C008B6C072B15DC8B6C042B12DD52
:1044F0008A6311E04FF480700DE04FF400700AE021
:104500004FF4407007E04FF4C06004E04FF4E06007
:1045100001E04FF400608863887A00281ED108709B
:10452000114D08206860114A501C1278AA5810F8E2
:10453000010C22F001022A508A6B01212846FEF765
:1045400033FC01212846FEF723FC0948016841F0AD
:1045500001010160206940F00050206170BD000041
:10456000100000200010014000000240C870000848
:1045700000040040704700002DE9F05F8E4DB5F952
:1045800004809148DFF834B2022302788C4FDFF8C0
:1045900034C28E488E49DFF83CA2012400264FF039
:1045A000030EB8F1000F2DDDB5F80480A946A8F17F
:1045B0000108A5F8048031E00578062D36D205788B
:1045C0006D1C05700578012D04D1032A02D30370F8
:1045D0008CF800300378022B2AD00378032B0AD101
:1045E0009AF800305BB30721017004E00E7002E01E
:1045F000032A00D10C7089F800603C701E21A9F8D4
:104600000210D5E0B5F80280B8F1000F1AD0B5F865
:104610000280A946A8F10108A5F802802D78012D95
:1046200003D1DBF80050ED04C6D4C1E00470C9E743
:10463000022AD2D180F800E08CF80040CDE7022AAF
:10464000D6D1D3E7644B1A685FEA426C634A08D458
:104650000078062813D11078002810D01078401E5A
:104660000CE0D3F800C05FEA0C6C09D4007806288F
:104670007AD11078EF2877D21078401C107073E050
:104680001A689E465FEA8258DFF85491554A564BA5
:10469000DFF858C128D40678032E03D00078062806
:1046A0000BD061E0087832F9100000285CDA087855
:1046B00002EB40000188491C2DE04D480078C007FE
:1046C00001D0118800E0518899F800000844198849
:1046D000401A00F5A070ACF80000BCF90000DB281F
:1046E00042DA1888401E2EE0DEF800805FEA485863
:1046F0002BD40678032E03D0007806280DD033E0A3
:10470000087832F9100010F1C80F2DDD087802EB9F
:1047100040000188491E018026E035480078C00726
:1047200001D0118800E0518899F8000008441988E8
:10473000401A00F5A070ACF80000BCF90000142885
:1047400012DD1888401C18800EE0DBF80000C00461
:104750000ED42878012807D19AF80010504629B1C4
:1047600006702E70234806703C701FE00470F8E756
:104770004020FEF72FFB8020FEF72CFB4FF400704B
:10478000FEF728FB4FF48060FEF724FB4FF4006037
:10479000FEF720FB4FF48050FEF71CFB4FF0E020AB
:1047A000016921F002010161134804701E20688034
:1047B000BDE8F05FFDF74EBE80000020080C014010
:1047C0001C0000201900002011000020160000200D
:1047D00015000020170000200808014018000020E4
:1047E000140000205C0000202C0000202A00002083
:1047F000120000201A0000207C000020254810B57F
:10480000016821F0070141F002010160016801F037
:1048100007010229FAD1204C206840F48030206042
:104820002068C0F340400028FAD0606820F47C1073
:1048300040F404106060206840F0807020602068C0
:10484000C0F340600028FAD0606820F0F00060609B
:10485000606820F4E06040F480606060606820F48C
:1048600060506060606820F0030040F0020060600B
:10487000606800F00C000828FAD10848FEF7BEFB7B
:104880000020FDF701FE606820F4404040F48040C5
:10489000606010BD002002400010024000B4C4045B
:1048A0000D48016841F00101016041680B4A114067
:1048B000416001680A4A11400160016821F48021C9
:1048C0000160416821F4FE0141604FF41F018160E5
:1048D0000449C00308607047001002400000FFF860
:1048E000FFFFF6FE08ED00E0F0B50268164B174C2E
:1048F000174D4FF08047984205D0B84203D0A042F0
:1049000001D0A84203D122F070064A68324398428F
:1049100005D0B84203D0A04201D0A84203D122F46E
:104920004074CA6822434C6922F08002224302602C
:104930008A68C2620A688262984201D10969016389
:1049400001214161F0BD0000002C01400004004045
:104950000008004010B501F01F030121046A9940CE
:104960008C430462016A9A401143016210BD10B584
:10497000846842EA032224F47F440A43224382608B
:1049800010BD826822F070020A4342F00701816084
:104990007047000030B5026A22F001020262026A2A
:1049A0004368846924F073050C682C4322F00205E7
:1049B0008A682A430A4DA8420BD122F00805CA682A
:1049C00023F440732A434D6922F004021D438B698E
:1049D0002B434360846149684163026230BD00003B
:1049E000002C014030B5026A22F010020262026A15
:1049F000436884690D6824F4E64444EA05248D681C
:104A000022F0200242EA05120B4DA8420ED1CD68D9
:104A100022F0800242EA05124D6923F4406343EA22
:104A200085038D6922F0400243EA85034360846177
:104A300049688163026230BD002C014030B5026AD2
:104A400022F480720262036A4268C46923F400732C
:104A500024F073050C682C438D6843EA05230C4D44
:104A6000A8420ED1CD6823F4006343EA05234D69C3
:104A700022F4405242EA05128D6923F4806342EA2F
:104A800005124260C4614968C163036230BD000021
:104A9000002C014030B5026A22F480520262046A9E
:104AA0004268C3690D6823F4E64343EA05238D6831
:104AB00024F4005444EA0534064DA84204D14D695B
:104AC00022F4804242EA85124260C361496801646F
:104AD000046230BD002C014010B5036A046A24F062
:104AE00001040462846924F0F00444EA021423F00F
:104AF0000A020A438461026210BD10B5036A23F002
:104B0000100303628369046A23F4704343EA0232A8
:104B100024F0A00343EA01118261016210BDFEE7A7
:104B20002DE9FF5F7E4E4FF480550024707A2146B8
:104B3000012801D07B4A18E07B4A08E032F81100D6
:104B4000A84200DA0546A04200DD0446491C706B0D
:104B50008142F3DB0CE000BF32F81100A84200DA1A
:104B60000546A04200DD0446491C706B8142F3DB20
:104B700000200290019083468246814600900127E2
:104B80002046FBF74CFDDFF8A081A8F11C08C8F80F
:104B900014002846FBF743FDC8F81800281900EB5D
:104BA00040004408012576E02846B7B300F006FD32
:104BB000A0426FDC681C00F001FDA0426ADD2846BF
:104BC00000F0FCFC271A681C00F0F8FC001B3844BD
:104BD000FBF71CFD0746284600F0F0FC201AFBF707
:104BE00015FD3946FBF74CFB0746B9F1000F15D010
:104BF0002846FBF70BFD3946FBF7B8FA0299FBF79D
:104C000007FB0BF1010B01902846FBF7FFFC39462F
:104C1000FBF7ACFA002703903CE009E04FF00109F4
:104C20002846FBF7F3FC3946FBF7A0FA0290EBE7C6
:104C300000F0C4FCA0422DDB681C00F0BFFCA042C9
:104C400028DA284600F0BAFC071B681C00F0B6FC06
:104C5000201A3844FBF7DAFC0746284600F0AEFC81
:104C6000001BFBF7D3FC3946FBF70AFB0746B9F1FB
:104C7000010F0ED12846FBF7C9FC3946FBF776FA3F
:104C80000399FBF7C5FA0099FBF770FA0AF1010ADC
:104C9000009001276D1C706B801E854284DB584696
:104CA000FBF7B4FC01460198FBF7EAFA04465046CC
:104CB000FBF7ACFC01460098FBF7E2FA05461B48FF
:104CC000B16C50F821002146FBF7A8FAFBF7F5FC80
:104CD0000022174BFBF72BFC02460B460020154920
:104CE000FBF725FC0022144BFBF708FBFBF7C6FC87
:104CF000C8F8080046462046FBF7DFFC07460C468E
:104D00002846FBF7DAFC00220C4BFBF79EFB3A46E9
:104D10002346FBF70CFCFBF7B1FC7060BDE8FF9F7E
:104D2000100000205413002054030020E0700008FD
:104D3000000034400000F03F0000E03F00408F40A2
:104D40002DE9F041344CE06B616B344E8842A6F59E
:104D500080570EDD656B6D1E08E000BF36F815103C
:104D600037F815000022FFF76FF86D1CE06B8542E5
:104D7000F4DBDFF8A480002508F1540838E000BF18
:104D800036F8151037F815000022FFF75DF8A06C13
:104D90000D282CDA224850F8251088B20B0CC4E9F3
:104DA0001603A18A401AC8214843E18B227990FB5F
:104DB000F1F0B8F900101144081AC8302066E18AF1
:104DC000C822591A5143628C237991FBF2F1B8F948
:104DD0000220C8311A441144616680B227F81500D8
:104DE00089B226F815104FF4FC62FFF72DF86D1C00
:104DF000606B8542C4DB606BE0630749B8F8002054
:104E000068310A80B8F802004880E08B2084608C0A
:104E1000A084BDE8F08100001000002054130020A1
:104E20003C2700202DE9F043624AFAB0906C11460D
:104E3000614D4F8D05F5005105F5805601F5FA7964
:104E40000D2840D0906C0E2873D1107A4FEA900C48
:104E5000107A800701D00CF1010C00206B461FACCA
:104E6000A7EB0C0707EB000C35F81C8023F810802B
:104E700036F81CC024F810C0401C3E28F2DB107A23
:104E8000800700D0107A107A00204E4633F81020A8
:104E900003EB400521F830206D8857194FEA570C75
:104EA00001EBC007AA42A7F804C045D2A5EB020C4B
:104EB0004FEAEC780CEB987C4FEAAC0C62447A80B9
:104EC000A5EB0C0245E0107A6B464FEA500C00202F
:104ED0003DACA7EB0C0700BF07EB000C35F81C80BE
:104EE00023F8108036F81CC024F810C0401C7A2823
:104EF000F2DB107A107A00204FEA090203EB400639
:104F000033F81050768821F820502E44750801EBB4
:104F10008006758004EB400534F810606D8822F837
:104F20002060354402EB80066D08401C75807928AE
:104F3000E4DB7AB0BDE8F083A2EB050C4FEAEC7835
:104F40000CEB987C4FEAAC0CA2EB0C027A8005EBE0
:104F50000C02FA8034F8102004EB400526F83020CB
:104F60006D8857194FEA570C06EBC007AA42A7F8FD
:104F700004C00CD2A5EB020C4FEAEC780CEB987C49
:104F80004FEAAC0C62447A80A5EB0C020CE0A2EB79
:104F9000050C4FEAEC780CEB987C4FEAAC0CA2EBDA
:104FA0000C027A8005EB0C02401CFA803D28FFF6CB
:104FB0006DAFBEE71000002054030020002809DB7D
:104FC00000F01F02012191404009800000F1E02023
:104FD000C0F8001170470907090E002804DB00F132
:104FE000E02080F80014704700F00F0000F1E0208E
:104FF00080F8141D70470907090E002804DB00F132
:10500000E02080F80014704700F00F0000F1E0206D
:1050100080F8141D704702E008C8121F08C1002A5A
:10502000FAD170477047002001E001C1121F002A29
:10503000FBD170470EB5FDF715FAFFF7DFFBFEF762
:10504000C1FBFD48416941F001014161406900F047
:1050500001000090F94800680022C0F302201146C8
:10506000FEF764FD01460B20FFF7B5FF0B20FFF7AD
:10507000A5FF002211460D20FDF752FA0D20FDF785
:1050800041FAFEF7DDFAFEF75BFBFEF7BBFCFEF72D
:105090000BFDFEF7D3FCEA4CA06840F00100A060D5
:1050A000A06840F00400A060A068C0F38000002861
:1050B000FAD10A20FDF7DCFFE24DA86840F00100BC
:1050C000A860A86840F00400A860A868C0F3800049
:1050D0000028FAD10A20FDF7CBFFFEF7BDFF002024
:1050E000FEF77CFFDFF860934FF0010889F800803D
:1050F000D749D348A9F830800F46D44A4C300978B4
:105100000832D24E8850D1493A780C31D1485050AB
:10511000CA1401213046FDF747FE387830583978F7
:1051200040F00200705001213046FDF731FEA068CA
:1051300040F48010A060A86840F48010A860C648C1
:10514000016841F00101016000264FF6FF75C34878
:10515000CDE90156416800910368C1A2662118207B
:10516000FFF760F9C24CCDE9015660680090C1A21A
:10517000822132202368FFF755F94FF4FA67384649
:10518000FDF776FFCDE9015660680090BFA282214D
:105190002E202368FFF746F93846FDF769FFCDE971
:1051A000015660680090BFA2822132202368FFF779
:1051B00039F940F2DC50FDF75BFF0020FEF70EFFEF
:1051C000C820FDF755FF0C21BC48FDF7E9FCBC48A1
:1051D000016941F40051016109F1320A4D4600278D
:1051E000287B012801D12E730127E879012803D0FB
:1051F000A87907287DD099E0A87C002870D1A86CF8
:105200000C2801DD0C20A864A879022801D9072008
:10521000A871DFF8B092002409F1F10B09EB040149
:1052200019F8040049780023224600F09DF90BEBA1
:1052300004011BF8040049780023224600F094F989
:10524000641CF02CEADB00231322EF211846FEF742
:105250009BFD0023DD22EF211846FEF795FD12236A
:10526000462200216E200096FEF760FE6A7B002336
:10527000911E1846921CFEF7B7FD6A7B0023911E13
:105280000120921CFEF7B0FD6A7B0023511E022014
:10529000521CFEF7A9FD0022697B0320FEF7D4FD16
:1052A000AA7B0023911EEF20921CFEF79DFDAA7B96
:1052B0000023911EEE20921CFEF796FDAA7B002390
:1052C000511EED20521CFEF78FFD0022A97BEC2021
:1052D000FEF7BAFDFDF7DCFEFBF7F6FA85F8128063
:1052E0002878012801D1A87A78B1E7B3FEF738FC15
:1052F00000E019E0FFF714FCFDF7CAFEFBF7E4FA43
:10530000FFF71EFDFBF7B8FB33E0FFF709FCFDF7E5
:10531000BFFEFBF7D9FAFFF713FDFBF7ADFBFFF775
:10532000B7F8A86B686324E085F80680A87C01289C
:105330001FD1DFF894910024A9F5805B08E000BF3D
:1053400039F814103BF814000022FEF77DFD641CB0
:10535000E86B8442F4DB12234622002150200096A1
:10536000FEF7E4FD00E004E0FDF792FEFBF7ACFA87
:10537000AE746878012809D0022850460BD0067018
:105380008AF80180A87A01280AD00BE08AF8008008
:105390008AF80180F6E780F800808AF80160F1E77A
:1053A000E87918B1E87A01281FD020E085F80B8051
:1053B000002F3FF414AFFEF7D3FBFDF769FEFBF7B8
:1053C00017FD4FF6E07423461322EF210020FEF76D
:1053D000DBFC2346DD22EF210020FEF7D5FC8AE02E
:1053E000FCF7B8F9FBF748FBF9E6E87918B128783B
:1053F000012873D074E0FFF74BF800231322EF214C
:105400001846FEF7C1FC0023DD22EF211846FEF707
:10541000BBFC87B1FEF7A4FBFDF73AFEFBF7E8FC07
:10542000A879042857D0FBF74FFAFBF767FD00BFB8
:10543000FCF790F94BE04CE0001002400CED00E06E
:10544000002401400028014010000020000002401C
:10545000C87000083C27002000040040080000201D
:105460004F5343494C4C4F53434F504500000000AD
:105470000000002053616D706C696E67205261748A
:105480006520314D53612F73000000002020202043
:1054900020202056616E616E39322020202020208D
:1054A00020000000202020202020202056312E32F5
:1054B000202020202020202000000000F0020020DA
:1054C00000100140B40000205413002006E0FBF758
:1054D000D3FAEE7283E6FBF71BFFA9E7E87990B1F8
:1054E000002FF7D0E8790028F4D1FEF739FBFDF75B
:1054F000CFFDFBF77DFCA87904282DD0FBF7E4F95C
:10550000FBF7FCFC6CE7174B6E85154AA3F580543E
:1055100009E000BF52F8201024F81010090C23F8FD
:105520001010401C6885688D696B8842F2DBFEF7BD
:1055300017FBFFF7F5FAFDF7ABFDFBF759FCFBF79F
:10554000C3F9FBF7DBFCFCF705F9FBF795FAFEF76F
:105550009FFFA86B686342E6FBF7DAFE40E70000B6
:105560003C2700205413002030B41446124A157909
:10557000C635A84201DD1079C73015796D1CA842E7
:1055800001DA1079401C1579C635A94201DD11797F
:10559000C73115796D1CA94201DA1179491CD278FD
:1055A0008842224414B202DA0A46014600E002466A
:1055B000204630BCFEF718BC100000200849497A8C
:1055C00001290BD0074900BF01EB400231F8100060
:1055D00032F8023C51881844084470470249F3E706
:1055E000100000205413002054030020000000008D
:1055F00000000000000000000000000000000000AB
:10560000001000100010001000100010000000102A
:105610000000000000280028002800000000000012
:10562000000000000000000000240024007C002492
:105630000048007C0048004800000000003800548A
:1056400000500038001400540054003800100000CE
:1056500000200054005800300028005400140008B6
:10566000000000000010002800280010003400484E
:10567000004800340000000000100010001000007E
:105680000000000000000000000000000008001002
:105690000020002000200020002000200010000832
:1056A000002000100008000800080008000800089A
:1056B000001000200010003800100028000000003A
:1056C00000000000000000000000000000100010BA
:1056D000007C00100010000000000000000000002E
:1056E000000000000000000000000010001000108A
:1056F0000000000000000000000000380000000072
:105700000000000000000000000000000000000099
:105710000000001000000000000800080010001049
:10572000001000100020002000000000003800449D
:1057300000440054004400440044003800000000CD
:105740000010003000500010001000100010001079
:10575000000000000038004400440004000800106D
:105760000020007C00000000003800440004001805
:105770000004000400440038000000000008001885
:10578000002800280048007C0008000800000000F5
:10579000007C004000400078000400040044003811
:1057A000000000000038004400400078004400443D
:1057B0000044003800000000007C000400080010D5
:1057C00000100020002000200000000000380044ED
:1057D0000044003800440044004400380000000049
:1057E0000038004400440044003C000400440038F9
:1057F0000000000000000000001000000000000099
:105800000000001000000000000000000000001078
:105810000000000000000010001000100000000058
:10582000000C003000400030000C000000000000C0
:10583000000000000000007C0000007C0000000070
:1058400000000000000000000060001800040018C4
:105850000060000000000000003800440004000860
:10586000001000100000001000000000003800448C
:10587000004C0054005C0040004000380000000074
:1058800000100028002800280028007C0044004464
:105890000000000000780044004400780044004408
:1058A0000044007800000000003800440040004040
:1058B0000040004000440038000000000070004834
:1058C0000044004400440044004800700000000010
:1058D000007C00400040007C004000400040007C14
:1058E00000000000007C00400040007800400040C4
:1058F000004000400000000000380044004000402C
:10590000005C0044004400380000000000440044F3
:105910000044007C004400440044004400000000B7
:1059200000380010001000100010001000100038A7
:10593000000000000004000400040004000400044F
:10594000004400380000000000440048005000609F
:1059500000500048004800440000000000400040A3
:1059600000400040004000400040007C000000007B
:105970000044006C006C00540044004400440044A7
:105980000000000000440064006400540054004C17
:10599000004C004400000000003800440044004473
:1059A0000044004400440038000000000078004437
:1059B0000044004400780040004000400000000027
:1059C00000380044004400440044004400540038BF
:1059D00000040000007800440044004400780048BF
:1059E000004800440000000000380044004000303F
:1059F000000800040044003800000000007C001093
:105A00000010001000100010001000100000000036
:105A10000044004400440044004400440044003872
:105A20000000000000440044004400280028002832
:105A30000010001000000000004400440054005416
:105A40000054006C002800280000000000440028DA
:105A5000002800100010002800280044000000006A
:105A6000004400440028002800100010001000101E
:105A700000000000007C000400080010001000205E
:105A80000040007C00000000001800100010001012
:105A9000001000100010001000100018002000205E
:105AA00000100010001000100008000800000000A6
:105AB0000030001000100010001000100010001046
:105AC00000100030001000280028004400000000F2
:105AD00000000000000000000000000000000000C6
