:020000040800F2
:10000000504D002005010008473C0008552D000810
:10001000453C0008B1080008934C000800000000AF
:10002000000000000000000000000000E946000899
:10003000A9190008000000007B3C0008ED460008FC
:100040001F0100081F0100081F0100081F01000810
:100050001F0100081F0100081F0100081F01000800
:100060001F0100081F0100081F010008B508000853
:100070001F010008FD0800081F0100081F010008FB
:100080001F0100081F0100081F0100081F010008D0
:100090001F0100081F0100081F010008491C00087B
:1000A0001F0100081F0100081F0100081F010008B0
:1000B0001F0100081F0100081F0100081F010008A0
:1000C0001F0100081F0100081F0100081F01000890
:1000D0001F0100081F0100081F0100081F01000880
:1000E000AD1900081F0100081F010008DFF810D03B
:1000F00000F0CCFB00480047BD510008AFF3008082
:10010000504D00200648804706480047FEE7FEE7BE
:10011000FEE7FEE7FEE7FEE7FEE7FEE7FEE7FEE7B7
:10012000154A0008ED000008202A04DB203A21FAD5
:1001300002F00021704721FA02F3D040C2F1200200
:100140009140084319467047D2B201E000F8012BF4
:10015000491EFBD270470022F6E710B513460A4647
:1001600004461946FFF7F0FF204610BDF0B480EAC0
:100170000102D40F4200B2EB410F02D20246084600
:1001800011464A0042D0C30DDDB2C1F3C752AD1AC9
:10019000202D35DAC1F3160141F4000204B15242B8
:1001A000C5F1200602FA06F12A411044B3EBD05FF4
:1001B00023D0C4B1012DA0EBC35009DCF0BC4FF03B
:1001C000004202EAC352DBB200F5000000F0D2BAEE
:1001D000400000F1807000EBC350A0F1807040EA55
:1001E000D170490009E0490841EAC071A0EBC35051
:1001F00000F50000400800EBC350F0BC00F0B1BABD
:100200006142012202EB4101001BF6E7F0BC70479E
:1002100081F00041AAE780F00040A7E780EA0102F0
:1002200010B502F00043400022D04A001FD0010E5A
:1002300001EB1261C0F35600C2F3560240F4000015
:1002400042F40002A0FB022000047F39140400D015
:10025000401C50EA124001D44000491EC2B20C06B4
:1002600004EBD010401C4008802A02D003E000209C
:1002700010BD20F00100002900DA0020184310BD55
:1002800030B480EA010202F0004530F0004221F073
:10029000004013D090B1C30DD40DC2F31601C0F3CA
:1002A0001600E41A41F4000140F400027D3491424A
:1002B00001D3641C00E04900002C02DA30BC0020AD
:1002C00070474FF400000023914201D3891A034381
:1002D00040084FEA4101F7D151B1914202D14FF0AC
:1002E000004105E002D24FF0010101E06FF0010191
:1002F00003EBC450284430BC00F033BA420005D0B0
:10030000C0F3C7525242914201DC0020704700EB1B
:10031000C15070472DE9FE4F804681EA0300C00FAF
:100320000C46009021F0004123F00045B8EB02009C
:10033000A94105D24046214690461C460B4602463E
:1003400023F00040104347D0270DC7F30A00C3F342
:100350000A510290401A019040286BDAC3F313004F
:1003600040F4801B0098924620B10023D2EB030A90
:1003700063EB0B0B01985946C0F14002504600F068
:10038000CFF906460D4650465946019A00F0D7F976
:1003900010EB08006141002487EA115284EAE773F8
:1003A0001A4340D0009A62B3019A012A4FEA0752D9
:1003B00015DC001B61EB02014FF0004202EA07521C
:1003C000CDE90042001C41F5801132462B4600F079
:1003D0000EFA03B0BDE8F08F40462146F9E7001B56
:1003E00061EB0201001C41F5801300185B412018ED
:1003F000A2F5001747EB030140EAD570B6196D412D
:1004000011E06D084FEA360645EAC0754FEA07521B
:10041000001B61EB0201001C41F5801149084FEA05
:1004200030000019514132462B4603B0BDE8F04F71
:1004300000F0CEB90098012240000023D0EB020268
:1004400063EBE073009821464FEAE074B8EB0000DC
:1004500061EB0401E9E783F000435BE781F00041D1
:1004600058E72DE9FE4F81EA030404F0004421F02F
:10047000004100944FF0000B23F0004350EA0104C8
:100480005ED052EA03045BD0C3F30A54C1F30A55A9
:100490002C44A4F2F3340194A0FB0254C1F31301E1
:1004A00041F48011C3F3130343F4801301FB0244AE
:1004B00000FB034E840A970A44EA815447EA8357B3
:1004C000A4FB076802958D0A05FB07854FEA932C6C
:1004D00004FB0C542705029D4FEA065847EA1637DD
:1004E000B5EB08056EEB070C870E920E47EA8117F5
:1004F00042EA8312A7FB0201B6EB0B0164EB000496
:100500002B0D43EA0C335E1844EB1C50DA4651467F
:10051000E7FB0201C5F313044FEA0B3343EA14531C
:100520004FEA0432019C43EA0603A4F10C0402944E
:10053000009CCDE900B400F05AF903B0BDE8F08F9B
:1005400000200146F9E72DE9F04D81EA030404F0AB
:10055000004B21F0004514464FF0000A23F0004103
:1005600050EA050220D054EA01021DD0C5F30A5713
:100570000246C5F31303C1F31300C1F30A5640F456
:10058000801543F48013A7EB0608101BD64608F22B
:10059000FD3873EB050002D308F1010801E0921861
:1005A0005B41B8F1000F03DA00200146BDE8F08D91
:1005B00000204FF48011064684460EE0171B73EBB3
:1005C000050705D3121B63EB050306434CEA010C38
:1005D00049084FEA300092185B4150EA0107EDD11B
:1005E00052EA030012D082EA040083EA05010843BC
:1005F00005D0101BAB4106D20122002306E00022E9
:100600004FF0004302E06FF0010253101AEB0600B6
:100610004CEB085110EB0A0041EB0B01BDE8F04D2B
:1006200000F0D6B8C10F80EAE0700844CA079623EC
:10063000002100F09FB896230022114600F09AB8DE
:100640000EB5C10F80EAE0700844CA07002140F2ED
:1006500033438DE80E000A460B4600F0C8F803B09D
:1006600000BD00F0004220F00040C10DC0F31600B4
:1006700040F400007F2901DA00207047962903DC4E
:10068000C1F19601C84001E096398840002AF4D0B3
:100690004042704720F00040C10DC0F3160040F406
:1006A00000007F2901DA00207047962903DCC1F1A0
:1006B0009601C840704796398840704770B5C1F3BD
:1006C0000A5201F000450024C1F3130140F2FF3348
:1006D00041F480119A4201DA002070BD40F23343A8
:1006E0009A42A2F2334203DC5242FFF71DFD00E0C2
:1006F00090402C43F1D0404270BD00F0004230F0F9
:1007000000400AD0C10D01F56071C0F3160042EA45
:100710000151C2084007114370470020014670474D
:10072000202A04DB203A00FA02F1002070479140B1
:10073000C2F1200320FA03F3194390407047202AA6
:1007400006DBCB17203A41FA02F043EAE07306E0F9
:1007500041FA02F3D040C2F1200291400843194609
:1007600070470029A8BF7047401C490008BF20F00F
:100770000100704710B4B0FA80FC00FA0CF050EAA7
:10078000010404BF10BC704749B1CCF1200421FA28
:1007900004F411FA0CF118BF012121430843A3EB23
:1007A0000C01CB1D4FEA00614FEA102042BF002030
:1007B00010BC704700EBC35010440029A4BF10BC0C
:1007C0007047401C490008BF20F0010010BC704772
:1007D00010B5141E73F1000408DA401C41F1000149
:1007E00092185B411A4301D120F0010010BD2DE9A0
:1007F000F04D92469B4611B1B1FA81F202E0B0FA97
:1008000080F220329046FFF78BFF04460F4640EA05
:100810000A0041EA0B0153465A46084313D01146D9
:1008200053EA010019D0C8F140025046FFF77CFCA2
:1008300005460E46504659464246FFF771FF0843AB
:1008400005D0012004E020463946BDE8F08D0020A7
:10085000054346EAE0762C4337430A986305E40AE9
:10086000A0EB08000022FD0A44EA47540A3002D5F2
:1008700000200146E9E7010510196941DDE9084555
:1008800000196941BDE8F04DA2E70000064C074D94
:1008900006E0E06840F0010394E807009847103450
:1008A000AC42F6D3FFF726FC90750008B07500083F
:1008B000FEE700000D48016821F0010101600C48CD
:1008C0000168C1F3400100290ED002210268C2F381
:1008D00040020AB14160F9E7064901200870064864
:1008E000016941F4005101617047000000040040BB
:1008F000000002401E00002000100140014801F0ED
:1009000067BC00000C4900202DE9F04140F661046D
:1009100023461422EF21002003F0F0FA2346282278
:10092000EF21002003F0EAFA23463C22EF210020C9
:1009300003F0E4FA23465022EF21002003F0DEFA10
:1009400023466422EF21002003F0D8FA43F28615F3
:100950002B467822EF21002003F0D0FA23468C2288
:10096000EF21002003F0CAFA2346A022EF21002045
:1009700003F0C4FA2346B422EF21002003F0BEFAAC
:100980002346C822EF21002003F0B8FA2346DC22D8
:10099000EF21002003F0B2FA2346DB2214212820A5
:1009A00003F0DCFA2346DB221421502003F0D6FAB0
:1009B0002B46DB221421782003F0D0FA2346DB22D9
:1009C0001421A02003F0CAFA2346DB221421C820F8
:1009D00003F0C4FA14212346DB22084603F0BEFAD2
:1009E0002346DB2214213C2003F0B8FA2346DB2205
:1009F0001421642003F0B2FA2346DB2214218C2058
:100A000003F0ACFA2346DB221421B42003F0A6FA4B
:100A10002346DB221421DC2003F0A0FA224DB5F995
:100A200026001438C7280BD80024601C01B200230C
:100A3000B5F9262020B203F061FA241DF02CF4DB76
:100A4000B5F92A0048F2304614280FDBB5F92A0020
:100A5000DB280BDC0024B5F92A203346601C01B2E8
:100A600020B203F04BFA241DF02CF4DB688DE884EF
:100A7000A879A8701424B046601C02B221B20023E9
:100A800017460E46B5F9280003F068FA43463A4681
:100A90003146A87803F062FA241DDB2CECDBA87841
:100AA0002885BDE8F0810000100000202DE9FE4FF0
:100AB000CB4CE079012817D04FF4FC602084E77913
:100AC000DFF824934FF06635C64ED9E90301FFF7EE
:100AD0009FFBFFF7C6FDFFF7B3FD2A463346FFF73E
:100AE000C0FC012F03D005E04FF61F00E6E7226DA2
:100AF000032A05DCE279022A05D1626D032A02DDB0
:100B0000BA4ABB4B01E0BB4ABB4BFFF71CFDFFF7EA
:100B1000D5FDDFF8E8A24FF47A7B0026054658455C
:100B2000DAE90030218C8DE843004FF06408B4A26C
:100B30004FF0E60122DA212003F02EFD474695FB17
:100B4000F7F20096238CE6211C2003F0B9FC95FBFC
:100B5000F7F007FB10510A2091FBF0F20096238C6E
:100B6000E621272003F0ACFC95FBF7F007FB1051C2
:100B70000A2091FBF0F200FB12121FE0282003F084
:100B80000BFD5F4695FBF7F20096238CE6211C20B7
:100B900003F096FC95FBF7F007FB105191FBF8F280
:100BA0000096238CE621232003F08AFC95FBF7F0C6
:100BB00007FB105191FBF8F208FB12120096238CF0
:100BC000E6212E2003F07CFC4F46D9F80000D946E0
:100BD000484501DDC7F80090208CCDE90106DAF820
:100BE00004000090554687A2E6217F20DAF8003005
:100BF00003F0D2FC3968009691FBF8F2C346238CCF
:100C0000E621732003F05CFC39684FF00A0A91FB7F
:100C1000F8F208FB121191FBFAF20096238CE62100
:100C20007A2003F04DFC3968009691FBF8F208FB3E
:100C3000121191FBFAF20AFB1212238CE621842096
:100C400003F03EFC208CCDE90106686800906EA29E
:100C5000E6218B202B6803F09FFC78686B4A411ECD
:100C600091427CD26A49002790FBF1F28046002A2B
:100C700007DD00960127238CE621C52003F020FC28
:100C80000AE0208CCDE901066868009061A2E621A7
:100C9000C5202B6803F080FC5D4998FBF1F201FB55
:100CA000128842F2107198FBF1F2002A01DD01274F
:100CB00000E037B10096238CE621CC2003F000FC45
:100CC0000AE0208CCDE901066868009051A2E62177
:100CD000CC202B6803F060FC42F2107198FBF1F21B
:100CE00001FB128898FBF9F2002A01DD012700E0E0
:100CF00037B10096238CE621D32003F0E1FB0AE014
:100D0000208CCDE901066868009042A2E621D3203C
:100D10002B6803F041FC98FBF9F209FB1288D946D5
:100D200098FBF9F2002A01DD012700E037B10096B7
:100D3000238CE621DA2003F0C3FB0AE0208CCDE906
:100D400001066868009033A2E621DA202B6803F0E0
:100D500023FC98FBF9F209FB1288D14600E034E04D
:100D600098FBF9F2002A01DD012700E037B1009677
:100D7000238CE621E12003F0A3FB0AE0208CCDE9DF
:100D800001066868009023A2E621E1202B6803F0A9
:100D900003FC98FBF9F209FB1282002A00DC3FB148
:100DA0000096238CE621E82003F08AFBBDE8FE8F45
:100DB000208CCDE901066868009017A2E621E820A2
:100DC000D5F8003003F0E8FBF0E7208CCDE9010610
:100DD00068680090E62111A2C5202B68F2E70000A8
:100DE0001000002066660A40100500203417B83C49
:100DF000D6CCF33F9A999999997924400000002024
:100E00002E0000002E200000250000003E420F00B2
:100E1000A0860100200000002D00000020202020DE
:100E20002020000010B5414CA07AC0073FD04FF6FB
:100E30001F00E083A07A4FF0000302281A4639D938
:100E40007D21792003F05AF800230A2277217320AC
:100E500003F054F8002304227921772003F04EF8A0
:100E6000002306227B21752003F048F8E38B002243
:100E70007721732003F042F8E38B0A2200217820C7
:100E800003F06CF8E38B0A227D21792003F036F819
:100E9000E38B06227921772003F030F8E38B0522DB
:100EA0007A21762003F02AF8E38B042238E04FF40D
:100EB000FC60BEE77721732003F020F800230A22AC
:100EC0007D21792003F01AF800230622792177206A
:100ED00003F014F8002304227B21752003F00EF8A0
:100EE000E38B00227D21792003F008F8E38B0A22AE
:100EF0000021782003F032F8E38B0A227721732057
:100F000002F0FCFFE38B04227921772002F0F6FF48
:100F1000E38B05227A21762002F0F0FFE38B062294
:100F20007B21BDE81040752002F0E8BF10000020D2
:100F30002DE9F05FFE48068EC16B8E4200DB761A0B
:100F40000021DFF8EC93418681860C46771C09F17D
:100F50005C094FF0DC0A4FF0140B8046D8F83C10C7
:100F60008F4200DB00278E4200DB0026F04D2E353D
:100F7000287850B1EF48002300EB440130F9140009
:100F8000B1F90210224604F027FD687850B1EA4812
:100F9000002300EB440130F91400B1F9021022469D
:100FA00004F01AFD98F80A0045460128E04800F1CF
:100FB0003A0029D0007800287ED0E86C0D287CDA31
:100FC000DFF878E3B5F812C0C8213EF81600EB7AD6
:100FD000C0F30B00A0EB0C004843E98A90FBF1F250
:100FE000B9F8000003449A1AC832EA863EF817207E
:100FF000C823C2F30B02A2EB0C025A4392FBF1F29C
:10100000E97A0844801A11E14078002874D0E86C2D
:101010000D281EDADFF828E3A98AC8223EF8160058
:10102000B5F818C0C0F30B00401A504390FBFCF217
:10103000B9F80200EB7A03449A1AC832EA863EF8FD
:101040001720C2F30B02511AC822514391FBFCF145
:1010500020E0DFF8F0E2B5F814C0C8213EF8140033
:10106000EB7AC0F30B00A0EB0C004843298B90FBFC
:10107000F1F2B9F8020003449A1AC832EA860EEB7C
:101080004402C8235288C2F30B02A2EB0C025A435B
:1010900092FBF1F1EA7A1044401AC8302887B5F97A
:1010A0003600DC2801DDA5F836A0B5F93800DC28CB
:1010B00001DDA5F838A001E0E4E091E0B5F93600E3
:1010C000142801DAA5F836B0B5F93800142801DA89
:1010D000A5F838B09849B5F93600EF2C21F814007E
:1010E00003D1954A298FA2F8E0114FF4FC63224600
:1010F000B5F9381004F070FC8D483A3000780028BB
:101100007ED0E86C0D281FDA8C486A8AC82330F834
:10111000161095F80BC0C1F30B01891A5943EB8ADD
:101120009E4691FBF3F3B9F800108C44ACEB03033B
:10113000C833EB8630F81700C0F30B00801AC822C2
:10114000504390FBFEF020E07F486B8AC82230F8C5
:1011500014109E46C1F30B01C91A5143EA8A95F84F
:101160000BC091FBF2F3B9F8001000EB44008C4483
:10117000ACEB0303C833EB864088C823C0F30B00F5
:10118000A0EB0E00584390FBF2F0EA7A1144081AE3
:10119000C8302887B5F93600DC2801DDA5F836A06F
:1011A000B5F93800DC2801DDA5F838A0B5F936001E
:1011B000142801DAA5F836B0B5F93800142801DA98
:1011C000A5F838B05B49B5F93600EF2C21F81400CA
:1011D00003D1584A298FA2F8E0114FF61F03CCE043
:1011E000DFF864E1B5F812C0C8213EF81400C0F37E
:1011F0000B00A0EB0C004843E98A90FBF1F200E001
:1012000082E0B9F80000EB7A03449A1AC832EA8601
:101210000EEB4402C8235288C2F30B02A2EB0C026D
:101220005A4392FBF1F1EA7A1044401AC8302887F9
:10123000B5F93600DC2801DDA5F836A0B5F938008F
:10124000DC2801DDA5F838A0B5F93600142801DA4C
:10125000A5F836B0B5F93800142801DAA5F838B089
:101260003449B5F93600EF2C21F8140003D1314A86
:10127000298FA2F8E0114FF61F032246B5F9381066
:1012800004F0AAFB2A483A304078E8B3E86C0D280D
:1012900018DA2B48AA8AC82330F8161095F80BC024
:1012A000C1F30B01891A59432B8B9E4691FBF3F333
:1012B000B9F802108C44ACEB0303C833EB8630F86A
:1012C000170018E01F48AA8AC82330F8141095F8B0
:1012D0000BC0C1F30B01891A59432B8B9E4691FB1E
:1012E000F3F3B9F8021000EB44008C44ACEB0303B9
:1012F000C833EB864088C0F30B00801AC8225043E5
:1013000090FBFEF0EA7A00E03CE01144081AC83095
:101310002887B5F93600DC2801DDA5F836A0B5F937
:101320003800DC2801DDA5F838A0B5F936000DE05D
:1013300010000020AC0000208E02002024050020B8
:10134000241500201827002024250020142801DA65
:10135000A5F836B0B5F93800142801DAA5F838B088
:101360001449B5F93600EF2C21F8140003D1114AC5
:10137000298FA2F8E0114FF4FC632246B5F938102A
:1013800004F02AFB641C761C7F1CF02CFFF6E6ADF3
:101390000949B9F800200A80B9F802004880B8F875
:1013A0001610A8F81A10B8F81810A8F81C10BDE804
:1013B000F09F00008E020020700000202DE9F05FF9
:1013C000FE48048EC16B8C4200DB641A4FF00009AA
:1013D000FA4FA0F83290661CA0F834904D462E3794
:1013E0004FEA0008D8F83C00864200DB0026844221
:1013F00000DB0024387850B1F148002300EB4501B0
:1014000030F91500B1F902102A4604F0E5FA7878AF
:1014100050B1EC48002300EB450130F91500B1F95B
:1014200002102A4604F0D8FA641C6D1C761CF02DBC
:10143000D8DBFFF769FAB8F83050D8F83C004746D7
:10144000854200DB2D1ADFF874B3A7F83290A7F8B5
:10145000349000240BF13A0B6E1C0BF122084FF074
:10146000DC094FF0140AB87A012825D09BF8000057
:1014700000287DD0F86C0D287BDADFF84CE3798A00
:10148000C8223EF81500B7F816C0C0F30B00401A8A
:10149000504390FBFCF2B8F80000FB7A03449A1A20
:1014A000C832FA863EF81620C2F30B02511AC8223F
:1014B000514391FBFCF102E19BF80100F0B3F86CA1
:1014C0000D2818DADFF804E3B7F814C0C8213EF895
:1014D0001500FB7AC0F30B00A0EB0C004843398BDE
:1014E00090FBF1F2B8F8020003449A1AC832FA8667
:1014F0003EF8162018E0DFF8D8E2B7F814C0C8218B
:101500003EF81400FB7AC0F30B00A0EB0C0048433C
:10151000398B90FBF1F2B8F8020003449A1AC832F2
:10152000FA860EEB44025288C823C2F30B02A2EBE8
:101530000C025A4392FBF1F1FA7A00E030E01044D9
:10154000401AC8303887B7F93600DC2801DDA7F823
:101550003690B7F93800DC2801DDA7F83890B7F9E4
:101560003600142801DAA7F836A0B7F9380001E0F0
:10157000D4E081E0142801DAA7F838A09149B7F93E
:101580003600EF2C21F8140003D18E4A398FA2F8CF
:10159000E0114FF4FC632246B7F9381004F01CFA4E
:1015A0009BF8000000287DD0F86C0D2818DADFF8D1
:1015B00018E2B7F812C0C8213EF81500FB7AC0F354
:1015C0000B00A0EB0C004843F98A90FBF1F2B8F84D
:1015D000000003449A1AC832FA863EF8162018E032
:1015E000DFF8F0E1B7F812C0C8213EF81400FB7A2A
:1015F000C0F30B00A0EB0C004843F98A90FBF1F21A
:10160000B8F8000003449A1AC832FA860EEB440276
:101610005288C823C2F30B02A2EB0C025A4392FB7E
:10162000F1F1FA7A1044401AC8303887B7F9360019
:10163000DC2801DDA7F83690B7F93800DC2801DD99
:10164000A7F83890B7F93600142801DAA7F836A0C1
:10165000B7F93800142801DAA7F838A05849B7F9C3
:101660003600EF2C21F8140003D1554A398FA2F827
:10167000E0114FF61F03D2E0DFF858E1B7F812C0CF
:10168000C8213EF81400FB7AC0F30B00A0EB0C005D
:101690004843F98A90FBF1F2B8F8000003449A1A23
:1016A000C83200E07BE0FA860EEB4402C823528881
:1016B000C2F30B02A2EB0C025A4392FBF1F1FA7A4D
:1016C0001044401AC8303887B7F93600DC2801DDED
:1016D000A7F83690B7F93800DC2801DDA7F8389074
:1016E000B7F93600142801DAA7F836A0B7F93800A0
:1016F000142801DAA7F838A03149B7F93600EF2CE1
:1017000021F8140003D12E4A398FA2F8E0114FF6C8
:101710001F032246B7F9381004F05EF99BF8010068
:10172000E8B3F86C0D281EDADFF8A0E0B98AC82209
:101730003EF81500B7F818C0C0F30B00401A50432C
:1017400090FBFCF2B8F80200FB7A03449A1AC83204
:10175000FA863EF81620C2F30B02511AC8225143F2
:1017600091FBFCF122E0DFF868E0B7F814C0C82173
:101770003EF81400FB7AC0F30B00A0EB0C004843CA
:10178000398B90FBF1F2B8F8020003449A1AC83280
:10179000FA860EEB44025288C2F30B0200E043E0EB
:1017A000A2EB0C02C8235A4392FBF1F1FA7A1044DF
:1017B000401AC8303887B7F936000DE01000002015
:1017C000AC0000208E0200202405002024150020FB
:1017D0001827002024250020DC2801DDA7F83690FA
:1017E000B7F93800DC2801DDA7F83890B7F93600E2
:1017F000142801DAA7F836A0B7F93800142801DA5E
:10180000A7F838A01249B7F93600EF2C21F81400D8
:1018100003D10F4A398FA2F8E0114FF4FC6322463E
:10182000B7F9381004F0D8F8641C6D1C761CF02C45
:10183000FFF619AE0749B8F800200A80B8F8020090
:101840004880F88A7883388BB883BDE8F09F000021
:101850008E020020700000202DE9F041514DA5F1CD
:101860002E042878C8B122790023911E1846921CB4
:1018700002F074FB22790023911E0120921C02F0D9
:101880006DFB22790023511E0220521C02F066FBE0
:1018900000222179032002F091FB6878C8B16279B7
:1018A0000023911EEF20921C02F058FB6279002366
:1018B000911EEE20921C02F051FB62790023511E12
:1018C000ED20521C02F04AFB00226179EC2002F06C
:1018D00075FB207B334F2E37A7F1220603282DD22C
:1018E0003988E07AC830084400B2608620713178C7
:1018F00021B3217B032921D2811C0AB2801E4FF61D
:101900001F0801B24346002002F028FB608E4346C8
:10191000811C0AB2801E01B2012002F01FFB608E02
:101920004346411C0AB2401E01B2022002F016FBDF
:10193000608E424681B2032002F040FB307828706E
:10194000207B02282AD07988E07AC830084400B287
:10195000A0866071717809B3811C0AB2801E4FF4B1
:10196000FC6701B23B46EF2002F0F8FAA08E3B463E
:10197000811C0AB2801E01B2EE2002F0EFFAA08EA6
:101980003B46411C0AB2401E01B2ED2002F0E6FACD
:10199000A08E3A4681B2EC2002F010FB707868709D
:1019A000BDE8F0813E000020704700002DE9F05FA7
:1019B0004FF48064204601F0F1FADFF844A2914F21
:1019C000914D01264FF00009002876D0204601F005
:1019D00085FACAF800408D4C22788D488D494FF425
:1019E000967B012A1DD02278022A39D094F80080F3
:1019F000894B8A4A4FF0070CB8F1030F5ED094F878
:101A000000804FF0020EB8F1040F67D094F8008008
:101A1000B8F1050F73D094F80080B8F1060F6FD0BD
:101A200099E07F4A1368062B46DA136890465B1CE0
:101A300013600078C0073DD07648B0F900007838D0
:101A4000FEF7F0FD7049D8F80020083101EB820163
:101A500051F8041CFEF7E2FB6B49424608311DE0D9
:101A6000704A1368062B76DA13685B1C13600078E3
:101A7000C0071FD16748B0F900007838FEF7D2FDE3
:101A8000684ADFF88481126808F1080808EB8201CF
:101A900051F8041CFEF7C2FB624A4146126851F835
:101AA0002210FEF7EDFB6049FEF760FBFEF7D9FD63
:101AB0005849088087F800904DE075E01878A8BB79
:101AC0005A48017832F9111011F1C80F5EDD007823
:101AD00002EB40000188491E018057E0197829BBBC
:101AE00053490323DFF84CC10A78012A09D9521E51
:101AF000D2B20A70022A0FD0032A03D02BE018E0DA
:101B000025E00B7071468CF800E00278012A1CD0A9
:101B1000017803290BD01EE08CF8006001780229BF
:101B200010D00178042916D1037014E011E00421CB
:101B30000BE0197869B90178032903D001780429E9
:101B400002D008E0067006E07146017003E01B78E1
:101B50002BB184F800C0207807281AD020E0007844
:101B6000354B5FEAC07C354801D0128800E05288CE
:101B70001B781A440B88D21A02F5A0720280B0F9C1
:101B80000000142802DD0888401C0880A5F802B077
:101B9000E1E72B480178082902D20178491C01703D
:101BA000A5F804B001F0AFFA4FF40068404601F028
:101BB000F5F9FA2458B1404601F090F9CAF80080CE
:101BC0003878D0B187F80090AC8001F09CFA4FF4DF
:101BD0008057384601F0E2F958B1384601F07EF9F5
:101BE000CAF800702E70AC804FF4FA70688001F073
:101BF0008AFA14480670BDE8F09F3E70E4E70000E2
:101C0000140401401800002078000020210000206A
:101C10001A0000203C0000201F0000205800002077
:101C200060000020640000200000F0421D00002041
:101C30001C000020170000201B0000203A0000209C
:101C400020000020190000202DE9F05F402001F065
:101C5000A5F9FA4C0027FA4D41F63F7940F69F7AF4
:101C600040F21F3B40F2CF7600286ED0402001F0BA
:101C700035F9F44940200860F3480178012912D071
:101C8000017802290FD0017807290CD001780329A7
:101C900050D00178042950D00178052956D0007819
:101CA00006287CD0A3E0E9480168002902DD01682C
:101CB000491E016000680F283AD2DFE800F0080AE8
:101CC0000E1012171C2039282C31353535006320B1
:101CD00012E0632014E0E06217E0632013E0632069
:101CE00016E00020A06249F63F40F4E70020A06221
:101CF00044F61F60EFE70020A0624846EBE70020B3
:101D0000A0625046E7E7A062E662D14813E00020F7
:101D1000A0625846DFE70020A06240F28F10DAE7A9
:101D20000020A062C720D6E70020A0624F20D2E7A3
:101D30000020E8E7C748077059E0C7480078032843
:101D400055D2C6480121017051E057E0C2480078E1
:101D50000328C348017826D2022903D00178042938
:101D600002D044E0012100E003210170DFF8F48299
:101D7000B8F900007838FEF755FCBB49096855F8FA
:101D80002110FEF74BFAB949096855F82110FEF702
:101D900077FAB749FEF7EAF9FEF763FC00E01BE0CB
:101DA000A8F8000023E0012903D00178032902D01C
:101DB0001DE0022100E004210170DFF8A882B8F9DB
:101DC00000007838FEF72EFCA849096855F8211064
:101DD000FEF724FAA449D7E7A648017811B10178A3
:101DE000491E017096494FF496700839488094490D
:101DF0004FF496700839888001F085F9802001F051
:101E0000CDF8DFF87482002871D0802001F066F8E8
:101E10008C49802008608C480178012912D0017813
:101E200002290FD0017807290CD0017803295AD054
:101E3000017804295CD00178052961D00078062852
:101E40007CD0ACE0814801680E2902DA0168491CA7
:101E5000016001680C2905DD98F80010012901D105
:101E60000C21016000680F283BD2DFE800F0080A6F
:101E70000E1012171C203A292D32363636006320F8
:101E800012E0632014E0E06217E0632013E06320B7
:101E900017E00020A06249F63F40F4E70020A0626E
:101EA00044F61F60EFE70020A0624846EBE7002001
:101EB000A0625046E7E7A062E662654807706EE000
:101EC0000020A0625846DEE70020A06240F28F109A
:101ED000D9E70020A062C720D5E70020A0624F20EC
:101EE000D1E70020E7E75B490120087057E05DE09B
:101EF00059480078022852D05848022101704EE01B
:101F00005548007802285648017824D0012903D08A
:101F10000178032902D042E0022100E0042101708F
:101F2000504CB4F900007838FEF77CFB4F49096843
:101F300055F82110FEF772F94B4900E023E00968DB
:101F400055F82110FEF79CF94949FEF70FF9FEF705
:101F500088FB208023E0022903D00178042902D0E5
:101F60001DE0012100E0032101703E4CB4F90000A6
:101F70007838FEF757FB3C49096855F82110FEF701
:101F80004DF93A49D9E73B480178EF2902D2017867
:101F9000491C01702A494FF4967008394880284935
:101FA0004FF496700839888001F0ADF84FF4007452
:101FB000204600F0F3FF00283FD0204600F08EFFBF
:101FC00020480460204C2078012811D02078022875
:101FD00056D0227807212948032A5FD02278042A84
:101FE0006CD02278052A78D02278062A76D0A1E013
:101FF0001E4E3068002850DD3068401E30601848A2
:102000000078C00747D0DFF85C80B8F90000783866
:10201000FEF708FB316805EB81014968FEF7FEF821
:10202000316855F82110FEF72BF91149FEF79EF89B
:10203000FEF717FBA8F800002DE0AAE0000400401E
:102040008000002014040140210000205C000020DA
:10205000180000201D0000201C0000201700002098
:102060001A0000203C0000206400002060000020D6
:102070000000F042160000201F0000205800002041
:10208000464E3068002855DD3068401E30604448B8
:102090000078C007B7D0434807704BE098F800209D
:1020A000C2BB41490A7830F91220002A5FDA097868
:1020B00000EB41000188491C018058E098F80000BD
:1020C00040BB3A480178032909D2491CC9B20170C2
:1020D000022906D0032910D02CE01CE026E00121C3
:1020E00016E03348012101702D480278022A0FD0F2
:1020F000017804291ED103210AE02D480221017034
:1021000027480278012A03D00178032912D104213B
:1021100001700FE00DE098F8000050B920480178F8
:102120000129E8D001780229F1D003E098F80020D5
:1021300022B12170207807281ED024E018490978A0
:102140001C4ACB071C4901D0008800E04088127867
:1021500010441A4A1288801A00F5A0700880B1F95C
:102160000000DB2803DA15490888401E088014495E
:102170004FF496704880DDE712480178012902D9B2
:102180000178491E01700E494FF49670888000F066
:10219000BAFF0D4901200870BDE8F09F64000020DF
:1021A0001A000020180000201D0000201C00002044
:1021B000170000201B0000203A0000203C000020F7
:1021C0007800002020000020190000207047000047
:1021D0002DE9F05FC16B0C6801680B68D0F840C056
:1021E000042202FA0CF2494DDFF824A1494E4A4F6D
:1021F000DFF828B1DFF828E122422CD05A072AD58F
:102200000A68920603D40A6822F004020A60016890
:10221000A94201D1042219E0514501D1402215E023
:10222000B14202D14FF4806210E0B94202D14FF4C2
:1022300080420BE0594502D14FF4802206E07145FF
:1022400002D14FF4800201E04FF080622F4908393B
:102250004A60C16A3BE04FF0020808FA0CF818EA3D
:10226000040F4FF000094FF0010235D05FEA837888
:1022700032D50B689B0605D40B6823F00A030B606C
:1022800080F821200168A94201D1022219E05145BC
:1022900001D1202215E0B14202D14FF4007210E0CA
:1022A000B94202D14FF400520BE0594502D14FF42C
:1022B000003206E0714502D14FF4001201E04FF008
:1022C0000072124908394A6080F82090816A00291A
:1022D0001AD0BDE8F05F0847082505FA0CF525423D
:1022E00012D01B0710D50B6823F00E030B6090F87B
:1022F0004010C36B02FA01F15960826380F821201B
:1023000080F82090016BE2E7BDE8F09F08000240F2
:102310001C000240300002404400024058000240CD
:102320006C00024030B528B308C813491422194480
:10233000B1FBF2F18900C163104981630221417749
:102340001A6843F6F0718A43D0E900142143D0E9BA
:1023500002452C4321430469214344692143846994
:102360002143114319600021416301224277017723
:10237000084630BD012030BDF8FFFDBF000002401F
:102380002DE9F84FDFF8B891002409F1040A0AF1A9
:10239000040B23460F270BF1040EC9E00125A540CD
:1023A0002A40AA427DD1674ED1F804C0ACEB0608A2
:1023B000B44532D014DCBCF1030F3AD009DCBCF1D7
:1023C000000F2AD0BCF1010F1CD0BCF1020F31D19B
:1023D0001DE0BCF1110F17D0BCF1120F2AD119E08A
:1023E000B8F5881F19D006DCB8F5803F15D0B8F5D0
:1023F000801F1FD111E0B8F5001F0ED0B8F5041FE3
:1024000018D10AE0CB6815E0CB681B1D12E0CB6841
:1024100008330FE0CB680C330CE08B682BB1012B39
:102420004FF0080303D0456104E0042302E0056196
:1024300000E00023FF2A01D8064601E000F104066F
:102440004FEA840501D9A5F12005D6F8008007FAE6
:1024500005FC28EA0C0803FA05F548EA0508C6F861
:1024600000804D68ED0062D5374DAE6946F001063B
:10247000AE61AD6924F0030605F001050095334D0A
:1024800006EB050CDCF80850A607360F07FA06F82D
:1024900025EA0805DFF8B880404503D14FF0000871
:1024A00017E044E0DFF8AC80404502D14FF001086E
:1024B0000FE0DFF8A480404502D14FF0020808E0A9
:1024C000DFF89880404502D14FF0030801E04FF05B
:1024D000040808FA06F848EA0508CCF808804D68B0
:1024E000D9F80060ED034D4601D5164300E0964350
:1024F0002E604D68DAF80060AD03554601D51643ED
:1025000000E096432E604D68DBF80060ED025D460A
:1025100001D5164300E096432E604D68DEF800605A
:10252000AD02754601D5164300E096432E60641C4B
:102530000D682A46E5407FF431AFBDE8F88F000012
:102540000004014000001110001002400000014092
:1025500000080140000C014000100140001401403F
:1025600001488068704700009C0000200248816894
:1025700002781144816070479C000020074810B524
:10258000016841F010010160032000F075F800209F
:1025900000F006F800F024F8002010BD00200240F2
:1025A00070B50D4D04464FF47A712878B1FBF0F008
:1025B0000A490968B1FBF0F000F0CFF948B9102CD6
:1025C00007D200222146501E00F036F800206C6031
:1025D00070BD012070BD00009C000020A8000020FC
:1025E0000C4808B5816941F001018161816901F000
:1025F00001010091C16941F08051C161C06900F0E1
:10260000805000900448416821F0E06141F0007181
:10261000416008BD0010024000000140002809DBB5
:1026200000F01F02012191404009800000F1E020EC
:10263000C0F8001170470000F0B40E4B1B680C4648
:10264000C3F30223C3F10705042D00D90425191D86
:10265000072901D2002300E0DB1E012606FA05F15E
:10266000491E214099409E40761E16403143F0BCE1
:1026700002F085BD0CED00E0064900F00702086895
:102680004FF6FF03184040EA0220034A1043086057
:10269000704700000CED00E00000FA0570B5040082
:1026A00009D0606A002540B125616561A56294F892
:1026B000510040B10CE0012070BD6068B0F5827F30
:1026C000F4D0E561F2E784F85050204600F040F87D
:1026D000022084F851002068016821F04001016067
:1026E000A088218900F4827001F404410843A18983
:1026F00001F400610843217C01F002010843217DBF
:1027000001F001010843218B01F400710843217F8E
:1027100001F03801084394F8201001F080010843CB
:10272000218D01F40051084321680860A06904214B
:1027300001EA1040216848602068C16921F4006105
:10274000C1616565012084F85100002070BD000062
:1027500070B586B000250646009501950295039553
:1027600000681E49884236D11D49886940F480506E
:102770008861886900F480500490886940F00800FE
:1027800088618869694600F008000490282000905C
:1027900002200190032003901248FFF7F1FD124838
:1027A000416841F0E06141F001014160104C0F4887
:1027B00020601020C4E901058020C4E90305202021
:1027C000C4E905502046E561FFF7ACFD08B1FFF70D
:1027D000FDFCB464666206B070BD000000300140CC
:1027E00000100240000C0140000001403000024097
:1027F0000C4900202DE9F84F044690F850000027BE
:102800001D461646894601280DD04FF0010B84F86D
:1028100050B0FFF7A5FE804694F85100BA46012853
:1028200004D0022793E00220BDE8F88FB9F1000F31
:1028300073D0002E71D0032084F85100C4F854A046
:10284000C4F83090A686E686C4F838A0A4F83CA068
:10285000A4F83EA0C4F844A0C4F840A0A068B0F515
:10286000004F09D12068016821F040010160206813
:10287000016841F48041016020680168490603D481
:10288000016841F040010160E068B0F5006F6068E8
:1028900003D030B3012E24D041E008B1012E1CD169
:1028A000206B21680088C86006E02068816889077D
:1028B00009D5216B0988C160206B801C2063E08EE4
:1028C000401EE08609E0FFF74BFEA0EB0800A8429F
:1028D00002D3681C01D031E07DB3E08E0028E4D142
:1028E00020E0206B21680078087306E0206881688A
:1028F000890709D5216B09780173206B401C20637F
:10290000E08E401EE0860AE0FFF72AFEA0EB0800FA
:10291000A84203D3681C02D010E017E06DB1E08E2E
:102920000028E3D142462946204601F07BFA08B14F
:1029300020206065A06818B106E0FFE7032706E0E5
:102940002068C16880680090606D00B1012784F83C
:1029500051B084F850A0384666E710B5401EB0F17B
:10296000807F01D3012010BD4FF0E02460610F2172
:10297000601702F004FC0020A06107202061002005
:1029800010BD000070B590F83C20012A26D001242B
:1029900080F83C40022280F83D2003685A689D6818
:1029A00022F070060A6832435A600D4B02689A4260
:1029B00008D0B2F1804F05D00A4B9A4202D00A4BA0
:1029C0009A4204D1496825F080031943916080F848
:1029D0003D40002180F83C10084670BD022070BDCB
:1029E000002C0140000400400008004010B5040025
:1029F00003D094F83D0010B107E0012010BD002085
:102A000084F83C00204600F01FF8022084F83D00C6
:102A1000211D206802F022F8012084F8460084F885
:102A20003E0084F83F0084F8400084F8410084F8B8
:102A3000420084F8430084F8440084F8450084F898
:102A40003D00002010BD000008B50068064988421E
:102A500008D10648C16941F00401C161C06900F0B4
:102A60000400009008BD0000000800400010024073
:102A700070B5044690F83C00012817D0012584F871
:102A80003C50022084F83D002068826822F07702E2
:102A900022F47F4282600868502830D00DDC202864
:102AA0004DD005DC98B310283BD148E0022070BD22
:102AB000302844D0402834D139E0602828D070280C
:102AC00006D0B0F5805F2CD0B0F5005F29D10AE0C8
:102AD000CB68D1E90121206802F003F82068816801
:102AE00041F0770109E0CB68D1E90121206801F0CC
:102AF000F8FF2068816841F48041816011E0CA6874
:102B00004968206802F0A2F85021206807E016E02A
:102B1000CA684968206802F0AAF86021206801F0BC
:102B2000EAFF84F83D50002084F83C0070BDCA687C
:102B30004968206802F08AF840212068EFE722689F
:102B400001461046EBE7000000B585B0002100917A
:102B500001910291039100680B49884212D10B4800
:102B6000816941F0080181618069694600F00800CF
:102B700004904FF4007000900220019003900448EC
:102B8000FFF7FEFB05B000BD00080040001002404A
:102B9000000C014070B5044690F83C000D46012839
:102BA0000AD0012084F83C0042B1042A18D0082A37
:102BB0002AD00C2A4DD139E0022070BD206801F0E6
:102BC000A3FF2068816941F0080181612068816963
:102BD00021F004018161206881692A69114311E0B3
:102BE000206801F0B9FF2068816941F400618161CA
:102BF0002068816921F480618161206881692A6986
:102C000041EA0221816124E0206801F0D1FF2068BF
:102C1000C16941F00801C1612068C16921F0040166
:102C2000C1612068C1692A69114311E0206801F07F
:102C3000EBFF2068C16941F40061C1612068C1698E
:102C400021F48061C1612068C1692A6941EA0221D9
:102C5000C161002084F83C0070BD10B5040003D0B1
:102C600094F83D0010B107E0012010BD002084F869
:102C70003C00204600F01EF8022084F83D00211D93
:102C8000206801F0EBFE012084F8460084F83E0045
:102C900084F83F0084F8400084F8410084F8420042
:102CA00084F8430084F8440084F8450084F83D002B
:102CB000002010BD7047000010B50446022249B143
:102CC00004290ED0082913D094F84100012816D009
:102CD000012010BD94F83E000128F9D184F83E206F
:102CE0000FE094F83F000128F2D184F83F2008E07B
:102CF00094F840000128EBD184F8402001E084F8EA
:102D000041200122206801F0DFFE0F49206888423F
:102D100003D1426C42F4004242642068884208D0E9
:102D2000B0F1804F05D00949884202D00849884255
:102D300004D1816801F00701062903D0016841F040
:102D400001010160002010BD002C01400004004082
:102D500000080040FEE700000D4B10B59B68002204
:102D60000C4C03F00103A46804F00104234302D0D7
:102D70000122104610BD096829B1436823F470236D
:102D80000B434360F5E7416821F470214160F0E7AF
:102D9000002401400028014010B58368002213F090
:102DA000010F02D00122104610BD43684C6823F485
:102DB0008073234343608368096823F400630B43F3
:102DC0008360F0E770B54B688468002214F0010F4F
:102DD00002D00122104670BD33B18C682343446891
:102DE00024F46844234302E0436823F468434360C7
:102DF000CC680B68856823430C69064E35402C432C
:102E0000234383604968C36A23F470030B43C3629E
:102E1000E0E70000FDFEF1FF10B54FF4407494FAB6
:102E2000A4F401F44073B4FA84F4E34000EB8300AB
:102E3000C36A01F01F011F248C4002F01F02A3434C
:102E40008A401343C36210BD70B54FF0007494FA0A
:102E5000A4F401F00073B4FA84F4E34000EB8300BF
:102E6000C3684FF0F87494FAA4F501F0F871B5FA5C
:102E700085F521FA05F50726AE4094FAA4F4B4FAD4
:102E800084F4E140B3438A401343C36070BD000043
:102E9000044908B58A6902438A6189690140009141
:102EA00008BD000000100240044A114411F8011C42
:102EB000425842F001024250704700003C75000841
:102EC000054B001D194411F8011C0B586FF30F033B
:102ED00013430B50704700003C75000802490A6814
:102EE00082430A60704700000004014002490A68FA
:102EF00002430A60704700000004014030B5264AD2
:102F0000002405790168131F85B371B345798DB12C
:102F1000012D17D0022D18D0012483792BB31E491F
:102F200008310A1F012B18D0022B20D0032B22D0EE
:102F3000012428E015688D43156001681A680A436A
:102F40001A60EAE71D688D4301E01D680D431D60AE
:102F5000016813680B431360DFE703680D689D4346
:102F60000D6000681168014311600CE00DE003681A
:102F700015689D4302E0036815681D4315600068ED
:102F80000A6802430A60204630BD1D688D431D60FB
:102F9000006811688143E7E70404014003490968B8
:102FA000884301D00020704701207047140401407D
:102FB0000A06930D064A1A44936823EA1143090C42
:102FC00091FAA1F1B1FA81F188400343936070470F
:102FD00000000140F0B50A68C2F30F2595FAA5F28A
:102FE000B2FA82F369E001229A402A4264D0082BA7
:102FF00003D240F201129A4006E0A3F108024FF01A
:103000000114944044F080624C68082C0BD10C6988
:10301000C668170A97FAA7F7B7FA87F726EA1226BB
:10302000BC402643C66092FAA2F700EB1264B7FADE
:1030300087F74FEA870C0F27266807FA0CF7BE437D
:1030400092FAA2F7D1F804E0B7FA87F7BF000EFAB8
:1030500007FE46EA0E0626604F68012F01D0092FB1
:103060002AD192FAA2F7B7FA87F74FEA870C03271B
:1030700007FA0CF7BE4392FAA2F7B7FA87F7D1F82E
:1030800008E0BF000EFA07FE92FAA2FC46EA0E061E
:10309000BCFA8CFC4FEA8C0E4FF0040C26600CFA44
:1030A0000EFC92FAA2F2B2FA82F2CF68920026EAFD
:1030B0000C0697403E4326605B1C35FA03F292D122
:1030C0000020F0BD30B591FAA1F400EB1160B4FA24
:1030D00084F4A5000F24AC4091FAA1F10368B1FA81
:1030E00081F18900A3438A401343036030BDC36864
:1030F00023EA1123090A91FAA1F1B1FA81F18A4078
:103100001343C36070474FF0E020016941F00201B2
:10311000016170470149086070470000A800002065
:10312000F0B50268154B164C164D4FF0804698428C
:1031300005D0B04203D0A04201D0A84203D14F68CD
:1031400022F070023A43984205D0B04203D0A04228
:1031500001D0A84203D1CC6822F44072224302601D
:103160008A68C2620A888262984201D10969016351
:10317000416941F0010141610020F0BD002C014096
:10318000000400400008004008B54FF0E0210A6943
:103190000092421C00D0401C0A69D20300D5401E98
:1031A0000028F9D108BD00002DE9FE43DFF8E083D7
:1031B000D8F84C10F74C00254FF6FF76D4E90030D4
:1031C0000F2914D2DFE801F0080B1E2124272A2D35
:1031D000303336393C3F4200EFA2029501E0F0A2C5
:1031E0000295CDE900060021084601F0D5F9D8F88E
:1031F0005400B72707287ED2DFE800F02B323D4489
:103200004B616800E8A20295EBE7E9A20295E8E7C6
:10321000E9A20295E5E7EAA20295E2E7EAA20295B1
:10322000DFE7EBA20295DCE7EBA20295D9E7ECA27F
:103230000295D6E7ECA20295D3E7EDA20295D0E77E
:10324000EDA20295CDE7EEA20295CAE7EEA20295A5
:10325000C7E7CDE9016560680090EDA2236805E04D
:10326000CDE90165606800902368EBA20021D320BE
:1032700001F092F93FE0CDE9016560680090E8A2B5
:103280002368F3E7CDE9016560680090E6A2236852
:1032900005E0CDE90165606800902368E4A20021A3
:1032A000D32001F079F9CDE9016560680090E2A2D0
:1032B00000213846236801F06FF9C5271BE0CDE9EE
:1032C000016560680090DDA22368E8E7CDE901654B
:1032D00060680090DBA20021D320236801F05CF934
:1032E000CDE9016560680090B0A2002138462368EE
:1032F00001F052F9BE27D8F85000072816D2DFE8AF
:1033000000F0040B3B4249505700CDE9016560686D
:103310000090CEA2236805E0CDE9016560680090C9
:103320002368CCA20021384601F036F9CDE90165C9
:1033300060680090C9A2E6210020236801F02CF902
:10334000CDE9016560680090C6A2E621512023689E
:1033500001F022F9CDE9016560680090C3A2E62181
:10336000A320236801F018F998F8110047464FF69A
:10337000E076012823D043E0CDE901656068009044
:10338000BCA22368CEE7CDE9016560680090BBA2CE
:103390002368C7E7CDE9016560680090B9A223689A
:1033A000C0E7CDE9016560680090B8A22368B9E77D
:1033B000CDE9016560680090B6A22368B2E7CDE967
:1033C000016560680090B5A200213C20236801F0EF
:1033D000E3F8CDE9016560680090B2A200216620A3
:1033E000236801F0D9F8387B032809D2CDE90165BB
:1033F00060680090ADA200218C20236801F0CCF819
:10340000787C022816D1CDE9016560680090A9A2F8
:1034100000213C20236801F0BFF8387B022809D046
:10342000CDE9016560680090A0A200218C2023688E
:1034300001F0B2F8787C03281FD0787C04282FD0C4
:10344000787C052847D0787C062863D0787C0728CC
:1034500024D1CDE901656068009098A200213C204C
:10346000236801F099F8387C092817D2DFE800F0CA
:1034700016636A71787F868E8D00CDE9016560687C
:10348000009090A200213C20236801F085F8787B11
:10349000C0B330E000218C2001F07EF8BDE8FE834F
:1034A000CDE901656068009088A200213C20236876
:1034B00001F072F8387B012806D0387B022822D030
:1034C000387B032817D0E9E7CDE9016560680090F3
:1034D00080A22368DEE7CDE90165606800907FA2E5
:1034E00000213C20236801F057F8B87A01280AD05F
:1034F000B87A032807D0CDE90165606800906DA215
:103500002368C7E7FFE7CDE901656068009075A211
:103510002368BFE7CDE901656068009073A20021D0
:103520003C20236801F038F8CDE90165606800901F
:1035300070A22368AEE7CDE90165606800906FA2D4
:10354000236800E1CDE90165606800906DA2236801
:10355000F9E0CDE90165606800906CA22368F2E0B3
:10356000CDE90165606800906AA22368EBE0CDE9CF
:1035700001656068009069A22368E4E0CDE9016517
:103580006068009067A22368DDE0D6E0CEE000002E
:1035900010000020000000203230306D7300000069
:1035A0003130306D7300000035306D732000000045
:1035B00032306D732000000031306D732000000048
:1035C000356D732020000000326D73202000000054
:1035D000316D73202000000035303075730000001D
:1035E00032303075730000003130307573000000E8
:1035F00035307573200000003230757320000000F4
:1036000031307573200000003575732020000000F4
:10361000302E315600000000302E325600000000DF
:10362000302E3556000000002020315600000000EA
:1036300020203256000000002020000020203556B7
:10364000000000002031305600000000302E312FE5
:1036500000000000302E322F000000005670703A3B
:1036600000000000447574793A00000046726571EC
:103670003A000000302E352F000000002020312FAE
:10368000000000002020322F000000002020352FF5
:10369000000000002031302F00000000204348319E
:1036A000202020002020202020200000202020207A
:1036B0002000000020434832200000004C656E6767
:1036C00074683A004D4F56452000000053484F574C
:1036D000200000004348312B32000000545249477B
:1036E000470000002043483120000000542D506F57
:1036F0007300000020582D5920000000203235367C
:103700007074000020353132707400002037363874
:10371000707400003130323470740000313238304F
:10372000707400003135333670740000CDE90165E6
:103730006068009005A2236805E0CDE90165606836
:103740000090236803A200217320A5E631373932A7
:1037500070740000323034387074000070B58EB070
:1037600000240B940C94142101A80D94FCF7F3FC95
:10377000142106A8FCF7EFFC4FF400752846FFF76C
:1037800087FB0420FFF784FB40F20440CDE90604E8
:1037900006A92D48FFF71EFC2D482C4A014600784B
:1037A000105844F2100398430B78D0500878105802
:1037B0000B7840F44050D050087810580B7840F007
:1037C0002000D050087810580B7820F04000D050DE
:1037D000087810580B7840F08000D05008781058C6
:1037E0000B7820F4407040F40070D05008781058E6
:1037F000097820F4406040F400605050154E0B945E
:103800000BA930460C94FFF7C7FA4FF4C0200D9077
:103810000DA93046FFF7A0FAA802CDE90104C012B5
:10382000CDE9044001A903943046FFF7CBFA0A4CD6
:10383000294622463046FFF7EFFA0022214630465D
:10384000FFF702FB0EB070BD00080140000002400F
:103850003C750008002401400200600230B58DB0C4
:1038600000240A94142168460B94FCF774FC14217C
:1038700005A8FCF770FC4FF48060FFF709FB0420FB
:10388000FFF706FB41F21000CDE9050405A9114838
:10389000FFF7A0FB104D0A940AA928460B94FFF7E6
:1038A0007BFA4FF46020CDE900040294039469464A
:1038B00028460494FFF786FA084C691522462846E4
:1038C000FFF7AAFA002221462846FFF7BDFA0DB0FD
:1038D00030BD000000080140002801400400C00283
:1038E0002DE9F04F87B000240094142102A8019420
:1038F000FCF731FC1020FFF7CBFA2020FFF7C8FAC5
:103900000420FFF7C5FA0820FFF7C2FA7748764A85
:103910004FF460414161764F41F208017961DFF86F
:10392000D4B14FF40068C7F8108002AB012502261D
:10393000059483E8640002A9FFF74CFB02A940F656
:103940000800059481E861003846FFF743FB6A48A8
:10395000CDE902050320CDE9040402A93846FFF7AA
:1039600039FB66490020FFF723FB65490020FFF77C
:103970001FFB63490120491CFFF71AFB6149012025
:10398000FFF716FB60490020FFF712FB5B490020A0
:10399000491CFFF70DFB40208DF8045000908DF876
:1039A00005408DF806606846FFF7A8FA80208DF87C
:1039B000045000908DF805408DF806606846FFF7CA
:1039C0009DFA8DF804508DF80540CDF800808DF8F3
:1039D00006606846FFF792FA28038DF804500090BD
:1039E0008DF805408DF806606846FFF787FA680293
:1039F0008DF8045000908DF805408DF806606846FB
:103A0000FFF77CFAA8028DF8045000908DF805406D
:103A10008DF806606846FFF771FA44F2400401220F
:103A200021463846FFF763FB6500012229463846E8
:103A3000FFF75DFB354E012259463046FFF757FB35
:103A4000DFF8CC80012241463046FFF750FBDFF81B
:103A5000C490012249463846FFF749FBDFF8B8A079
:103A6000012251463846FFF742FB082221463846DC
:103A7000FFF728FB082229463846FFF723FB0822D8
:103A800059463046FFF71EFB082241463046FFF7F5
:103A900019FB082249463846FFF714FB0822514615
:103AA0003846FFF70FFB1D4C20680022C0F30220B0
:103AB000012100F0C9F80146172001F050FB172042
:103AC00001F040FB20680022C0F30220012100F039
:103AD000BBF80146282001F042FB282001F032FB10
:103AE00007B0BDE8F08F0000E000E00400100140E6
:103AF0000008014008000804180018040100000F25
:103B0000010000F003000F000200F000000C014073
:103B10001000100402000204040004040CED00E094
:103B20000C480B49022201604FF482714160002170
:103B30008160C0E90312012242615202C0E90621FC
:103B40000162416281620A21C162FEF7A7BD0000E5
:103B5000003001407004002010B586B01421684682
:103B6000FCF7F9FA1548C16941F00201C161C06969
:103B700040F28F1100F0020005900020ADF8000027
:103B8000CDE901010E4C039069462046FFF7C8FAC3
:103B9000206820F080002060A06844F2070188437C
:103BA000A060606820F0700040F020006060A068B5
:103BB00020F08000A06006B010BD000000100240A0
:103BC0000004004010B58EB00024079408940994B6
:103BD0000A940B941C2168460C94FCF7BCFA184814
:103BE000164901606321C0E9011440F21F31C0E9A8
:103BF000031480218161FEF7F9FE4FF48050079095
:103C000007A90F48FEF734FF0D48FFF726F80B947D
:103C10000BA90B480C94FEF7B5FE6020009040F213
:103C20008F10CDE901040C22694605480494FEF783
:103C3000B1FF0348FEF788FF0EB010BD000800403A
:103C4000C8040020FEE7704730B500F00703C3F159
:103C50000704042C00D90424181D072801D20023CE
:103C600000E0DB1E012505FA04F0401E08409840E4
:103C70009D406D1E1540284330BD70472DE9F04131
:103C80006448D0E903412046FCF7C2FA6FF0010115
:103C9000FCF734FB2146FCF7BEFAFCF7FBFC5F4C5B
:103CA00086B25D48216D30F81110E182626D30F806
:103CB00012002083E27B002A74D1A28FF23AA28400
:103CC000A27AD3074FF0C80207D0B4F92C00783895
:103CD000484390FBF2F0618A06E0B4F92C10783981
:103CE000414391FBF2F0A18A084400B2A065A1799A
:103CF000A27A4A4B47480A3114305D8C012A03D01E
:103D000015E0521EA28400E0A36DA28C8A420ED957
:103D100000EB420737F8027C9F42F2DC30F8127069
:103D20009F42EEDD571930F81770B742E9D3A37AF6
:103D30003B4A022B03D016E05B1EA38400E0A76D74
:103D4000A38C8B420FD902EB430C3CF802CCBC4550
:103D5000F2DC32F813C0BC45EEDD03EB050C30F8A5
:103D60001CC0B445E8D3A37A032B03D016E05B1E36
:103D7000A38400E0A76DA38C8B420FD900EB430C0A
:103D80003CF802CCBC45F2DB30F813C0BC45EEDA9F
:103D9000A3EB050C30F81CC0B445E8D3A37A042B80
:103DA00004D017E019E05B1EA38400E0A76DA38C8C
:103DB0008B420FD902EB430C3CF802CCBC45F2DB42
:103DC00032F813C0BC45EEDAA3EB050C30F81CC08A
:103DD000B445E8D3A08C401EA08410484830018828
:103DE00000F11405298040886880A08CA179401AD0
:103DF000208601F0DBF8A07AC00701D0288800E017
:103E00006888E17A0844A18D401A00F5A0706085A9
:103E1000BDE8F08110050020447500081000002066
:103E20002415002038B50B4600920446002280215C
:103E300000F008F8002804D0606D40F020006065B4
:103E4000032038BD2DE9F8431E46914688460446B6
:103E5000089DFEF785FB401B351AFEF781FB0746E0
:103E600025480068C0F3CB30684338E0701C37D079
:103E7000FEF776FBC01BA84203D215B1009860B3D1
:103E80002CE02068416821F0E00141606068B0F5F5
:103E9000827F0BD1A068B0F5004F02D0B0F5806FE3
:103EA00004D12068016821F040010160A06AB0F5EA
:103EB000005F09D12068016821F400510160206889
:103EC000016841F400510160012084F85100002094
:103ED00084F850000320BDE8F8830025401E0090C0
:103EE0002068816838EA010004D000214945BDD12D
:103EF0000020F0E70121F9E7A8000020F8B51C46F2
:103F00000D46CFB20646D3B2D1B2C0B23A4600F0A7
:103F1000B9F9200A8DF800008DF8014000220C4C00
:103F20000C4F0D4BAD1B10E02168684641F4006159
:103F30002160012110F8016BC7F80C6093F8516003
:103F4000032EFBD0491EF5D2521C9542ECDAF8BD87
:103F5000100801400030014070040020F8B51C46F4
:103F60001546D3B20E46C2B2C9B2C0B200F08AF949
:103F7000200A8DF800008DF8014000200C4C0D4FF8
:103F80000D4BAD1B11E02268694642F400622260CD
:103F90005FF0010211F8016BC7F80C6093F85160F3
:103FA000032EFBD0521EF5D2401C8542EBDAF8BD41
:103FB00010080140003001407004002038B515465B
:103FC000F02827D2F02925D2134C226842F0004273
:103FD0002260CBB2C2B2C9B2C0B200F053F9280A13
:103FE0008DF800008DF801502168684641F40061A9
:103FF00021600A4B0A4A012110F8015BC3F80C50FA
:1040000092F85150032DFBD0491EF5D2206840F4A0
:104010000040206038BD0000100801400030014021
:10402000700400202DE9F8430578441CDFF868800F
:104030004FF0FF392BE020788DF80000D8F8001001
:1040400041F00061C8F800104B4601226946134850
:10405000FEF7D0FB6078A41C00F0800730F08006EB
:104060000CD0D8F8001041F40061C8F800104B469D
:10407000324621460948FEF7BDFB34443FB114F8EF
:10408000010BFF2801D14FF4FA70FFF77DF86D1E88
:10409000EDB2D0D2BDE8F8831008014070040020D2
:1040A000F8B51D46069F1646F0284AD2F02948D298
:1040B0008219521EF02A02DBC0F1F00296B24A19B0
:1040C000521EF02A02DBC1F1F00295B21D4C2268AB
:1040D00042F0004222604A19521ED3B28219521E87
:1040E000D2B2C9B2C0B200F0CDF8380A8DF80000E3
:1040F0008DF80170206840F400602060124F134A70
:1041000019E0304613E02368694643F400632360F6
:104110005FF0010311F801CBC7F80CC092F851C051
:10412000BCF1030FFAD05B1EF4D2401E80B200280F
:10413000E9D16D1EADB2002DE3D1206840F40040FE
:104140002060F8BD100801400030014070040020DC
:10415000F8B51B4C0546206840F000402060EF2376
:1041600000211A46084600F08DF8164F164B002124
:104170004FEA152C05F0FF0E5FF000008DF800C02F
:104180008DF801E025686A4645F400652560012543
:1041900012F8016BC7F80C6093F85160032EFBD046
:1041A0006D1EF5D2401C80B2F028E7D3491C89B2BD
:1041B000F029E1D3206840F400402060F8BD000001
:1041C00010080140003001407004002010B5294C57
:1041D000206840F00040206027490020C860274840
:1041E0000222521ED2B2FCD290F85120032AFBD0F8
:1041F0000022CA600122521ED2B2FCD290F8512095
:10420000032AFBD00022CA600122521ED2B2FCD285
:1042100090F85120032AFBD00022CA600122521ECE
:10422000D2B2FCD290F85120032AFBD00022CA60FF
:104230000121491EC9B2FCD290F851100329FBD0CC
:10424000206840F0805020600A20FEF79DFF206823
:1042500040F4805020600A48FFF7E4FE022000F09E
:1042600061F80A20FEF790FF206840F400402060CB
:1042700010BD000010080140003001407004002013
:10428000187500083EB5002401948DF805000294CD
:10429000224C8DF809102A208DF807208DF80B305C
:1042A0008DF80000206840F0006020604FF0FF357E
:1042B0002B46012269461A48FEF79CFA206840F412
:1042C000006020602B46042201A91548FEF792FAEF
:1042D0002B208DF80000206840F0006020602B4605
:1042E000012269460E48FEF785FA206840F4006016
:1042F00020602B46042202A90948FEF77BFA2C20F5
:104300008DF80000206840F0006020602B460122FC
:1043100069460348FEF76EFA3EBD000010080140F2
:104320007004002038B505462B4C36208DF800006F
:10433000206840F0006020604FF0FF3301226946A2
:104340002648FEF757FA264A2449A5B1012D22D066
:10435000022D30D0032D0DD12368602043F400637B
:104360002360D0600120401EC0B2FCD291F8510001
:104370000328FBD038BD2368C02043F400632360CA
:10438000D0600120401EC0B2FCD200BF91F85100A5
:104390000328FBD038BD2368A02043F400632360CA
:1043A000D0600120401EC0B2FCD200BF91F8510085
:1043B0000328FBD038BD2368002043F4006323604A
:1043C000D0600120401EC0B2FCD200BF91F8510065
:1043D0000328FBD038BD0000100801407004002005
:1043E000003001400FB44A1E2DE9F84FC3F30724F3
:1043F0002244D6B2DDB2421EDDE90FBA2A44D2B25F
:10440000C9B2C0B23346FFF73DFF0023DFF8A490E6
:10441000294E2A4848E00C990E9A203901FB0431B4
:1044200032F8117000213CE007FA01F212041CD5A9
:104430004FEA1B228DF800208DF801B0D9F80080DA
:104440006A4648F40068C9F800804FF0010C00BFCC
:1044500012F8018BC6F80C8090F85180B8F1030F68
:10446000FAD0BCF1010CF3D21AE04FEA1A228DF80F
:1044700000208DF801A0D9F800806A4648F4006851
:10448000C9F800804FF0010C12F8018BC6F80C80BF
:1044900090F85180B8F1030FFAD0BCF1010CF3D2BF
:1044A000491C8D42C0D85B1C9C42B4D8BDE8F80FB3
:1044B0005DF814FB1008014000300140700400203A
:1044C000FEB52A4E089D74683668BAB1012A1BD021
:1044D000022A21D0032A25D0042A29D0052A2DD04A
:1044E000062A31D0072A35D0082A39D0092A12D114
:1044F000CDE90043029533461DA20AE0CDE9004311
:10450000029533461BA204E0CDE9004302953346F1
:1045100019A200F041F8FEBDCDE9004302953346F3
:1045200016A2F6E7CDE900430295334614A2F0E760
:10453000CDE900430295334612A2EAE7CDE90043F4
:104540000295334610A2E4E7CDE9004302953346D5
:104550000EA2DEE7CDE90043029533460CA2D8E770
:10456000CDE90043029533460AA2D2E700000020BD
:10457000390000003000000031000000320000006F
:104580003300000034000000350000003600000059
:1045900037000000380000002DE9FE4F184D064698
:1045A000DDE90DBA286899461446884640F0004077
:1045B0002860DFB21AE0B819F0280BD3C9F307203E
:1045C00000EB08011FFA81F800264044F02810D2C1
:1045D000202A0AD0CDE901BA0C9800904B464146FA
:1045E0003046FFF7FFFEB81986B2641C2278002A15
:1045F000E1D1286840F400402860BDE8FE8F00004B
:104600001008014070B53349887B012860D1086DDE
:10461000314C0328206902DD40F4804001E040F085
:1046200080402061486D0328206902DD40F400408D
:1046300001E040F000402061CD7B4FF400634FF477
:10464000A0605A104DB10D7C092D1FD2DFE805F096
:104650001E0D10130B1B16191D00CD6C072D14DC3D
:10466000CB6C042B0FDC0A6410E04FF480700AE07E
:104670004FF4007007E04FF4407004E04FF4C06066
:1046800001E04FF4E060086400E00B64087A002861
:104690001ED18873114D08206860114A501C127891
:1046A000AA5810F8010C22F001022A500A6C0121CC
:1046B0002846FEF705FC01212846FEF7F5FB0948D0
:1046C000016841F001010160206940F00050206163
:1046D00070BD0000100000200010014000000240EA
:1046E0003C75000800040040704700002DE9F05FB1
:1046F0008E4DB5F904809148DFF834B20223027878
:104700008C4FDFF834C28E488E49DFF83CA201247A
:1047100000264FF0030EB8F1000F2DDDB5F8048030
:10472000A946A8F10108A5F8048031E00578062D16
:1047300036D205786D1C05700578012D04D1032A49
:1047400002D303708CF800300378022B2AD0037850
:10475000032B0AD19AF800305BB30721017004E003
:104760000E7002E0032A00D10C7089F800603C70E2
:104770001E21A9F80210D5E0B5F80280B8F1000FAB
:104780001AD0B5F80280A946A8F10108A5F8028060
:104790002D78012D03D1DBF80050ED04C6D4C1E023
:1047A0000470C9E7022AD2D180F800E08CF80040FA
:1047B000CDE7022AD6D1D3E7644B1A685FEA426C90
:1047C000634A08D40078062813D11078002810D046
:1047D0001078401E0CE0D3F800C05FEA0C6C09D4DE
:1047E000007806287AD11078EF2877D21078401C0C
:1047F000107073E01A689E465FEA8258DFF85491A1
:10480000554A564BDFF858C128D40678032E03D0FA
:10481000007806280BD061E0087832F910000028F3
:104820005CDA087802EB40000188491C2DE04D4815
:104830000078C00701D0118800E0518899F8000085
:1048400008441988401A00F5A070ACF80000BCF9C3
:104850000000DB2842DA1888401E2EE0DEF80080D7
:104860005FEA48582BD40678032E03D00078062838
:104870000DD033E0087832F9100010F1C80F2DDDAB
:10488000087802EB40000188491E018026E0354887
:104890000078C00701D0118800E0518899F8000025
:1048A00008441988401A00F5A070ACF80000BCF963
:1048B0000000142812DD1888401C18800EE0DBF878
:1048C0000000C0040ED42878012807D19AF80010FF
:1048D000504629B106702E70234806703C701FE0C8
:1048E0000470F8E74020FEF701FB8020FEF7FEFA97
:1048F0004FF40070FEF7FAFA4FF48060FEF7F6FA14
:104900004FF40060FEF7F2FA4FF48050FEF7EEFA33
:104910004FF0E020016921F00201016113480470A9
:104920001E206880BDE8F05FFDF720BE7800002003
:10493000080C014019000020170000201C00002076
:10494000210000201D0000201F0000200808014059
:10495000160000201B000020580000203C00002012
:104960003A0000201A0000201800002074000020E7
:10497000254810B5016821F0070141F002010160EE
:10498000016801F007010229FAD1204C206840F4A7
:10499000803020602068C0F340400028FAD0606872
:1049A00020F47C1040F404106060206840F08070B7
:1049B00020602068C0F340600028FAD0606820F0D2
:1049C000F0006060606820F4E06040F48060606047
:1049D000606820F460506060606820F0030040F080
:1049E00002006060606800F00C000828FAD10848F6
:1049F000FEF790FB0020FDF7D3FD606820F44040F7
:104A000040F48040606010BD002002400010024071
:104A100000B4C4040D48016841F00101016041681F
:104A20000B4A1140416001680A4A11400160016867
:104A300021F480210160416821F4FE0141604FF4BE
:104A40001F0181600449C0030860704700100240E4
:104A50000000FFF8FFFFF6FE08ED00E0F0B5026889
:104A6000164B174C174D4FF08047984205D0B8426F
:104A700003D0A04201D0A84203D122F070064A68B8
:104A80003243984205D0B84203D0A04201D0A84298
:104A900003D122F44074CA6822434C6922F0800298
:104AA000224302608A68C2620A688262984201D127
:104AB0000969016301214161F0BD0000002C014042
:104AC000000400400008004010B501F01F03012160
:104AD000046A99408C430462016A9A40114301625E
:104AE00010BD10B5846842EA032224F47F440A43CF
:104AF0002243826010BD826822F070020A4342F0B5
:104B0000070181607047000030B5026A22F001029F
:104B10000262026A4368846924F073050C682C43BE
:104B200022F002058A682A430A4DA8420BD122F0DE
:104B30000805CA6823F440732A434D6922F0040231
:104B40001D438B692B434360846149684163026262
:104B500030BD0000002C014030B5026A22F0100286
:104B60000262026A436884690D6824F4E64444EAF8
:104B700005248D6822F0200242EA05120B4DA8425E
:104B80000ED1CD6822F0800242EA05124D6923F46D
:104B9000406343EA85038D6922F0400243EA8503BE
:104BA0004360846149688163026230BD002C01402A
:104BB00030B5026A22F480720262036A4268C469F4
:104BC00023F4007324F073050C682C438D6843EACA
:104BD00005230C4DA8420ED1CD6823F4006343EAAF
:104BE00005234D6922F4405242EA05128D6923F4EF
:104BF000806342EA05124260C4614968C16303628E
:104C000030BD0000002C014030B5026A22F4805211
:104C10000262046A4268C3690D6823F4E64343EA0A
:104C200005238D6824F4005444EA0534064DA84257
:104C300004D14D6922F4804242EA85124260C36188
:104C400049680164046230BD002C014010B5036A5C
:104C5000046A24F001040462846924F0F00444EA44
:104C6000021423F00A020A438461026210BD10B5E7
:104C7000036A23F0100303628369046A23F4704318
:104C800043EA023224F0A00343EA01118261016287
:104C900010BDFEE72DE9F04FDFF8149285B04FF418
:104CA000805599F80700002449460128C96B22461F
:104CB00001D0804B17E0804B09E000BF33F81200B1
:104CC000A84200DA0546A04200DD0446521C8A4292
:104CD000F4DB0AE033F81200A84200DA0546A042ED
:104CE00000DD0446521C8A42F4DB0020039002904F
:104CF000834601908246009001262046FBF79BFCEC
:104D0000DFF8B481A8F114084746C8F80C0028461B
:104D1000FBF791FC3861281900EB4000440801259D
:104D20004F4677E02846B6B300F082FEA04270DC22
:104D3000681C00F07DFEA0426BDD284600F078FE86
:104D4000261A681C00F074FE001B3044FBF76AFC56
:104D50000646284600F06CFE201AFBF763FC31463D
:104D6000FBF78EFA0646BAF1000F15D02846FBF77E
:104D700059FC3146FBF7FAF90399FBF749FA0BF1B5
:104D8000010B02902846FBF74DFC3146FBF7EEF98C
:104D9000002604903DE009E04FF0010A2846FBF7A9
:104DA00041FC3146FBF7E2F90390EBE700F040FEEF
:104DB000A0422EDB681C00F03BFEA04229DA284608
:104DC00000F036FE061B681C00F032FE201A30444C
:104DD000FBF728FC0646284600F02AFE001BFBF7DE
:104DE00021FC3146FBF74CFA0646BAF1010F0FD110
:104DF0002846FBF717FC3146FBF7B8F90499FBF797
:104E000007FA0199FBF7B2F901900098401C009055
:104E100001266D1CF86B801E854283DB5846FBF72C
:104E200001FC01460298FBF72BFA04460098FBF7B9
:104E3000F9FB01460198FBF723FA05464FF0FF31D5
:104E4000FBF75CFAFBF726FC78841C48F96C50F8F9
:104E500021002146FBF7E2F9FBF74FFC0022184B3B
:104E6000FBF771FB02460B4600201649FBF76BFB74
:104E70000022154BFBF74EFAFBF720FCC8F80400A4
:104E800046462046FBF739FC07460C462846FBF70A
:104E900034FC00220D4BFBF7E4FA3A462346FBF7BD
:104EA00052FBFBF70BFC306005B0BDE8F08F000053
:104EB000100000202415002024050020547500084F
:104EC000000034400000F03F0000E03F00408F4011
:104ED0002DE9F041324C334EE56B606CA6F58057FE
:104EE000A8420CDD6D1E07E036F8151037F81500E6
:104EF0000022FFF763F86D1C606C8542F4DBDFF87D
:104F0000A080002508F15C0838E000BF36F81510D5
:104F100037F815000022FFF751F8E06C0D282CDA65
:104F2000214850F8251008B260860B14A386618AC8
:104F3000E27A401AC8214843E18A90FBF1F0B8F8C0
:104F400000101144081AC830E086A18AC822591AF4
:104F50005143228BE37A91FBF2F1B8F80220C83179
:104F60001A441144218780B227F8150089B226F827
:104F700015104FF4FC62FFF721F86D1CE06B8542C1
:104F8000C4DB60640648B8F8002060300280B8F8DE
:104F900002104180E08A6083208BA083BDE8F0810D
:104FA00010000020241500200C2900202DE9F043DA
:104FB000624AFAB0D06C1146614D8F8C05F50051F4
:104FC00005F5805601F5FA790D2840D0D06C0E28F1
:104FD00073D190794FEA900C9079800701D00CF151
:104FE000010C00206B461FACA7EB0C0707EB000C75
:104FF00035F81C8023F8108036F81CC024F810C047
:10500000401C3E28F2DB9079800700D0907990799F
:1050100000204E4633F8102003EB400521F83020E5
:105020006D8857194FEA570C01EBC007AA42A7F841
:1050300004C045D2A5EB020C4FEAEC780CEB987C4F
:105040004FEAAC0C62447A80A5EB0C0245E0907903
:105050006B464FEA500C00203DACA7EB0C0700BF9D
:1050600007EB000C35F81C8023F8108036F81CC0C4
:1050700024F810C0401C7A28F2DB90799079002047
:105080004FEA090203EB400633F81050768821F806
:1050900020502E44750801EB8006758004EB400516
:1050A00034F810606D8822F82060354402EB8006E9
:1050B0006D08401C75807928E4DB7AB0BDE8F08388
:1050C000A2EB050C4FEAEC780CEB987C4FEAAC0CA9
:1050D000A2EB0C027A8005EB0C02FA8034F8102067
:1050E00004EB400526F830206D8857194FEA570C1D
:1050F00006EBC007AA42A7F804C00CD2A5EB020C2D
:105100004FEAEC780CEB987C4FEAAC0C62447A8066
:10511000A5EB0C020CE0A2EB050C4FEAEC780CEBD3
:10512000987C4FEAAC0CA2EB0C027A8005EB0C02E7
:10513000401CFA803D28FFF66DAFBEE7100000204E
:1051400024050020002809DB00F01F020121914006
:105150004009800000F1E020C0F800117047090705
:10516000090E002804DB00F1E02080F800147047ED
:1051700000F00F0000F1E02080F8141D70470907CF
:10518000090E002804DB00F1E02080F800147047CD
:1051900000F00F0000F1E02080F8141D704702E0DD
:1051A00008C8121F08C1002AFAD1704770470020B2
:1051B00001E001C1121F002AFBD170470EB5FDF7B7
:1051C000DDF9FFF7D5FBFEF78BFBFE48416941F0A7
:1051D00001014161406900F001000090FA48006857
:1051E0000022C0F302201146FEF72EFD01460B20DF
:1051F000FFF7B5FF0B20FFF7A5FF002211460D209A
:10520000FDF71AFA0D20FDF709FAFEF7A7FAFEF7E7
:1052100025FBFEF785FCFEF7D5FCFEF79DFCEB4C6D
:10522000A06840F00100A060A06840F00400A06009
:10523000A068C0F380000028FAD10A20FDF7A4FF7F
:10524000E34DA86840F00100A860A86840F00400A1
:10525000A860A868C0F380000028FAD10A20FDF7F2
:1052600093FFFEF7B3FF0020FEF772FFDFF86493B1
:105270004FF0010889F80E80D849D448A9F8308049
:105280000E46D54A4C3009780832D34F88503178D1
:10529000121DD3488850D21401213846FDF710FE64
:1052A00030783858317840F0020078500121384683
:1052B000FDF7FAFDA06840F48010A060A86840F4F3
:1052C0008010A860C749086840F001000860002607
:1052D0004FF6FF75C448CDE9015641680091036857
:1052E000C2A266211820FFF757F9C44CCDE9015638
:1052F00060680090C2A2822132202368FFF74CF937
:105300004FF4FA673846FDF73FFFCDE90156606874
:105310000090C1A282212E202368FFF73DF9384674
:10532000FDF732FFCDE9015660680090C0A28221EE
:1053300032202368FFF730F940F2DC50FDF724FFFC
:105340000020FEF705FFC820FDF71EFF0C21BE4818
:10535000FDF7B2FCBD48016941F40051016109F15A
:105360003A0A4D460027687A012801D16E7201275A
:10537000E87B012803D0687C07287DD0DFE1E8784E
:1053800000287AD1E86C0C2801DD0C20E864687CE8
:10539000022801D907206874DFF8B492002409F5C7
:1053A000F17B00BF09EB440139F91400B1F9021097
:1053B0000023224600F010FB0BEB44013BF91400E4
:1053C000B1F902100023224600F006FB641CF02C09
:1053D000E8DB00231E2215211846FEF7BFFD00233F
:1053E0001E221521EF20FEF7B9FD0023DB22D2217A
:1053F0001846FEF7B3FD0023DB22D221EF20FEF793
:10540000ADFD0023152209211846FEF777FD002384
:105410001522EF21E620FEF771FD0023DB22092192
:105420001846FEF76BFD0023DB22EF21E620FEF796
:1054300065FD1223462200216E200096FEF730FE05
:105440002A790023911E1846921CFEF787FD2A79BF
:105450000023911E0120921CFEF780FD2A79002373
:10546000511E0220521CFEF779FD002229790320EB
:10547000FEF7A4FD002301E05FE129E06A79EF2057
:10548000911E921CFEF76AFD6A790023911EEE20A0
:10549000921CFEF763FD6A790023511EED20521C19
:1054A000FEF75CFD00226979EC20FEF787FD494894
:1054B0006FF063014830018041807820A885A87191
:1054C000444685F80C80FDF76FFEFBF71DFAEC7083
:1054D000A87B012843D0002F40D0287A00286FD025
:1054E0004FF4784423461E2215210020FEF736FD96
:1054F00023461E221521EF20FEF730FD2346DB2236
:10550000D2210020FEF72AFD2346DB22D221EF2004
:10551000FEF724FD2346152209210020FEF7EEFCAC
:1055200023461522EF21E620FEF7E8FC2346DB2286
:1055300009210020FEF7E2FC2346DB22EF21E620D2
:10554000FEF7DCFCFFF7A6FBFEF798FBFDF72CFE51
:10555000FBF7DAF9FFF7BCFCFBF7A8FA3FE1287A82
:1055600078B34FF4784423461E2215210020FEF71D
:10557000F5FC23461E221521EF20FEF7EFFC234603
:10558000DB22D2210020FEF7E9FC2346DB22D221D8
:10559000EF20FEF7E3FC2346152209210020FEF749
:1055A000ADFC23461522EF21E620FEF7A7FC23469B
:1055B000DB2209210020FEF7A1FC2346DB2249E083
:1055C0008FE04FE0001002400CED00E000240140AD
:1055D0000028014010000020000002403C75000837
:1055E0000C29002000040040080000204F534349CC
:1055F0004C4C4F53434F504500000000000000202A
:1056000053616D706C696E67205261746520314D15
:1056100053612F73000000002020202020202056FE
:10562000616E616E39322020202020202000000091
:105630002020202020202056312E322E32202020E3
:105640002020202000000000C8040020001001409D
:10565000AC000020EF21E620FEF750FC002F7FF485
:1056600071AFBCE000231E2215211846FEF776FC20
:1056700000231E221521EF20FEF770FC0023DB2201
:10568000D2211846FEF76AFC0023DB22D221EF204C
:10569000FEF764FC0023152209211846FEF72EFCB4
:1056A00000231522EF21E620FEF728FC0023DB2251
:1056B00009211846FEF722FC0023DB22EF21E62019
:1056C000FEF71CFCFFF7E6FAFDF76EFDFBF71CF991
:1056D000FFF7FEFBFBF7EAF9FEF794FF286CE8639F
:1056E0007DE000231E2215211846FEF737FC00231B
:1056F0001E221521EF20FEF731FC0023DB22D221F0
:105700001846FEF72BFC0023DB22D221EF20FEF708
:1057100025FC0023152209211846FEF7EFFB002384
:105720001522EF21E620FEF7E9FB0023DB22092109
:105730001846FEF7E3FB0023FFE685F81180E878C2
:1057400001284CD1DFF888920024A9F5805B07E09E
:1057500039F814103BF814000022FEF72FFC641CEB
:10576000686C8442F4DB00231E2215211846FEF7E4
:10577000F5FB00231E221521EF20FEF7EFFB00238F
:10578000DB22D2211846FEF7E9FB0023DB22D221DF
:10579000EF20FEF7E3FB0023152209211846FEF750
:1057A000ADFB00231522EF21E620FEF7A7FB002327
:1057B000DB2209211846FEF7A1FB0023DB22EF21A3
:1057C000E620FEF79BFB1223462200215020009684
:1057D000FEF766FCFDF7E8FCFBF796F8EE70287B19
:1057E0002C4601280AD0207B022850460BD0067098
:1057F0008AF80180207A01280AD00BE08AF800801C
:105800008AF80180F6E780F800808AF80160F1E705
:10581000E07B18B16078012843D044E084F801802F
:10582000002F3FF49FADFEF729FAFDF7BDFCFBF713
:10583000F9FA4FF478473B461E2215210020FEF767
:105840008DFB3B461E221521EF20FEF787FB3B46D2
:10585000DB22D2210020FEF781FB3B46DB22D22156
:10586000EF20FEF77BFB3B46152209210020FEF7C7
:1058700045FB3B461522EF21E620FEF73FFB3B466A
:10588000DB2209210020FEF739FB3B46DB22EF211A
:10589000E620FEF733FB61E0FBF7DEFFFBF706F9DE
:1058A00060E5E07B18B1A07B01284AD04BE0FEF711
:1058B000A9FE00231E2215211846FEF74FFB0023E8
:1058C0001E221521EF20FEF749FB0023DB22D22107
:1058D0001846FEF743FB0023DB22D221EF20FEF720
:1058E0003DFB0023152209211846FEF707FB002384
:1058F0001522EF21E620FEF701FB0023DB22092120
:105900001846FEF7FBFA0023DB22EF21E620FEF724
:10591000F5FA8FB1FEF7B2F9FDF746FCFBF782FA14
:10592000607C04280AD0FAF7EFFFFBF701FB00BF09
:10593000FBF792FFFBF7BAF8667013E5FBF73EFD45
:10594000F6E7E07B90B1002FAAD0E07B0028A7D13A
:10595000FEF794F9FDF728FCFBF764FA607C042855
:1059600033D0FAF7D1FFFBF7E3FA95E7184BA6849B
:10597000DFF860C0A3F58057E26B08E05CF8201008
:1059800027F81010090C23F81010401CA084A08CDC
:105990009042F3DBFFF77EF9FEF770F9FDF704FCA8
:1059A000FBF740FAE06C062802DAFBF707FD03E09C
:1059B000FAF7AAFFFBF7BCFAFBF74EFFFBF776F806
:1059C000FEF720FE206CE063CCE4FBF7F7FC63E716
:1059D000241500200C29002030B41446134AD57A2F
:1059E000C635A84201DDD07AC730D57A6D1CA842F1
:1059F00001DAD07A401CD57AC635A94201DDD17AC8
:105A0000C731D57A6D1CA94201DAD17A491C074AFF
:105A100088421278224414B202DA0A46014600E0B3
:105A20000246204630BCFEF799BA00001000002064
:105A30000849C97901290BD0074900BF01EB400291
:105A400031F8100032F8023C51881844084470477D
:105A50000249F3E71000002024150020240500204F
:105A60000000000000000000000000000000000036
:105A700000000000001000100010001000100010C6
:105A8000000000100000000000280028002800008E
:105A900000000000000000000000000000240024BE
:105AA000007C00240048007C004800480000000002
:105AB00000380054005000380014005400540038DE
:105AC000001000000020005400580030002800544E
:105AD000001400080000000000100028002800103A
