:020000040800F2
:10000000504D0020050100088F3A0008B52C00086B
:100010008D3A0008710800088348000800000000BD
:10002000000000000000000000000000B5430008D0
:100030006D19000800000000C33A0008B943000829
:100040001F0100081F0100081F0100081F01000810
:100050001F0100081F0100081F0100081F01000800
:100060001F0100081F0100081F0100087508000893
:100070001F010008BD0800081F0100081F0100083B
:100080001F0100081F0100081F0100081F010008D0
:100090001F0100081F0100081F0100081D1C0008A7
:1000A0001F0100081F0100081F0100081F010008B0
:1000B0001F0100081F0100081F0100081F010008A0
:1000C0001F0100081F0100081F0100081F01000890
:1000D0001F0100081F0100081F0100081F01000880
:1000E000711900081F0100081F010008DFF810D077
:1000F00000F0ACFB00480047B54C0008AFF30080AF
:10010000504D00200648804706480047FEE7FEE7BE
:10011000FEE7FEE7FEE7FEE7FEE7FEE7FEE7FEE7B7
:1001200005460008ED000008202A04DB203A21FAE9
:1001300002F00021704721FA02F3D040C2F1200200
:100140009140084319467047D2B201E000F8012BF4
:10015000491EFBD270470022F6E710B513460A4647
:1001600004461946FFF7F0FF204610BDF0B480EAC0
:100170000102D40F4200B2EB410F02D20246084600
:1001800011464A0042D0C30DDDB2C1F3C752AD1AC9
:10019000202D35DAC1F3160141F4000204B15242B8
:1001A000C5F1200602FA06F12A411044B3EBD05FF4
:1001B00023D0C4B1012DA0EBC35009DCF0BC4FF03B
:1001C000004202EAC352DBB200F5000000F0B2BA0E
:1001D000400000F1807000EBC350A0F1807040EA55
:1001E000D170490009E0490841EAC071A0EBC35051
:1001F00000F50000400800EBC350F0BC00F091BADD
:100200006142012202EB4101001BF6E7F0BC70479E
:1002100081F00041AAE780F00040A7E780EA0102F0
:1002200010B502F00043400022D04A001FD0010E5A
:1002300001EB1261C0F35600C2F3560240F4000015
:1002400042F40002A0FB022000047F39140400D015
:10025000401C50EA124001D44000491EC2B20C06B4
:1002600004EBD010401C4008802A02D003E000209C
:1002700010BD20F00100002900DA0020184310BD55
:1002800030B480EA010202F0004530F0004221F073
:10029000004013D090B1C30DD40DC2F31601C0F3CA
:1002A0001600E41A41F4000140F400027D3491424A
:1002B00001D3641C00E04900002C02DA30BC0020AD
:1002C00070474FF400000023914201D3891A034381
:1002D00040084FEA4101F7D151B1914202D14FF0AC
:1002E000004105E002D24FF0010101E06FF0010191
:1002F00003EBC450284430BC00F013BA2DE9FE4F84
:10030000804681EA0300C00F0C46009021F00041B6
:1003100023F00045B8EB0200A94105D24046214632
:1003200090461C460B46024623F00040104347D03F
:10033000270DC7F30A00C3F30A510290401A019037
:1003400040286BDAC3F3130040F4801B00989246F8
:1003500020B10023D2EB030A63EB0B0B0198594643
:10036000C0F14002504600F0BBF906460D4650462B
:100370005946019A00F0C3F910EB080061410024CE
:1003800087EA115284EAE7731A4340D0009A62B3B5
:10039000019A012A4FEA075215DC001B61EB0201AA
:1003A0004FF0004202EA0752CDE90042001C41F53D
:1003B000801132462B4600F0FAF903B0BDE8F08F09
:1003C00040462146F9E7001B61EB0201001C41F5A4
:1003D000801300185B412018A2F5001747EB0301BA
:1003E00040EAD570B6196D4111E06D084FEA360646
:1003F00045EAC0754FEA0752001B61EB0201001C81
:1004000041F5801149084FEA300000195141324648
:100410002B4603B0BDE8F04F00F0BAB900980122B6
:1004200040000023D0EB020263EBE073009821460A
:100430004FEAE074B8EB000061EB0401E9E783F0F8
:1004400000435BE781F0004158E72DE9FE4F81EA68
:10045000030404F0004421F0004100944FF0000B2D
:1004600023F0004350EA01045ED052EA03045BD05B
:10047000C3F30A54C1F30A552C44A4F2F334019493
:10048000A0FB0254C1F3130141F48011C3F3130321
:1004900043F4801301FB024400FB034E840A970AD5
:1004A00044EA815447EA8357A4FB076802958D0A02
:1004B00005FB07854FEA932C04FB0C542705029D8E
:1004C0004FEA065847EA1637B5EB08056EEB070CFE
:1004D000870E920E47EA811742EA8312A7FB0201B8
:1004E000B6EB0B0164EB00042B0D43EA0C335E18F2
:1004F00044EB1C50DA465146E7FB0201C5F31304F6
:100500004FEA0B3343EA14534FEA0432019C43EAA7
:100510000603A4F10C040294009CCDE900B400F0A1
:1005200046F903B0BDE8F08F00200146F9E72DE958
:10053000F04D81EA030404F0004B21F0004514461D
:100540004FF0000A23F0004150EA050220D054EA9F
:1005500001021DD0C5F30A570246C5F31303C1F3C8
:100560001300C1F30A5640F4801543F48013A7EB3F
:100570000608101BD64608F2FD3873EB050002D3BF
:1005800008F1010801E092185B41B8F1000F03DAAD
:1005900000200146BDE8F08D00204FF48011064692
:1005A00084460EE0171B73EB050705D3121B63EBA4
:1005B000050306434CEA010C49084FEA3000921843
:1005C0005B4150EA0107EDD152EA030012D082EA02
:1005D000040083EA0501084305D0101BAB4106D295
:1005E0000122002306E000224FF0004302E06FF0FA
:1005F000010253101AEB06004CEB085110EB0A00F5
:1006000041EB0B01BDE8F04D00F0C2B8C10F80EA2C
:10061000E0700844CA079623002100F08BB89623A7
:100620000022114600F086B80EB5C10F80EAE070D6
:100630000844CA07002140F233438DE80E000A4601
:100640000B4600F0B4F803B000BD00F0004220F00B
:100650000040C10DC0F3160040F400007F2901DA0C
:1006600000207047962903DCC1F19601C84001E0E3
:1006700096398840002AF4D04042704770B5C1F3E3
:100680000A5201F000450024C1F3130140F2FF3388
:1006900041F480119A4201DA002070BD40F23343E8
:1006A0009A42A2F2334203DC5242FFF73DFD00E0E2
:1006B00090402C43F1D0404270BD00F0004230F039
:1006C00000400AD0C10D01F56071C0F3160042EA86
:1006D0000151C2084007114370470020014670478E
:1006E000202A04DB203A00FA02F1002070479140F2
:1006F000C2F1200320FA03F3194390407047202AE7
:1007000006DBCB17203A41FA02F043EAE07306E039
:1007100041FA02F3D040C2F1200291400843194649
:1007200070470029A8BF7047401C490008BF20F04F
:100730000100704710B4B0FA80FC00FA0CF050EAE7
:10074000010404BF10BC704749B1CCF1200421FA68
:1007500004F411FA0CF118BF012121430843A3EB63
:100760000C01CB1D4FEA00614FEA102042BF002070
:1007700010BC704700EBC35010440029A4BF10BC4C
:100780007047401C490008BF20F0010010BC7047B2
:1007900010B5141E73F1000408DA401C41F1000189
:1007A00092185B411A4301D120F0010010BD2DE9E0
:1007B000F04D92469B4611B1B1FA81F202E0B0FAD7
:1007C00080F220329046FFF78BFF04460F4640EA46
:1007D0000A0041EA0B0153465A46084313D011461A
:1007E00053EA010019D0C8F140025046FFF79CFCC3
:1007F00005460E46504659464246FFF771FF0843EC
:1008000005D0012004E020463946BDE8F08D0020E7
:10081000054346EAE0762C4337430A986305E40A29
:10082000A0EB08000022FD0A44EA47540A3002D532
:1008300000200146E9E7010510196941DDE9084595
:1008400000196941BDE8F04DA2E70000064C074DD4
:1008500006E0E06840F0010394E807009847103490
:10086000AC42F6D3FFF746FCEC6C00080C6D0008B8
:10087000FEE700000D48016821F0010101600C480D
:100880000168C1F3400100290ED002210268C2F3C1
:1008900040020AB14160F9E70649012008700648A4
:1008A000016941F4005101617047000000040040FB
:1008B000000002401000002000100140014801F03B
:1008C00037BC0000084900202DE9F04140F66104E2
:1008D00023461422EF21002003F0EAF923462822C0
:1008E000EF21002003F0E4F923463C22EF21002011
:1008F00003F0DEF923465022EF21002003F0D8F95F
:1009000023466422EF21002003F0D2F943F286153A
:100910002B467822EF21002003F0CAF923468C22CF
:10092000EF21002003F0C4F92346A022EF2100208C
:1009300003F0BEF92346B422EF21002003F0B8F9FA
:100940002346C822EF21002003F0B2F92346DC221F
:10095000EF21002003F0ACF92346DB2214212820EC
:1009600003F0D6F92346DB221421502003F0D0F9FE
:100970002B46DB221421782003F0CAF92346DB2220
:100980001421A02003F0C4F92346DB221421C8203F
:1009900003F0BEF914212346DB22084603F0B8F920
:1009A0002346DB2214213C2003F0B2F92346DB224C
:1009B0001421642003F0ACF92346DB2214218C209F
:1009C00003F0A6F92346DB221421B42003F0A0F99A
:1009D0002346DB221421DC2003F09AF9224DB5F9DD
:1009E00028001438C7280BD80024601C01B200234B
:1009F000B5F9282020B203F05BF9241DF02CF4DBBC
:100A0000B5F9160048F2304614280FDBB5F9160088
:100A1000DB280BDC0024B5F916203346601C01B23C
:100A200020B203F045F9241DF02CF4DBE88A288578
:100A3000E879A8731424B046601C02B221B20023E6
:100A400017460E46B5F92A0003F062F943463A46C6
:100A50003146A87B03F05CF9241DDB2CECDBA87B82
:100A60006885BDE8F0810000100000202DE9FE4FF0
:100A7000CB4C207A012817D04FF4FC60A084277A51
:100A8000DFF824934FF06635C64ED9E90501FFF72C
:100A9000BFFBFFF7DAFDFFF7C7FD2A463346FFF736
:100AA000D4FC012F03D005E04FF61F00E6E7226CCF
:100AB000032A05DC227A022A05D1626C032A02DDB0
:100AC000BA4ABB4B01E0BB4ABB4BFFF730FDFFF717
:100AD000D5FDDFF8E8A24FF47A7B0026054658459D
:100AE000DAE90030A18C4FF064088DE84300B4A22D
:100AF0004FF0E60122DA212003F0D0FB474695FBB8
:100B0000F7F20096A38CE6211C2003F05BFB95FB1B
:100B1000F7F007FB10510A2091FBF0F20096A38C2E
:100B2000E621272003F04EFB95FBF7F007FB105161
:100B30000A2091FBF0F200FB12121FE0282003F0C4
:100B4000ADFB5F4695FBF7F20096A38CE6211C20D7
:100B500003F038FB95FBF7F007FB105191FBF8F21F
:100B60000096A38CE621232003F02CFB95FBF7F0E5
:100B700007FB105191FBF8F208FB12120096A38CB0
:100B8000E6212E2003F01EFB4F46D9F80400D9467B
:100B9000484501DDC7F80490A08CCDE90106DAF8DC
:100BA00004000090554687A2E6217F20DAF8003045
:100BB00003F074FB7968009691FBF8F2A38CC346AE
:100BC000E621732003F0FEFA79684FF00A0A91FBE0
:100BD000F8F208FB121191FBFAF20096A38CE621C1
:100BE0007A2003F0EFFA7968009691FBF8F208FB9F
:100BF000121191FBFAF20AFB1212A38CE621842057
:100C000003F0E0FAA08CCDE90106686800906EA2BE
:100C1000E6218B202B6803F041FBB8686B4A411E2C
:100C200091427CD26A49002790FBF1F28046002A6B
:100C300007DD0096A38C0127E621C52003F0C2FA48
:100C40000AE0A08CCDE901066868009061A2E62167
:100C5000C5202B6803F022FB5D4998FBF1F201FBF4
:100C6000128842F2107198FBF1F2002A01DD01278F
:100C700000E037B10096A38CE621CC2003F0A2FA65
:100C80000AE0A08CCDE901066868009051A2E62137
:100C9000CC202B6803F002FB42F2107198FBF1F2BA
:100CA00001FB128898FBF9F2002A01DD012700E020
:100CB00037B10096A38CE621D32003F083FA0AE033
:100CC000A08CCDE901066868009042A2E621D320FD
:100CD0002B6803F0E3FA98FBF9F209FB1288D94676
:100CE00098FBF9F2002A01DD012700E037B10096F8
:100CF000A38CE621DA2003F065FA0AE0A08CCDE9A6
:100D000001066868009033A2E621DA202B6803F020
:100D1000C5FA98FBF9F209FB1288D14600E034E0ED
:100D200098FBF9F2002A01DD012700E037B10096B7
:100D3000A38CE621E12003F045FA0AE0A08CCDE97E
:100D400001066868009023A2E621E1202B6803F0E9
:100D5000A5FA98FBF9F209FB1282002A00DC3FB1E8
:100D60000096A38CE621E82003F02CFABDE8FE8F64
:100D7000A08CCDE901066868009017A2E621E82062
:100D8000D5F8003003F08AFAF0E7A08CCDE901062F
:100D900068680090E62111A2C5202B68F2E70000E8
:100DA0001000002066660A40040500203417B83C95
:100DB000D6CCF33F9A999999997924400000002064
:100DC0002E0000002E200000250000003E420F00F3
:100DD000A0860100200000002D000000202020201F
:100DE0002020000010B5414CA078C0073FD04FF63E
:100DF0001F006084A0784FF0000302281A4639D9FA
:100E00007D21792002F054FF00230A2277217320EC
:100E100002F04EFF002304227921772002F048FFE0
:100E2000002306227B21752002F042FF638C002202
:100E30007721732002F03CFF638C0A220021782086
:100E400002F066FF638C0A227D21792002F030FFD8
:100E5000638C06227921772002F02AFF638C052219
:100E60007A21762002F024FF638C042238E04FF4CC
:100E7000FC60BEE77721732002F01AFF00230A22EC
:100E80007D21792002F014FF0023062279217720AA
:100E900002F00EFF002304227B21752002F008FFE0
:100EA000638C00227D21792002F002FF638C0A22EC
:100EB0000021782002F02CFF638C0A227721732016
:100EC00002F0F6FE638C04227921772002F0F0FE16
:100ED000638C05227A21762002F0EAFE638C0622DA
:100EE0007B21BDE81040752002F0E2BE100000201A
:100EF0002DE9F05FFE4CA68DA06B864201DBA06B56
:100F0000361A0020E08520860546E07BDFF8E08386
:100F1000DFF8E0B308F11408371808F1440908F1C4
:100F2000400AA06B874200DB0027A06B864200DBF3
:100F3000002698F8000018B33BF91500C82250436A
:100F4000A28B0BEB450190FBF2F0E085B1F90210AA
:100F5000C8225143A28B91FBF2F12186B9F80020FF
:100F600023791344181AC83000B2608623791A44D2
:100F7000511AC83109B2A18600232A4604F0DCF8D0
:100F800098F8010020B3DC49C82231F9150050431C
:100F9000228C01EB450190FBF2F0E085B1F90210E3
:100FA000C8225143228C91FBF2F12186B9F802202C
:100FB00023791344181AC83000B2608623791A4482
:100FC000511AC83109B2A18600232A4604F0B4F8A8
:100FD000A0780128C64800F1360025D00078002806
:100FE0007ED0A06C0D287CDADFF810C3228A3CF892
:100FF0001600C0F30B00801AC82300FB03F1638BBB
:1010000091FBF3F1E1853CF81710C1F30B018B1A4A
:10101000C82103FB01F2618BEF2D92FBF1F12186D8
:101020002BF815007ED001E14078E8B3A06C0D28C4
:1010300023DADFF8CCC2628A3CF81600C0F30B005A
:10104000801AC82300FB03F1E38B91FBF3F1E185E8
:101050003CF81710C1F30B018B1AC82103FB01F2F6
:10106000E18BEF2D92FBF1F12186A34921F81500C8
:101070002ED10846A0F8E0312AE0DFF888C2618A64
:101080003CF81500C0F30B00401AC82300FB03F224
:10109000E38B92FBF3F2E2850CEB45025288C2F33C
:1010A0000B02521AC82300E02AE05A43E38BEF2DCB
:1010B00092FBF3F22286904A22F8150008D160468E
:1010C000B0F8E001C0F30B00401A1146A1F8E001AE
:1010D000BAF8021020790A18E08D101AC83001E021
:1010E000B9E079E000B2608622794FF4FC631144E4
:1010F000228E891AC83109B2A1862A4604F01CF84A
:101100007B483630007800287ED0A06C0D2824DA89
:10111000DFF8E8C1228A3CF81600C0F30B00801A01
:10112000C82300E054E000FB03F1638B91FBF3F173
:10113000E1853CF81710C1F30B018B1AC82103FBA2
:1011400001F2618BEF2D92FBF1F121862BF8150056
:101150002BD16848A0F8E03127E0DFF8ACC1218A44
:101160003CF81500C0F30B00401AC82300FB03F243
:10117000638B92FBF3F2E2850CEB4502C8235288A5
:10118000C2F30B02521A5A43638BEF2D92FBF3F218
:1011900022862BF8150008D16046B0F8E001C0F3B4
:1011A0000B00401A5349A1F8E001BAF80010207969
:1011B000E28D0844801AC83000B2608622794FF66A
:1011C0001F031144228E891AC83109B2A186B9E0E1
:1011D0004848A0F8E03129E0DFF82CC1218A3CF82A
:1011E0001500C0F30B00401AC82300FB03F2638B09
:1011F00092FBF3F2E2850CEB4502C8235288C2F35E
:101200000B02521A5A4300E068E0638BEF2D92FB09
:10121000F3F222862BF8150008D16046B0F8E00101
:10122000C0F30B00401A3349A1F8E001BAF80010EE
:101230002079E28D0844801AC83000B26086227995
:101240004FF61F031144228E891AC83109B2A186B4
:101250002A4603F071FF264836304078F0B3A06C80
:101260000D2823DADFF898C0628A3CF81600C0F334
:101270000B00801AC82300FB03F1E38B91FBF3F111
:10128000E1853CF81710C1F30B018B1AC82103FB51
:1012900001F2E18BEF2D92FBF1F12186164921F845
:1012A00015003DD10846A0F8E03139E0DFF854C020
:1012B000618A3CF81500C0F30B00401AC82300FBFC
:1012C00003F2E38B92FBF3F2E2850CEB4502C823B9
:1012D0005288C2F30B02521A5A4300E035E0E38B06
:1012E000EF2D92FBF3F22286034A22F815000DE05F
:1012F00010000020A0000020820200202005002015
:1013000020150020142700202025002008D1604649
:10131000B0F8E001C0F30B00401A1146A1F8E0015B
:10132000BAF802102079E28D0844801AC83000B261
:10133000608622794FF4FC631144228E891AC831E9
:1013400009B2A1862A4603F0F7FEE07B0644E07B63
:101350006D1C0744F02DFFF6E4ADBAF80020A9F8A3
:101360000020BAF80200A9F80200608BA083E08B8D
:101370002084BDE8F09F00002DE9F05FF64CA58DBC
:10138000A06B854201DBA06B2D1A0020DFF8C8831B
:10139000DFF8C8A3E08508F11408208606466F1C14
:1013A00008F144090AF5F17BA06B874200DB0027B6
:1013B000A06B854200DB002598F8000018B33AF9CD
:1013C0001600C8225043A28B0AEB460190FBF2F0B4
:1013D000E085B1F90210C8225143A28B91FBF2F1D2
:1013E0002186B9F8002023791344181AC83000B2B6
:1013F000608623791A44511AC83109B2A1860023A4
:10140000324603F099FE98F8010018B33BF9160034
:10141000C8225043228C0BEB460190FBF2F0E08592
:10142000B1F90210C8225143228C91FBF2F12186BE
:10143000B9F8022023791344181AC83000B2608624
:1014400023791A44511AC83109B2A18600233246C1
:1014500003F072FE6D1C761C7F1CF02EA4DBFFF7E0
:1014600033FAA68DA06B864201DBA06B361A0020F2
:10147000DFF8E482E08520860546771C08F15408F1
:10148000A0780128B44800F1360025D00078002863
:101490007ED0A06C0D287CDADFF8C4C2228A3CF82A
:1014A0001600C0F30B00801AC82300FB03F1638B06
:1014B00091FBF3F1E1853CF81710C1F30B018B1A96
:1014C000C82103FB01F2618BEF2D92FBF1F1218624
:1014D0002AF815007ED0FFE04078E8B3A06C0D2814
:1014E00022DADFF880C2628A3CF81600C0F30B00F3
:1014F000801AC82300FB03F1E38B91FBF3F1E18534
:101500003CF81710C1F30B018B1AC82103FB01F241
:10151000E18BEF2D92FBF1F121862BF815002DD1F7
:101520009148A0F8E03129E0DFF840C2618A3CF838
:101530001500C0F30B00401AC82300FB03F2E38B35
:1015400092FBF3F2E2850CEB4502C8235288C2F30A
:101550000B02521A5A4300E028E0E38BEF2D92FB76
:10156000F3F222862BF8150008D16046B0F8E001AE
:10157000C0F30B00401A7C49A1F8E001B8F8021052
:1015800020790A18E08D101AC83000B2608601E098
:10159000B7E077E022794FF4FC631144228E891A78
:1015A000C83109B2A1862A4603F0C6FD6A48363022
:1015B000007800287ED0A06C0D2824DA684A238A9F
:1015C0004FF0C80C32F81600C0F30B00C01A00FB35
:1015D0000CF100E052E0B4F81AC091FBFCF1E18597
:1015E00032F81710C822C1F30B01C91A638B4A43A2
:1015F00092FBF3F222862AF81500EF2D2BD15748E3
:10160000A0F8E01127E0DFF868C1228A3CF8150055
:10161000C0F30B00801AC82300FB03F1638B91FB1E
:10162000F3F1E1850CEB4501C8234988C1F30B01B7
:10163000891A5943638BEF2D91FBF3F121862AF828
:10164000150008D160464549B0F8E001C0F30B0031
:10165000801AA1F8E001B8F800102079E28D084462
:10166000801AC83000B2608622794FF61F031144F9
:10167000228E891AC83109B2A186B5E03748A0F890
:10168000E03129E0DFF8E8C0218A3CF81500C0F31A
:101690000B00401AC82300FB03F2638B92FBF3F2AA
:1016A000E2850CEB4502C8235288C2F30B02521AA2
:1016B0005A4300E04FE0638BEF2D92FBF3F222865A
:1016C0002AF8150008D16046B0F8E001C0F30B001D
:1016D000401A2249A1F8E001B8F8001020790A1850
:1016E000E08D101AC83000B2608622794FF61F03D1
:1016F0000A44218E511AC83109B2A1862A4603F044
:101700001BFD15483630407828B3A06C0D2831DA1F
:10171000144A638A4FF0C80C32F81600C0F30B006D
:10172000C01A00FB0CF1B4F81EC091FBFCF1E1857E
:1017300032F81710C822C1F30B01C91AE38B4A43D0
:1017400092FBF3F222862BF81500EF2D3AD10648D2
:10175000A0F8E01136E04AE010000020A0000020D0
:1017600020050020201500208202002014270020E0
:1017700020250020DFF8A0C0628A3CF81500C0F3E5
:101780000B00801AC82300FB03F1E38B91FBF3F1FC
:10179000E1850CEB4501C8234988C1F30B01891A87
:1017A0005943E38BEF2D91FBF3F121862BF81500C4
:1017B00008D160461949B0F8E001C0F30B00801A67
:1017C000A1F8E001B8F802102079E28D0844801AEF
:1017D000C83000B2608622794FF4FC630A44218E3F
:1017E000511AC83109B2A1862A4603F0A5FC6D1C26
:1017F000761C7F1CF02DFFF643AEB8F80020A9F848
:101800000020B8F80200A9F80200608BA083E08BEA
:101810002084BDE8F09F00001427002082020020F1
:101820002DE9F041504DA5F114042878C8B1227B70
:101830000023911E1846921C02F06AFA227B0023B4
:10184000911E0120921C02F063FA227B0023511E9C
:101850000220521C02F05CFA0022217B032002F0DD
:1018600087FA6878C8B1627B0023911EEF20921C32
:1018700002F04EFA627B0023911EEE20921C02F0D1
:1018800047FA627B0023511EED20521C02F040FA01
:101890000022617BEC2002F06BFA334F6078403716
:1018A000A7F11E0603282AD239882079C8300844B7
:1018B00000B2E0852073317809B3811C0AB2801E22
:1018C0004FF61F0801B24346002002F021FAE08DD6
:1018D0004346811C0AB2801E01B2012002F018FAB0
:1018E000E08D4346411C0AB2401E01B2022002F0C4
:1018F0000FFAE08D424681B2032002F039FA3078C7
:101900002870607802282AD079882079C830084465
:1019100000B220866073717809B3811C0AB2801E00
:101920004FF4FC6701B23B46EF2002F0F1F9208E44
:101930003B46811C0AB2801E01B2EE2002F0E8F99B
:10194000208E3B46411C0AB2401E01B2ED2002F03F
:10195000DFF9208E3A4681B2EC2002F009FA707865
:101960006870BDE8F081000024000020704700008E
:101970002DE9F05F4FF4806001F0C0FADFF85CB24F
:10198000974EDFF86092984C01254FF0020A4FF411
:1019900096774FF0000800287CD0A80201F04EFA9C
:1019A0009249A8020860924A137892489249012B02
:1019B00016D01378022B31D092F800C08F4BBCF1B7
:1019C000030F58D092F800C0BCF1040F63D092F816
:1019D00000C0BCF1050F75D01278062A73D0A3E0C1
:1019E000874A1368062B45DA13685B1C136000787E
:1019F000C0073CD08048B0F900007838FEF706FEFA
:101A00007F4A77491268091D01EB820151F8041CD5
:101A1000FEF704FC72497A4A091D1CE0794A1368F2
:101A2000062B27DA13685B1C13600078C0071ED1F1
:101A30007148B0F900007838FEF7E8FD714A68494E
:101A40001268091D01EB820151F8041CFEF7E6FB48
:101A500063496C4A091D126851F82210FEF710FC08
:101A60006949FEF783FBFEF7F0FD6349088067498B
:101A700081F8008058E09BF80010584633F91110A7
:101A800011F1C80F4FDD007803EB40000188491EBB
:101A9000018048E04BE02178012907D9491EC9B2ED
:101AA0002170022910D0032902D03DE003212170CA
:101AB000514689F800A00278012A1BD00178032939
:101AC0000CD031E00CE017E089F8005001780229D1
:101AD0000DD00178042927D103210BE0042109E06E
:101AE0000178032903D00178042902D01CE0057095
:101AF0001AE05146017017E00078454A5FEAC07C61
:101B0000444801D01B8800E05B8812781A440B8897
:101B1000D21A02F5A0720280B0F90000142802DD8A
:101B20000888401C08803780778001F09CFA4FF4C9
:101B3000006001F0E3F978B14FF4006001F07EF944
:101B40002A494FF40060086030480178B9B180F844
:101B50000080778001F087FA4FF48057384601F013
:101B6000CDF978B3384601F069F92048076020487C
:101B70000178062905D20178491C017002E0057040
:101B8000E7E705700178012906D12178032903D3FD
:101B900080F800A089F800A00178022906D12178F8
:101BA000022903D10321017089F80050007803282D
:101BB0000BD12078022802D0032804D005E08BF84E
:101BC000008002E005E08BF80050FA20708001F000
:101BD0004AFA11480570BDE8F09F0000150000208A
:101BE00070000020180000201100002014040140A3
:101BF0001600002012000020280000205C000020B9
:101C000050000020540000200000F0421900002085
:101C100014000020260000201B0000202DE9F05FAA
:101C2000402001F06BF9FC4C0027DFF8F0B3FC4DCD
:101C300041F63F7840F69F7940F21F3A40F2CF7666
:101C4000002877D0402001F0F9F8F64940200860DC
:101C5000F548017801290FD0017802290CD00178CC
:101C6000032950D00178042950D00178052955D096
:101C70000078062871D09FE0EC480168002902DD59
:101C80000168491E016000680F283AD2DFE800F0C1
:101C9000080A0E1012171C2039282C313535350052
:101CA000632012E0632014E0E06217E0632013E099
:101CB000632016E00020A06249F63F40F4E70020D0
:101CC000A06244F61F60EFE70020A0624046EBE709
:101CD0000020A0624846E7E7A062E662584613E0AB
:101CE0000020A0625046DFE70020A06240F28F1083
:101CF000DAE70020A062C720D6E70020A0624F20CC
:101D0000D2E70020E8E7CA48077055E0C9480078E4
:101D1000032851D2C848012101704DE0C548007820
:101D20000328C648017819D2022904D00178042971
:101D300003D041E047E0012100E003210170C048E9
:101D4000B0F900007838FEF761FCBE49096855F823
:101D50002110FEF763FABC4917E022E0012903D005
:101D60000178032902D027E0022100E0042101705C
:101D7000B348B0F900007838FEF748FCB24909686A
:101D800055F82110FEF74AFAAE49096855F82110B6
:101D9000FEF776FAAD49FEF7E9F9FEF756FCA849D9
:101DA00009E0AB48017811B10178491E01709C49E6
:101DB0004FF49670091F088099494FF49670091FD7
:101DC000488001F050F9802001F098F8002879D07F
:101DD000802001F033F89349802008609248017810
:101DE00001290FD0017802290CD00178032951D0A4
:101DF0000178042952D00178052957D000780628A7
:101E00007ED0A2E0894801680E2902DA0168491CE7
:101E1000016000680F283BD2DFE800F0080A0E10CE
:101E200012171C203A292D3236363600632012E074
:101E3000632014E0E06217E0632013E0632017E002
:101E40000020A06249F63F40F4E70020A06244F67B
:101E50001F60EFE70020A0624046EBE70020A06291
:101E60004846E7E7A062E6628BF800706DE000206C
:101E7000A0625046DEE70020A06240F28F10D9E752
:101E80000020A062C720D5E70020A0624F20D1E744
:101E90000020E7E766490120087056E065480078B1
:101EA000022852D06448022101704EE06148007857
:101EB00002286248017824D0012904D0017803293E
:101EC00003D042E048E0022100E0042101705C4CB4
:101ED000B4F900007838FEF799FB5B49096855F8BA
:101EE0002110FEF79BF95749096855F82110FEF7B4
:101EF000C7F95649FEF73AF9FEF7A7FB208024E020
:101F000017E0022903D00178042902D01DE0012145
:101F100000E0032101704A4CB4F900007838FEF764
:101F200075FB4849096855F82110FEF777F94649CD
:101F3000DAE747480178EF2902D20178491C01709D
:101F400037494FF49670091F088035494FF4967051
:101F5000091F488001F087F84FF40074204600F014
:101F6000CDFFE0B3204600F069FF2E4804602E4804
:101F70000178012910D00178022931D00278354941
:101F8000032A3BD00278042A66D00278052A6FD053
:101F9000007806286DD0ADE02B4C206800282CDDA1
:101FA0002068401E206025480078C00723D0244EBA
:101FB000B6F900007838FEF729FB216805EB8101AE
:101FC0004968FEF72BF9216855F82110FEF758F9FA
:101FD0001E49FEF7CBF8FEF738FB30800BE08FE0B0
:101FE000184C2068002808DD2068401E2060134837
:101FF0000078C007DBD08BF800707BE00C480278DB
:1020000031F91220002A71DA007801EB40000188D2
:10201000491C01806AE01FE0000400401900002014
:102020007400002014040140160000205800002015
:1020300015000020110000201800002012000020D0
:102040002800002054000020500000200000F04232
:10205000170000205C0000202C480178032909D2D9
:10206000491CC9B20170022906D0032910D041E0F1
:102070001BE022E0012116E02548012101702548DE
:102080000278022A0FD00178042933D103210AE013
:102090001F48022101701F480278012A03D00178ED
:1020A000032927D10421017024E01A48017801296D
:1020B000ECD001780229F5D01CE016480078164AC9
:1020C000C307164801D0098800E0498812781144F6
:1020D000134A1288891A01F5A0710180B0F9000035
:1020E000DB2803DA0E490888401E08800D494FF4AA
:1020F000967008800B494FF49670488000F0B3FF4B
:10210000094901200870BDE8F09F0000110000207F
:1021100018000020120000201400002026000020DB
:1021200028000020700000201B00002070470000E5
:102130002DE9F05FC16B0C6801680B68D0F840C0F6
:10214000042202FA0CF2494DDFF824A1494E4A4F0D
:10215000DFF828B1DFF828E122422CD05A072AD52F
:102160000A68920603D40A6822F004020A60016831
:10217000A94201D1042219E0514501D1402215E0C4
:10218000B14202D14FF4806210E0B94202D14FF463
:1021900080420BE0594502D14FF4802206E07145A0
:1021A00002D14FF4800201E04FF080622F490839DC
:1021B0004A60C16A3BE04FF0020808FA0CF818EADE
:1021C000040F4FF000094FF0010235D05FEA837829
:1021D00032D50B689B0605D40B6823F00A030B600D
:1021E00080F821200168A94201D1022219E051455D
:1021F00001D1202215E0B14202D14FF4007210E06B
:10220000B94202D14FF400520BE0594502D14FF4CC
:10221000003206E0714502D14FF4001201E04FF0A8
:102220000072124908394A6080F82090816A0029BA
:102230001AD0BDE8F05F0847082505FA0CF52542DD
:1022400012D01B0710D50B6823F00E030B6090F81B
:102250004010C36B02FA01F15960826380F82120BB
:1022600080F82090016BE2E7BDE8F09F0800024093
:102270001C0002403000024044000240580002406E
:102280006C00024030B528B308C813491422194421
:10229000B1FBF2F18900C1631049816302214177EA
:1022A0001A6843F6F0718A43D0E900142143D0E95B
:1022B00002452C4321430469214344692143846935
:1022C00021431143196000214163012242770177C4
:1022D000084630BD012030BDF8FFFDBF00000240C0
:1022E0002DE9F84FDFF8B891002409F1040A0AF14A
:1022F000040B23460F270BF1040EC9E00125A5406E
:102300002A40AA427DD1674ED1F804C0ACEB060842
:10231000B44532D014DCBCF1030F3AD009DCBCF177
:10232000000F2AD0BCF1010F1CD0BCF1020F31D13B
:102330001DE0BCF1110F17D0BCF1120F2AD119E02A
:10234000B8F5881F19D006DCB8F5803F15D0B8F570
:10235000801F1FD111E0B8F5001F0ED0B8F5041F83
:1023600018D10AE0CB6815E0CB681B1D12E0CB68E2
:1023700008330FE0CB680C330CE08B682BB1012BDA
:102380004FF0080303D0456104E0042302E0056137
:1023900000E00023FF2A01D8064601E000F1040610
:1023A0004FEA840501D9A5F12005D6F8008007FA87
:1023B00005FC28EA0C0803FA05F548EA0508C6F802
:1023C00000804D68ED0062D5374DAE6946F00106DC
:1023D000AE61AD6924F0030605F001050095334DAB
:1023E00006EB050CDCF80850A607360F07FA06F8CE
:1023F00025EA0805DFF8B880404503D14FF0000812
:1024000017E044E0DFF8AC80404502D14FF001080E
:102410000FE0DFF8A480404502D14FF0020808E049
:10242000DFF89880404502D14FF0030801E04FF0FB
:10243000040808FA06F848EA0508CCF808804D6850
:10244000D9F80060ED034D4601D5164300E09643F0
:102450002E604D68DAF80060AD03554601D516438D
:1024600000E096432E604D68DBF80060ED025D46AB
:1024700001D5164300E096432E604D68DEF80060FB
:10248000AD02754601D5164300E096432E60641CEC
:102490000D682A46E5407FF431AFBDE8F88F0000B3
:1024A0000004014000001110001002400000014033
:1024B00000080140000C01400010014000140140E0
:1024C0000148806870470000900000200248816841
:1024D000027811448160704790000020074810B5D1
:1024E000016841F010010160032000F075F8002040
:1024F00000F006F800F024F8002010BD0020024093
:1025000070B50D4D04464FF47A712878B1FBF0F0A8
:102510000A490968B1FBF0F000F0CFF948B9102C76
:1025200007D200222146501E00F036F800206C60D1
:1025300070BD012070BD0000900000209C000020B4
:102540000C4808B5816941F001018161816901F0A0
:1025500001010091C16941F08051C161C06900F081
:10256000805000900448416821F0E06141F0007122
:10257000416008BD0010024000000140002809DB56
:1025800000F01F02012191404009800000F1E0208D
:10259000C0F8001170470000F0B40E4B1B680C46E9
:1025A000C3F30223C3F10705042D00D90425191D27
:1025B000072901D2002300E0DB1E012606FA05F1FF
:1025C000491E214099409E40761E16403143F0BC82
:1025D00002F051BB0CED00E0064900F0070208686C
:1025E0004FF6FF03184040EA0220034A10430860F8
:1025F000704700000CED00E00000FA0570B5040023
:1026000009D0606A002540B125616561A56294F832
:10261000510040B10CE0012070BD6068B0F5827FD0
:10262000F4D0E561F2E784F85050204600F040F81D
:10263000022084F851002068016821F04001016007
:10264000A088218900F4827001F404410843A18923
:1026500001F400610843217C01F002010843217D5F
:1026600001F001010843218B01F400710843217F2F
:1026700001F03801084394F8201001F0800108436C
:10268000218D01F40051084321680860A0690421EC
:1026900001EA1040216848602068C16921F40061A6
:1026A000C1616565012084F85100002070BD000003
:1026B00070B586B0002506460095019502950395F4
:1026C00000681E49884236D11D49886940F480500F
:1026D0008861886900F480500490886940F008009F
:1026E00088618869694600F00800049028200090FD
:1026F00002200190032003901248FFF7F1FD1248D9
:10270000416841F0E06141F001014160104C0F4827
:1027100020601020C4E901058020C4E903052020C1
:10272000C4E905502046E561FFF7ACFD08B1FFF7AD
:10273000FDFCB464666206B070BD0000003001406C
:1027400000100240000C0140000001403000024037
:10275000084900202DE9F84F044690F85000002762
:102760001D461646894601280DD04FF0010B84F80E
:1027700050B0FFF7A5FE804694F85100BA460128F4
:1027800004D0022793E00220BDE8F88FB9F1000FD2
:1027900073D0002E71D0032084F85100C4F854A0E7
:1027A000C4F83090A686E686C4F838A0A4F83CA009
:1027B000A4F83EA0C4F844A0C4F840A0A068B0F5B6
:1027C000004F09D12068016821F0400101602068B4
:1027D000016841F48041016020680168490603D422
:1027E000016841F040010160E068B0F5006F606889
:1027F00003D030B3012E24D041E008B1012E1CD10A
:10280000206B21680088C86006E02068816889071D
:1028100009D5216B0988C160206B801C2063E08E84
:10282000401EE08609E0FFF74BFEA0EB0800A8423F
:1028300002D3681C01D031E07DB3E08E0028E4D1E2
:1028400020E0206B21680078087306E0206881682A
:10285000890709D5216B09780173206B401C20631F
:10286000E08E401EE0860AE0FFF72AFEA0EB08009B
:10287000A84203D3681C02D010E017E06DB1E08ECF
:102880000028E3D142462946204601F0A5F908B1C7
:1028900020206065A06818B106E0FFE7032706E086
:1028A0002068C16880680090606D00B1012784F8DD
:1028B00051B084F850A0384666E710B5401EB0F11C
:1028C000807F01D3012010BD4FF0E02460610F2113
:1028D000601702F0D0F90020A061072020610020DD
:1028E00010BD000070B590F83C20012A26D00124CC
:1028F00080F83C40022280F83D2003685A689D68B9
:1029000022F070060A6832435A600D4B02689A4200
:1029100008D0B2F1804F05D00A4B9A4202D00A4B40
:102920009A4204D1496825F080031943916080F8E8
:102930003D40002180F83C10084670BD022070BD6B
:10294000002C0140000400400008004010B50400C5
:1029500003D094F83D0010B107E0012010BD002025
:1029600084F83C00204600F01FF8022084F83D0067
:10297000211D206801F06AFE012084F8460084F8D9
:102980003E0084F83F0084F8400084F8410084F859
:10299000420084F8430084F8440084F8450084F839
:1029A0003D00002010BD000008B5006806498842BF
:1029B00008D10648C16941F00401C161C06900F055
:1029C0000400009008BD0000000800400010024014
:1029D00070B5044690F83C00012817D0012584F812
:1029E0003C50022084F83D002068826822F0770283
:1029F00022F47F4282600868502830D00DDC202805
:102A00004DD005DC98B310283BD148E0022070BDC2
:102A1000302844D0402834D139E0602828D07028AC
:102A200006D0B0F5805F2CD0B0F5005F29D10AE068
:102A3000CB68D1E90121206801F04BFE2068816854
:102A400041F0770109E0CB68D1E90121206801F06C
:102A500040FE2068816841F48041816011E0CA68CD
:102A60004968206801F0EAFE5021206807E016E07E
:102A7000CA684968206801F0F2FE6021206801F010
:102A800032FE84F83D50002084F83C0070BDCA68D6
:102A90004968206801F0D2FE40212068EFE72268F3
:102AA00001461046EBE7000000B585B0002100911B
:102AB00001910291039100680B49884212D10B48A1
:102AC000816941F0080181618069694600F0080070
:102AD00004904FF40070009002200190039004488D
:102AE000FFF7FEFB05B000BD0008004000100240EB
:102AF000000C014070B5044690F83C000D460128DA
:102B00000AD0012084F83C0042B1042A18D0082AD7
:102B10002AD00C2A4DD139E0022070BD206801F086
:102B2000EBFD2068816941F00801816120688169BD
:102B300021F004018161206881692A69114311E053
:102B4000206801F001FE2068816941F40061816123
:102B50002068816921F480618161206881692A6926
:102B600041EA0221816124E0206801F019FE206819
:102B7000C16941F00801C1612068C16921F0040107
:102B8000C1612068C1692A69114311E0206801F020
:102B900033FE2068C16941F40061C1612068C169E8
:102BA00021F48061C1612068C1692A6941EA02217A
:102BB000C161002084F83C0070BD10B5040003D052
:102BC00094F83D0010B107E0012010BD002084F80A
:102BD0003C00204600F01EF8022084F83D00211D34
:102BE000206801F033FD012084F8460084F83E009F
:102BF00084F83F0084F8400084F8410084F84200E3
:102C000084F8430084F8440084F8450084F83D00CB
:102C1000002010BD7047000010B50446022249B1E3
:102C200004290ED0082913D094F84100012816D0A9
:102C3000012010BD94F83E000128F9D184F83E200F
:102C40000FE094F83F000128F2D184F83F2008E01B
:102C500094F840000128EBD184F8402001E084F88A
:102C600041200122206801F027FD0F492068884299
:102C700003D1426C42F4004242642068884208D08A
:102C8000B0F1804F05D00949884202D008498842F6
:102C900004D1816801F00701062903D0016841F0E1
:102CA00001010160002010BD002C01400004004023
:102CB00000080040FEE700000D4B10B59B680022A5
:102CC0000C4C03F00103A46804F00104234302D078
:102CD0000122104610BD096829B1436823F470230E
:102CE0000B434360F5E7416821F470214160F0E750
:102CF000002401400028014010B58368002213F031
:102D0000010F02D00122104610BD43684C6823F425
:102D10008073234343608368096823F400630B4393
:102D20008360F0E770B54B688468002214F0010FEF
:102D300002D00122104670BD33B18C682343446831
:102D400024F46844234302E0436823F46843436067
:102D5000CC680B68856823430C69064E35402C43CC
:102D6000234383604968C36A23F470030B43C3623F
:102D7000E0E70000FDFEF1FF10B54FF4407494FA57
:102D8000A4F401F44073B4FA84F4E34000EB83004C
:102D9000C36A01F01F011F248C4002F01F02A343ED
:102DA0008A401343C36210BD70B54FF0007494FAAB
:102DB000A4F401F00073B4FA84F4E34000EB830060
:102DC000C3684FF0F87494FAA4F501F0F871B5FAFD
:102DD00085F521FA05F50726AE4094FAA4F4B4FA75
:102DE00084F4E140B3438A401343C36070BD0000E4
:102DF000044908B58A6902438A61896901400091E2
:102E000008BD000000100240044A114411F8011CE2
:102E1000425842F00102425070470000986C00088E
:102E2000054B001D194411F8011C0B586FF30F03DB
:102E300013430B5070470000986C000802490A6861
:102E400082430A60704700000004014002490A689A
:102E500002430A60704700000004014030B5264A72
:102E6000002405790168131F85B371B345798DB1CD
:102E7000012D17D0022D18D0012483792BB31E49C0
:102E800008310A1F012B18D0022B20D0032B22D08F
:102E9000012428E015688D43156001681A680A430B
:102EA0001A60EAE71D688D4301E01D680D431D604F
:102EB000016813680B431360DFE703680D689D43E7
:102EC0000D6000681168014311600CE00DE00368BB
:102ED00015689D4302E0036815681D43156000688E
:102EE0000A6802430A60204630BD1D688D431D609C
:102EF000006811688143E7E7040401400349096859
:102F0000884301D00020704701207047140401401D
:102F10000A06930D064A1A44936823EA1143090CE2
:102F200091FAA1F1B1FA81F18840034393607047AF
:102F300000000140F0B50A68C2F30F2595FAA5F22A
:102F4000B2FA82F369E001229A402A4264D0082B47
:102F500003D240F201129A4006E0A3F108024FF0BA
:102F60000114944044F080624C68082C0BD10C6929
:102F7000C668170A97FAA7F7B7FA87F726EA12265C
:102F8000BC402643C66092FAA2F700EB1264B7FA7F
:102F900087F74FEA870C0F27266807FA0CF7BE431E
:102FA00092FAA2F7D1F804E0B7FA87F7BF000EFA59
:102FB00007FE46EA0E0626604F68012F01D0092F52
:102FC0002AD192FAA2F7B7FA87F74FEA870C0327BC
:102FD00007FA0CF7BE4392FAA2F7B7FA87F7D1F8CF
:102FE00008E0BF000EFA07FE92FAA2FC46EA0E06BF
:102FF000BCFA8CFC4FEA8C0E4FF0040C26600CFAE5
:103000000EFC92FAA2F2B2FA82F2CF68920026EA9D
:103010000C0697403E4326605B1C35FA03F292D1C2
:103020000020F0BD30B591FAA1F400EB1160B4FAC4
:1030300084F4A5000F24AC4091FAA1F10368B1FA21
:1030400081F18900A3438A401343036030BDC36804
:1030500023EA1123090A91FAA1F1B1FA81F18A4018
:103060001343C36070474FF0E020016941F0020153
:103070000161704701490860704700009C00002012
:10308000F0B50268154B164C164D4FF0804698422D
:1030900005D0B04203D0A04201D0A84203D14F686E
:1030A00022F070023A43984205D0B04203D0A042C9
:1030B00001D0A84203D1CC6822F4407222430260BE
:1030C0008A68C2620A888262984201D109690163F2
:1030D000416941F0010141610020F0BD002C014037
:1030E000000400400008004008B54FF0E0210A69E4
:1030F0000092421C00D0401C0A69D20300D5401E39
:103100000028F9D108BD00002DE9FE43DFF8408317
:10311000D8F84810CF4C00254FF6FF76D4E90030A0
:103120000F2914D2DFE801F0080B1E2124272A2DD5
:10313000303336393C3F4200C7A2029501E0C8A2B5
:103140000295CDE900060021084601F0A7F8D8F85D
:103150004400B72707287ED2DFE800F02B323D4439
:103160004B616800C0A20295EBE7C1A20295E8E7B7
:10317000C1A20295E5E7C2A20295E2E7C2A20295CA
:10318000DFE7C3A20295DCE7C3A20295D9E7C4A298
:103190000295D6E7C4A20295D3E7C5A20295D0E76F
:1031A000C5A20295CDE7C6A20295CAE7C6A20295BE
:1031B000C7E7CDE9016560680090C5A2236805E016
:1031C000CDE90165606800902368C3A20021D32087
:1031D00001F064F83FE0CDE9016560680090C0A2AD
:1031E0002368F3E7CDE9016560680090BEA223681B
:1031F00005E0CDE90165606800902368BCA200216C
:10320000D32001F04BF8CDE9016560680090BAA2C7
:1032100000213846236801F041F8C5271BE0CDE9BD
:10322000016560680090B5A22368E8E7CDE9016513
:1032300060680090B3A20021D320236801F02EF82B
:10324000CDE901656068009088A2002138462368B6
:1032500001F024F8BE27D8F84000072816D2DFE88E
:1032600000F0040B3B4249505700CDE9016560680E
:103270000090A6A2236805E0CDE901656068009092
:103280002368A4A20021384601F008F8CDE90165C1
:1032900060680090A1A2E6210020236800F0FEFFF4
:1032A000CDE90165606800909EA2E6215120236867
:1032B00000F0F4FFCDE90165606800909BA2E62173
:1032C000A320236800F0EAFF98F8060047464FF66F
:1032D000E076012823D039E0CDE9016560680090EF
:1032E00094A22368CEE7CDE901656068009093A2BF
:1032F0002368C7E7CDE901656068009091A2236863
:10330000C0E7CDE901656068009090A22368B9E745
:10331000CDE90165606800908EA22368B2E7CDE92F
:103320000165606800908DA200213C20236800F0B8
:10333000B5FF7878032809D2CDE90165606800906F
:1033400088A200218C20236800F0A8FFB879022809
:1033500016D1CDE901656068009084A200213C206F
:10336000236800F09BFF7878022809D0CDE9016539
:10337000606800907BA200218C20236800F08EFF03
:10338000B879032819D0B879042829D0B879052844
:103390003FD0B879062821D1CDE901656068009059
:1033A00074A200213C20236800F078FFCDE901657C
:1033B0006068009071A223680CE0CDE90165606847
:1033C000009070A200213C20236800F067FF78790C
:1033D000B0B32EE000218C2000F060FFBDE8FE833A
:1033E000CDE901656068009068A200213C20236857
:1033F00000F054FF7878012804D0022821D0032857
:1034000017D0EBE7CDE901656068009061A2236801
:10341000E0E7CDE901656068009060A200213C20F2
:10342000236800F03BFFB87801280AD0B878032859
:1034300007D0CDE90165606800904CA22368C9E718
:10344000FFE7CDE901656068009044A22368C1E709
:1034500010000020000000203230306D73000000AA
:103460003130306D7300000035306D732000000086
:1034700032306D732000000031306D732000000089
:10348000356D732020000000326D73202000000095
:10349000316D73202000000035303075730000005E
:1034A0003230307573000000313030757300000029
:1034B0003530757320000000323075732000000035
:1034C0003130757320000000357573202000000036
:1034D000302E315600000000302E32560000000021
:1034E000302E35560000000020203156000000002C
:1034F00020203256000000002020000020203556F9
:10350000000000002031305600000000302E312F26
:1035100000000000302E322F000000005670703A7C
:1035200000000000447574793A000000467265712D
:103530003A000000302E352F000000002020312FEF
:10354000000000002020322F000000002020352F36
:10355000000000002031302F0000000020434831DF
:1035600020000000202020202000000020434832BE
:1035700020000000542D506F7300000020582D597A
:10358000200000004D4F56452000000053484F5783
:10359000200000004348312B3200000054524947BC
:1035A0004700000070B58EB000240B940C941421D9
:1035B00001A80D94FCF7CFFD142106A8FCF7CBFD64
:1035C0004FF400752846FFF713FC0420FFF710FCAA
:1035D00040F20440CDE9060406A92D48FFF7AAFCF5
:1035E0002D482C4A01460078105844F210039843A5
:1035F0000B78D050087810580B7840F44050D050D9
:10360000087810580B7840F02000D05008781058F7
:103610000B7820F04000D050087810580B7840F01C
:103620008000D050087810580B7820F4407040F497
:103630000070D05008781058097820F4406040F4A9
:1036400000605050154E0B940BA930460C94FFF7B8
:1036500053FB4FF4C0200D900DA93046FFF72CFB13
:10366000A802CDE90104C012CDE9044001A90394E8
:103670003046FFF757FB0A4C294622463046FFF7F3
:103680007BFB002221463046FFF78EFB0EB070BD5B
:103690000008014000000240986C0008002401402E
:1036A0000200600230B58DB000240A9414216846EF
:1036B0000B94FCF750FD142105A8FCF74CFD4FF4CA
:1036C0008060FFF795FB0420FFF792FB41F21000AA
:1036D000CDE9050405A91148FFF72CFC104D0A940B
:1036E0000AA928460B94FFF707FB4FF46020CDE9A9
:1036F000000402940394694628460494FFF712FBE1
:10370000084C691522462846FFF736FB0022214661
:103710002846FFF749FB0DB030BD0000000801400E
:10372000002801400400C0022DE9F04F87B00024BA
:103730000094142102A80194FCF70DFD1020FFF75E
:1037400057FB2020FFF754FB0420FFF751FB082014
:10375000FFF74EFB7748764A4FF460414161764F60
:103760004FF481517961DFF8D4B14FF40068C7F8A4
:10377000108002AB01250226059483E8640002A9AB
:10378000FFF7D8FB02A942F2200081E86100042083
:1037900005903846FFF7CEFB6948CDE902050320C6
:1037A000CDE9040402A93846FFF7C4FB65490020AF
:1037B000FFF7AEFB64490020FFF7AAFB6249012036
:1037C000491CFFF7A5FB61490120FFF7A1FB6049F8
:1037D0000020FFF79DFB5B490020491CFFF798FB89
:1037E00040208DF8045000908DF805408DF806605B
:1037F0006846FFF733FB80208DF8045000908DF869
:1038000005408DF806606846FFF728FB8DF80450E8
:103810008DF80540CDF800808DF806606846FFF70A
:103820001DFB28038DF8045000908DF805408DF89D
:1038300006606846FFF712FB68028DF8045000909E
:103840008DF805408DF806606846FFF707FBA80273
:103850008DF8045000908DF805408DF8066068469C
:10386000FFF7FCFA44F24004012221463846FFF7F4
:10387000EEFB6500012229463846FFF7E8FB354E8E
:10388000012259463046FFF7E2FBDFF8CC800122E7
:1038900041463046FFF7DBFBDFF8C0900122494686
:1038A0003846FFF7D4FBDFF8B8A00122514638466E
:1038B000FFF7CDFB082221463846FFF7B3FB08226D
:1038C00029463846FFF7AEFB082259463046FFF737
:1038D000A9FB082241463046FFF7A4FB08224946CF
:1038E0003846FFF79FFB082251463846FFF79AFB00
:1038F0001C4C20680022C0F30220012100F0C8F80F
:103900000146172001F0A7F9172001F097F9206868
:103910000022C0F30220012100F0BAF8014628205D
:1039200001F099F9282001F089F907B0BDE8F08F7E
:10393000E000E00400100140000801400800080415
:10394000180018040100000F010000F003000F0030
:103950000200F000000C01401000100402000204FC
:10396000040004040CED00E00C480B490222016045
:103970004FF48271416000218160C0E9031201228D
:1039800042615202C0E906210162416281620A215C
:10399000C162FEF733BE0000003001406404002025
:1039A00010B586B014216846FCF7D5FB1548C169EF
:1039B00041F00201C161C06940F28F1100F00200C4
:1039C00005900020ADF80000CDE901010E4C0390F8
:1039D00069462046FFF754FB206820F080002060F5
:1039E000A06844F207018843A060606820F070007E
:1039F00040F020006060A06820F08000A06006B069
:103A000010BD0000001002400004004010B58EB050
:103A100000240794089409940A940B941C21684686
:103A20000C94FCF798FB1848164901606321C0E923
:103A3000011440F21F31C0E9031480218161FEF7B7
:103A400085FF4FF48050079007A90F48FEF7C0FF8D
:103A50000D48FFF7B2F80B940BA90B480C94FEF736
:103A600041FF6020009040F28F10CDE901040C224C
:103A7000694605480494FFF73DF80348FFF714F83A
:103A80000EB010BD00080040BC040020FEE77047E7
:103A900030B500F00703C3F10704042C00D9042457
:103AA000181D072801D2002300E0DB1E012505FABE
:103AB00004F0401E084098409D406D1E154028436C
:103AC00030BD704770B541483F49026C31F8122053
:103AD0004283426C31F81210C183816BF239C18488
:103AE0008178CA07B0F918204FF0C80106D0438B7F
:103AF000783A5A4392FBF1F1028A05E0C38B783A97
:103B00005A4392FBF1F1428A114409B20165C2792C
:103B100081782F4B0A32012902D010E0491EC1845E
:103B2000C18C91420BD903EB4104056D34F8024C72
:103B3000AC42F3DC33F81140056DAC42EEDD817828
:103B4000244C022902D010E0491EC184C18C91424C
:103B50000BD904EB4105066D35F8025CB542F3DC88
:103B600034F81150066DB542EEDD8178032902D09C
:103B700010E0491EC184C18C91420BD903EB410571
:103B8000066D35F8025CB542F3DB33F81150066D73
:103B9000B542EEDA8178042902D010E0491EC184D2
:103BA000C18C91420BD904EB4103056D33F8023C03
:103BB000AB42F3DB34F81130056DAB42EEDAC18C69
:103BC000491EC18470BD0000A06C000810000020D8
:103BD000200500202015002038B50B460092044631
:103BE0000022802100F008F8002804D0606D40F029
:103BF00020006065032038BD2DE9F8431E4691463C
:103C000088460446089DFEF75BFC401B351AFEF70C
:103C100057FC074625480068C0F3CB30684338E0BE
:103C2000701C37D0FEF74CFCC01BA84203D215B164
:103C3000009860B32CE02068416821F0E001416009
:103C40006068B0F5827F0BD1A068B0F5004F02D05C
:103C5000B0F5806F04D12068016821F04001016057
:103C6000A06AB0F5005F09D12068016821F4005115
:103C700001602068016841F400510160012084F86E
:103C80005100002084F850000320BDE8F88300258F
:103C9000401E00902068816838EA010004D00021AD
:103CA0004945BDD10020F0E70121F9E79C00002043
:103CB000F8B51C460D46CFB20646D3B2D1B2C0B25B
:103CC0003A4600F061F9200A8DF800008DF80140B5
:103CD00000220C4C0C4F0D4BAD1B10E021686846C8
:103CE00041F400612160012110F8016BC7F80C60FC
:103CF00093F85160032EFBD0491EF5D2521C954219
:103D0000ECDAF8BD100801400030014064040020E6
:103D1000F8B51C461546D3B20E46C2B2C9B2C0B2FF
:103D200000F032F9200A8DF800008DF801400020E3
:103D30000C4C0D4F0D4BAD1B11E02268694642F44F
:103D4000006222605FF0010211F8016BC7F80C609D
:103D500093F85160032EFBD0521EF5D2401C8542D1
:103D6000EBDAF8BD10080140003001406404002087
:103D700038B51546F02827D2F02925D2134C2268F1
:103D800042F000422260CBB2C2B2C9B2C0B200F06F
:103D9000FBF8280A8DF800008DF80150216868466C
:103DA00041F4006121600A4B0A4A012110F8015BCD
:103DB000C3F80C5092F85150032DFBD0491EF5D298
:103DC000206840F40040206038BD00001008014029
:103DD00000300140640400202DE9F8430578441CBC
:103DE000DFF868804FF0FF392BE020788DF8000075
:103DF000D8F8001041F00061C8F800104B460122CD
:103E000069461348FEF7A6FC6078A41C00F0800702
:103E100030F080060CD0D8F8001041F40061C8F8EA
:103E200000104B46324621460948FEF793FC3444C5
:103E30003FB114F8010BFF2801D14FF4FA70FFF7DE
:103E400053F96D1EEDB2D0D2BDE8F88310080140E1
:103E500064040020F8B51B4C0546206840F0004083
:103E60002060EF2300211A46084600F08DF8164F17
:103E7000164B00214FEA152C05F0FF0E5FF00000F5
:103E80008DF800C08DF801E025686A4645F40065AC
:103E90002560012512F8016BC7F80C6093F851609A
:103EA000032EFBD06D1EF5D2401C80B2F028E7D364
:103EB000491C89B2F029E1D3206840F40040206019
:103EC000F8BD0000100801400030014064040020EB
:103ED00010B5294C206840F00040206027490020A0
:103EE000C86027480222521ED2B2FCD290F851205C
:103EF000032AFBD00022CA600122521ED2B2FCD299
:103F000090F85120032AFBD00022CA600122521EE1
:103F1000D2B2FCD290F85120032AFBD00022CA6012
:103F20000122521ED2B2FCD290F85120032AFBD0BB
:103F30000022CA600121491EC9B2FCD290F851107A
:103F40000329FBD0206840F0805020600A20FFF752
:103F5000CBF8206840F4805020600A48FFF73CFF0F
:103F6000022000F061F80A20FFF7BEF8206840F454
:103F70000040206010BD00001008014000300140EA
:103F800064040020746C00083EB5002401948DF890
:103F900005000294224C8DF809102A208DF8072084
:103FA0008DF80B308DF80000206840F00060206034
:103FB0004FF0FF352B46012269461A48FEF7CAFB2F
:103FC000206840F4006020602B46042201A91548B7
:103FD000FEF7C0FB2B208DF80000206840F0006049
:103FE00020602B46012269460E48FEF7B3FB20688D
:103FF00040F4006020602B46042202A90948FEF725
:10400000A9FB2C208DF80000206840F000602060A3
:104010002B46012269460348FEF79CFB3EBD00008B
:10402000100801406404002038B505462B4C3620AA
:104030008DF80000206840F0006020604FF0FF33F2
:10404000012269462648FEF785FB264A2449A5B188
:10405000012D22D0022D30D0032D0DD123686020F8
:1040600043F400632360D0600120401EC0B2FCD244
:1040700091F851000328FBD038BD2368C02043F4D9
:1040800000632360D0600120401EC0B2FCD200BF9C
:1040900091F851000328FBD038BD2368A02043F4D9
:1040A00000632360D0600120401EC0B2FCD200BF7C
:1040B00091F851000328FBD038BD2368002043F459
:1040C00000632360D0600120401EC0B2FCD200BF5C
:1040D00091F851000328FBD038BD000010080140C2
:1040E00064040020003001400FB44A1E2DE9F84F4F
:1040F000C3F307242244D6B2DDB2421EDDE90FBA73
:104100002A44D2B2C9B2C0B23346FFF73DFF002302
:10411000DFF8A490294E2A4848E00C990E9A2039DD
:1041200001FB043132F8117000213CE007FA01F282
:1041300012041CD54FEA1B228DF800208DF801B027
:10414000D9F800806A4648F40068C9F800804FF04A
:10415000010C00BF12F8018BC6F80C8090F851805A
:10416000B8F1030FFAD0BCF1010CF3D21AE04FEA18
:104170001A228DF800208DF801A0D9F800806A4637
:1041800048F40068C9F800804FF0010C12F8018B68
:10419000C6F80C8090F85180B8F1030FFAD0BCF14A
:1041A000010CF3D2491C8D42C0D85B1C9C42B4D890
:1041B000BDE8F80F5DF814FB100801400030014025
:1041C00064040020FEB52A4E089D74683668BAB1B2
:1041D000012A1BD0022A21D0032A25D0042A29D063
:1041E000052A2DD0062A31D0072A35D0082A39D001
:1041F000092A12D1CDE90043029533461DA20AE0F7
:10420000CDE90043029533461BA204E0CDE900430B
:104210000295334619A200F041F8FEBDCDE90043F6
:104220000295334616A2F6E7CDE9004302953346E0
:1042300014A2F0E7CDE900430295334612A2EAE763
:10424000CDE900430295334610A2E4E7CDE90043EF
:10425000029533460EA2DEE7CDE9004302953346D0
:104260000CA2D8E7CDE90043029533460AA2D2E773
:104270000000002039000000300000003100000084
:104280003200000033000000340000003500000060
:104290003600000037000000380000002DE9FE4F16
:1042A000184D0646DDE90DBA286899461446884639
:1042B00040F000402860DFB21AE0B819F0280BD3B4
:1042C000C9F3072000EB08011FFA81F800264044DB
:1042D000F02810D2202A0AD0CDE901BA0C9800901B
:1042E0004B4641463046FFF7FFFEB81986B2641CC4
:1042F0002278002AE1D1286840F400402860BDE817
:10430000FE8F00001008014070B52549087801288B
:1043100045D1086C234C0328206902DD40F480401D
:1043200001E040F080402061486C0328206902DDF4
:1043300040F4004001E040F000402061886C072814
:1043400002DD4FF4006007E0886C042802DD4FF4C2
:10435000A06001E04FF48060C863487A00281ED155
:104360000870114D08206860104A501C1278AA5835
:1043700010F8010C22F001022A50CA6B01212846D4
:10438000FEF74EFD01212846FEF73EFD0848016874
:1043900041F001010160206940F00050206170BDD2
:1043A000100000200010014000000240986C00083E
:1043B00000040040704700002DE9F0475C4CB4F960
:1043C0000200002803DD6088401E6080ABE020888A
:1043D00010B12088401EA5E0564B1868564F410684
:1043E0005648574A4FF0010508D41178062978D16C
:1043F0000178002975D00178491E0AE0196809067C
:1044000009D4117806296CD10178EF2969D2017895
:10441000491C017065E01868DFF828915FEA805850
:10442000DFF824C14948DFF828A14A494A4E29D477
:104430001378032B03D01278062A0DD051E09AF896
:104440000020514630F91220002A4ADA097800EBA0
:1044500041000188491C2CE099F80020D20701D0C6
:10446000008800E040889CF8002010440A88801AE8
:1044700000F5A0703080B6F90000DB2831DA08883A
:10448000401E2DE01B685B052DD41378032B03D051
:104490001278062A0FD024E09AF80020514630F90D
:1044A000122012F1C80F1CDD097800EB41000188D1
:1044B000491E018015E099F80020D20701D000883C
:1044C00000E040889CF8002010440A88801A00F51B
:1044D000A0703080B6F90000142802DD0888401C66
:1044E00008803D701DE04020FEF7B0FC8020FEF704
:1044F000ADFC4FF40070FEF7A9FC4FF48060FEF7AE
:10450000A5FC4FF40060FEF7A1FC4FF48050FEF7CD
:104510009DFC4FF0E020016921F0020101610F488C
:1045200005701E202080BDE8F047FDF7CFBF0000DA
:1045300070000020080801401B0000201700002028
:104540001600002012000020140000205C00002053
:104550001500002028000020260000206C0000200C
:10456000254810B5016821F0070141F00201016002
:10457000016801F007010229FAD1204C206840F4BB
:10458000803020602068C0F340400028FAD0606886
:1045900020F47C1040F404106060206840F08070CB
:1045A00020602068C0F340600028FAD0606820F0E6
:1045B000F0006060606820F4E06040F4806060605B
:1045C000606820F460506060606820F0030040F094
:1045D00002006060606800F00C000828FAD108480A
:1045E000FEF748FD0020FDF78BFF606820F4404097
:1045F00040F48040606010BD002002400010024086
:1046000000B4C4040D48016841F001010160416833
:104610000B4A1140416001680A4A1140016001687B
:1046200021F480210160416821F4FE0141604FF4D2
:104630001F0181600449C0030860704700100240F8
:104640000000FFF8FFFFF6FE08ED00E0F0B502689D
:10465000164B174C174D4FF08047984205D0B84283
:1046600003D0A04201D0A84203D122F070064A68CC
:104670003243984205D0B84203D0A04201D0A842AC
:1046800003D122F44074CA6822434C6922F08002AC
:10469000224302608A68C2620A688262984201D13B
:1046A0000969016301214161F0BD0000002C014056
:1046B000000400400008004010B501F01F03012174
:1046C000046A99408C430462016A9A401143016272
:1046D00010BD10B5846842EA032224F47F440A43E3
:1046E0002243826010BD826822F070020A4342F0C9
:1046F000070181607047000030B5026A22F00102B4
:104700000262026A4368846924F073050C682C43D2
:1047100022F002058A682A430A4DA8420BD122F0F2
:104720000805CA6823F440732A434D6922F0040245
:104730001D438B692B434360846149684163026276
:1047400030BD0000002C014030B5026A22F010029A
:104750000262026A436884690D6824F4E64444EA0C
:1047600005248D6822F0200242EA05120B4DA84272
:104770000ED1CD6822F0800242EA05124D6923F481
:10478000406343EA85038D6922F0400243EA8503D2
:104790004360846149688163026230BD002C01403E
:1047A00030B5026A22F480720262036A4268C46908
:1047B00023F4007324F073050C682C438D6843EADE
:1047C00005230C4DA8420ED1CD6823F4006343EAC3
:1047D00005234D6922F4405242EA05128D6923F403
:1047E000806342EA05124260C4614968C1630362A2
:1047F00030BD0000002C014030B5026A22F4805226
:104800000262046A4268C3690D6823F4E64343EA1E
:1048100005238D6824F4005444EA0534064DA8426B
:1048200004D14D6922F4804242EA85124260C3619C
:1048300049680164046230BD002C014010B5036A70
:10484000046A24F001040462846924F0F00444EA58
:10485000021423F00A020A438461026210BD10B5FB
:10486000036A23F0100303628369046A23F470432C
:1048700043EA023224F0A00343EA0111826101629B
:1048800010BDFEE72DE9FF5F7E4E4FF480550024FA
:10489000307A2146012801D07B4A18E07B4A08E0A3
:1048A00032F81100A84200DA0546A04200DD0446B5
:1048B000491CB06B8142F3DB0CE000BF32F8110001
:1048C000A84200DA0546A04200DD0446491CB06B50
:1048D0008142F3DB002002900190834682468146AC
:1048E000009001272046FBF79AFEDFF8A081A8F18F
:1048F0001C08C8F814002846FBF791FEC8F81800F9
:10490000281900EB40004408012576E02846B7B39B
:1049100000F03CFCA0426FDC681C00F037FCA042B9
:104920006ADD284600F032FC271A681C00F02EFCD5
:10493000001B3844FBF76AFE0746284600F026FCB9
:10494000201AFBF763FE3946FBF79AFC0746B9F1DC
:10495000000F15D02846FBF759FE3946FBF706FC39
:104960000299FBF755FC0BF1010B01902846FBF770
:104970004DFE3946FBF7FAFB002703903CE009E0C7
:104980004FF001092846FBF741FE3946FBF7EEFBE5
:104990000290EBE700F0FAFBA0422DDB681C00F070
:1049A000F5FBA04228DA284600F0F0FB071B681C44
:1049B00000F0ECFB201A3844FBF728FE0746284697
:1049C00000F0E4FB001BFBF721FE3946FBF758FC27
:1049D0000746B9F1010F0ED12846FBF717FE3946FD
:1049E000FBF7C4FB0399FBF713FC0099FBF7BEFB35
:1049F0000AF1010A009001276D1CB06B801E8542F0
:104A000084DB5846FBF702FE01460198FBF738FCB1
:104A100004465046FBF7FAFD01460098FBF730FCD0
:104A200005461B48B16C50F821002146FBF7F6FB08
:104A3000FBF743FE0022174BFBF779FD02460B46BE
:104A400000201549FBF773FD0022144BFBF756FCC1
:104A5000FBF714FEC8F8080046462046FBF72DFE7B
:104A600007460C462846FBF728FE00220C4BFBF7B6
:104A7000ECFC3A462346FBF75AFDFBF7FFFD70605E
:104A8000BDE8FF9F10000020201500202005002019
:104A9000B06C0008000034400000F03F0000E03F30
:104AA00000408F402DE9F043624AFAB0906C114605
:104AB000614DCF8C05F5005105F5805601F5FA7969
:104AC0000D2840D0906C0E2873D1D0794FEA900C0D
:104AD000D079800701D00CF1010C00206B461FAC8F
:104AE000A7EB0C0707EB000C35F81C8023F81080AF
:104AF00036F81CC024F810C0401C3E28F2DBD079E8
:104B0000800700D0D079D07900204E4633F81020AD
:104B100003EB400521F830206D8857194FEA570CF8
:104B200001EBC007AA42A7F804C045D2A5EB020CCE
:104B30004FEAEC780CEB987C4FEAAC0C62447A803C
:104B4000A5EB0C0245E0D0796B464FEA500C0020F3
:104B50003DACA7EB0C0700BF07EB000C35F81C8041
:104B600023F8108036F81CC024F810C0401C7A28A6
:104B7000F2DBD079D07900204FEA090203EB40063E
:104B800033F81050768821F820502E44750801EB38
:104B90008006758004EB400534F810606D8822F8BB
:104BA0002060354402EB80066D08401C7580792832
:104BB000E4DB7AB0BDE8F083A2EB050C4FEAEC78B9
:104BC0000CEB987C4FEAAC0CA2EB0C027A8005EB64
:104BD0000C02FA8034F8102004EB400526F830204F
:104BE0006D8857194FEA570C06EBC007AA42A7F881
:104BF00004C00CD2A5EB020C4FEAEC780CEB987CCD
:104C00004FEAAC0C62447A80A5EB0C020CE0A2EBFC
:104C1000050C4FEAEC780CEB987C4FEAAC0CA2EB5D
:104C20000C027A8005EB0C02401CFA803D28FFF64E
:104C30006DAFBEE71000002020050020002809DB32
:104C400000F01F02012191404009800000F1E020A6
:104C5000C0F8001170470907090E002804DB00F1B5
:104C6000E02080F80014704700F00F0000F1E02011
:104C700080F8141D70470907090E002804DB00F1B5
:104C8000E02080F80014704700F00F0000F1E020F1
:104C900080F8141D704702E008C8121F08C1002ADE
:104CA000FAD170477047002001E001C1121F002AAD
:104CB000FBD170470EB5FDF711FCFFF751FCFEF775
:104CC00033FDF848416941F001014161406900F05C
:104CD00001000090F44800680022C0F30220114651
:104CE000FEF7D6FE01460B20FFF7B5FF0B20FFF7BE
:104CF000A5FF002211460D20FDF74EFC0D20FDF70B
:104D00003DFCFEF74FFCFEF7CDFCFEF72DFEFEF757
:104D10007DFEFEF745FEE54CA06840F00100A06076
:104D2000A06840F00400A060A068C0F380000028E4
:104D3000FAD10A20FEF7D8F9DD4DA86840F001004D
:104D4000A860A86840F00400A860A868C0F38000CC
:104D50000028FAD10A20FEF7C7F9FFF7B9F80020BA
:104D6000FFF778F8DFF84C834FF0010988F80090DE
:104D7000D249CE48A8F82C900E46CF4A4C3009783C
:104D80000832CD4F8850CC4932780C31CC48505045
:104D9000CA1401213846FEF743F830783858317884
:104DA00040F00200785001213846FEF72DF8A06847
:104DB00040F48010A060A86840F48010A860C1484A
:104DC000016841F00101016000254FF6FF76BE4801
:104DD000CDE90165416800910368BCA266211820F5
:104DE000FFF75CFABD4CCDE9016560680090BCA29C
:104DF000822132202368FFF751FA4FF4FA673846D0
:104E0000FEF772F9CDE9016560680090BAA28221CF
:104E10002E202368FFF742FA3846FEF765F9CDE900
:104E2000016560680090BAA2822132202368FFF7F2
:104E300035FA40F2DC50FEF757F90020FFF70AF888
:104E4000C820FEF751F90C21B748FDF7E5FEB74839
:104E5000016941F4005101614E4608F1360A08F13A
:104E60004C0B08F1540944460027E07A012801D18F
:104E7000E57201276078012827D00228504627D004
:104E800080F800508AF80160607A012824D0A07A66
:104E900001285AD0207801287CD0002FE4D0FEF7DA
:104EA00011FEBBF80010A9F80010BBF802004F4635
:104EB000A9F80200E08CE179401AA085FFF7F2FD25
:104EC000A078C00767D03888D8E08AF80060D9E7B2
:104ED00006708AF80150D7E7A672002FC4D0FEF7FB
:104EE000F1FDBBF80010A9F80010BBF802004F4616
:104EF000A9F80200E08CE179401AA085FFF7D2FD05
:104F0000A078C00701D0388800E07888217908446B
:104F1000218B401A00F5A070E082FEF7F5F8FBF750
:104F200061FF4FF6E0773B461322EF210020FEF7AA
:104F3000BFFE3B46DD22EF210020FEF7B9FEA8E0D0
:104F4000FCF76EFCFBF792FD8EE7FFF7DDF900231F
:104F50001322EF211846FEF7ABFE0023DD22EF21DE
:104F60001846FEF7A5FE7FB3FEF7ACFDBBF80010B8
:104F7000A9F80010BBF802004F46A9F80200E08C27
:104F8000E179401AA085FFF78DFDA078C00703D016
:104F9000388802E01DE070E0788821790844218B90
:104FA000401A00F5A070E082FEF7AEF8FBF71AFF9A
:104FB000A07904280AD0FBF787FCFBF799FF00BF14
:104FC000FCF72EFCFBF752FDA5724DE7FCF7D4F978
:104FD000F6E7554BE5846433394A03F58057A0461C
:104FE0000AE000BF52F8201023F81010090C27F82F
:104FF0001010401CA8F82600B8F82600D8F8381081
:105000008842EFDBFFF780F9FEF75CFDFFF73AFC23
:10501000BBF80020A9F80020BBF80200A9F80200A4
:10502000B8F8260098F80710401AA8F82C00FFF7E7
:1050300039FD98F80200C00702D0B9F8000001E07D
:10504000B9F8020098F804100844B8F81810401A8B
:1050500000F5A070A8F81600FEF756F8FBF7C2FEA0
:10506000FBF732FCFBF744FFFCF7DAFBFBF7FEFC37
:10507000D8F83C00C8F83800F6E67888217908446A
:10508000218B401A00F5A070E082FEF73DF8FBF797
:10509000A9FEA07904284BD0FBF716FCFBF728FFEC
:1050A0004EE70000001002400CED00E0002401403B
:1050B000002801401000002000000240986C000809
:1050C0000829002000040040080000204F534349F5
:1050D0004C4C4F53434F504500000000000000204F
:1050E00053616D706C696E67205261746520314D3B
:1050F00053612F7300000000202020202020205624
:10510000616E616E393220202020202020000000B6
:10511000202020202020202056312E312020202029
:105120002020202000000000BC04002000100140CE
:10513000FCF722F904E7000030B41446124A15794E
:10514000C635A84201DD1079C73015796D1CA8421B
:1051500001DA1079401C1579C635A94201DD1179B3
:10516000C73115796D1CA94201DA1179491CD27831
:105170008842224414B202DA0A46014600E002469E
:10518000204630BCFEF7C4BD100000200849097A53
:1051900001290BD0074900BF01EB400231F8100094
:1051A00032F8023C51881844084470470249F3E73A
:1051B0001000002020150020200500200000000025
:1051C00000000000000000000000000000000000DF
:1051D000001000100010001000100010000000105F
:1051E0000000000000280028002800000000000047
:1051F000000000000000000000240024007C0024C7
:105200000048007C004800480000000000380054BE
:105210000050003800140054005400380010000002
:1052200000200054005800300028005400140008EA
:105230000000000000100028002800100034004882
:1052400000480034000000000010001000100000B2
:105250000000000000000000000000000008001036
:105260000020002000200020002000200010000866
:1052700000200010000800080008000800080008CE
:10528000001000200010003800100028000000006E
:1052900000000000000000000000000000100010EE
:1052A000007C001000100000000000000000000062
:1052B00000000000000000000000001000100010BE
:1052C00000000000000000000000003800000000A6
:1052D00000000000000000000000000000000000CE
:1052E000000000100000000000080008001000107E
:1052F00000100010002000200000000000380044D2
:105300000044005400440044004400380000000001
:1053100000100030005000100010001000100010AD
:1053200000000000003800440044000400080010A1
:105330000020007C00000000003800440004001839
:1053400000040004004400380000000000080018B9
:10535000002800280048007C000800080000000029
:10536000007C004000400078000400040044003845
:105370000000000000380044004000780044004471
:105380000044003800000000007C00040008001009
:105390000010002000200020000000000038004421
:1053A000004400380044004400440038000000007D
:1053B0000038004400440044003C0004004400382D
:1053C00000000000000000000010000000000000CD
:1053D00000000010000000000000000000000010AD
:1053E000000000000000001000100010000000008D
:1053F000000C003000400030000C000000000000F5
:10540000000000000000007C0000007C00000000A4
:1054100000000000000000000060001800040018F8
:105420000060000000000000003800440004000894
:1054300000100010000000100000000000380044C0
:10544000004C0054005C00400040003800000000A8
:1054500000100028002800280028007C0044004498
:10546000000000000078004400440078004400443C
:105470000044007800000000003800440040004074
:105480000040004000440038000000000070004868
:105490000044004400440044004800700000000044
:1054A000007C00400040007C004000400040007C48
:1054B00000000000007C00400040007800400040F8
:1054C0000040004000000000003800440040004060
:1054D000005C004400440038000000000044004428
:1054E0000044007C004400440044004400000000EC
:1054F00000380010001000100010001000100038DC
:105500000000000000040004000400040004000483
:1055100000440038000000000044004800500060D3
:1055200000500048004800440000000000400040D7
:1055300000400040004000400040007C00000000AF
:105540000044006C006C00540044004400440044DB
:105550000000000000440064006400540054004C4B
:10556000004C0044000000000038004400440044A7
:10557000004400440044003800000000007800446B
:10558000004400440078004000400040000000005B
:1055900000380044004400440044004400540038F3
:1055A00000040000007800440044004400780048F3
:1055B0000048004400000000003800440040003073
:1055C000000800040044003800000000007C0010C7
:1055D000001000100010001000100010000000006B
:1055E00000440044004400440044004400440038A7
:1055F0000000000000440044004400280028002867
:10560000001000100000000000440044005400544A
:105610000054006C0028002800000000004400280E
:10562000002800100010002800280044000000009E
:105630000044004400280028001000100010001052
:1056400000000000007C0004000800100010002092
:105650000040007C00000000001800100010001046
:105660000010001000100010001000180020002092
:1056700000100010001000100008000800000000DA
:10568000003000100010001000100010001000107A
:105690000010003000100028002800440000000026
:1056A00000000000000000000000000000000000FA
:1056B0000000000000000000000000FE00200010BC
:1056C00000000000000000000000000000000000DA
:1056D0000000000000380044003C0044004C00344E
:1056E00000000000004000400058006400440044F6
:1056F0000064005800000000000000000038004472
:105700000040004000440038000000000004000495
:105710000034004C00440044004C00340000000001
:105720000000000000380044007C004000440038C5
:1057300000000000000C0010007C001000100010A1
:105740000010001000000000000000000034004CB9
:1057500000440044004C0034000400780040004045
:10576000005800640044004400440044000000006D
:105770000010000000700010001000100010001059
:105780000000000000100000007000100010001069
:1057900000100010001000E00040004000480050E1
:1057A000006000500048004400000000007000103D
:1057B0000010001000100010001000100000000089
:1057C00000000000007800540054005400540054BD
:1057D0000000000000000000005800640044004485
:1057E00000440044000000000000000000380044B5
:1057F00000440044004400380000000000000000A5
:105800000058006400440044006400580040004018
:10581000000000000034004C00440044004C003400
:105820000004000400000000005800640040004034
:10583000004000400000000000000000003800446C
:105840000030000800440038000000000020002064
:105850000078002000200020002000180000000038
:10586000000000000044004400440044004C0034A8
:105870000000000000000000004400440028002850
:105880000028001000000000000000000054005438
:105890000054006C002800280000000000000000F8
:1058A0000044002800100010002800440000000000
:1058B00000000000004400440028002800100010F0
:1058C0000010006000000000007C000800100020B4
:1058D0000040007C000000000018001000100010C4
:1058E0000020002000100010001000180010001010
:1058F0000010001000100010001000100010001028
:105900000030001000100010000800080010001007
:10591000001000300000000000000074004C000087
:105920000000000000000000000000000000000077
:105930000000000000000000000000000000000067
:105940000000000000000000000000000000000057
:10595000000000000000000000000000E003E00381
:10596000E003E003E003E003E003E003C003C0035F
:10597000C001C001C001C001C00100000000000062
:10598000E003E003E003000000000000000000006E
:105990003C1E3C1E3C1E3C1E3C1E3C1E3C1E000091
:1059A00000000000000000000000000000000000F7
:1059B00000000000000000000000000000000000E7
:1059C00000000000CE01CE03DE039E039C039C0773
:1059D000FF3FFF7F3807380F780F780F780EFFFFF3
:1059E000FFFFF01EF01CE01CE03CE03DE039000051
:1059F0000000000000000000FC03FE0FEE1FE01E90
:105A0000E01EE01EE01EE01FE00FE007F003FC01D7
:105A1000FE01FE01FE01FE01FE01FE01FE3DFC3F16
:105A2000F00FE001E001000000000000033E07F776
:105A30008FE78EE79EE3BCE3B8E7F8E7F0F7E03FD7
:105A4000C001FF03FF07F307F30FF31EF33CF33826
:105A5000F3787FF03FE0000000000000000000004D
:105A6000E007F80F780F781F781F781F780FF00F76
:105A7000E00F801FC37FC3FBE7F3F7F1F7F0FFF000
:105A80007FF03EF87F7CFF3FEF1F0000000000002A
:105A900000000000E003E003E003E003E003C003D4
:105AA000C001000000000000000000000000000035
:105AB00000000000000000000000000000000000E6
:105AC00000000000000000003F007C00F001E00149
:105AD000C003C00780078007800F000F000F000F72
